{"contracts/State.sol":{"State":{"abi":[{"anonymous":false,"inputs":[{"indexed":false,"internalType":"uint8","name":"version","type":"uint8"}],"name":"Initialized","type":"event"},{"anonymous":false,"inputs":[{"indexed":true,"internalType":"address","name":"previousOwner","type":"address"},{"indexed":true,"internalType":"address","name":"newOwner","type":"address"}],"name":"OwnershipTransferred","type":"event"},{"anonymous":false,"inputs":[{"indexed":false,"internalType":"uint256","name":"id","type":"uint256"},{"indexed":false,"internalType":"uint64","name":"blockN","type":"uint64"},{"indexed":false,"internalType":"uint64","name":"timestamp","type":"uint64"},{"indexed":false,"internalType":"uint256","name":"state","type":"uint256"}],"name":"StateUpdated","type":"event"},{"inputs":[{"internalType":"uint256","name":"id","type":"uint256"}],"name":"getState","outputs":[{"internalType":"uint256","name":"","type":"uint256"}],"stateMutability":"view","type":"function"},{"inputs":[{"internalType":"uint256","name":"id","type":"uint256"},{"internalType":"uint64","name":"blockN","type":"uint64"}],"name":"getStateDataByBlock","outputs":[{"internalType":"uint64","name":"","type":"uint64"},{"internalType":"uint64","name":"","type":"uint64"},{"internalType":"uint256","name":"","type":"uint256"}],"stateMutability":"view","type":"function"},{"inputs":[{"internalType":"uint256","name":"id","type":"uint256"}],"name":"getStateDataById","outputs":[{"internalType":"uint64","name":"","type":"uint64"},{"internalType":"uint64","name":"","type":"uint64"},{"internalType":"uint256","name":"","type":"uint256"}],"stateMutability":"view","type":"function"},{"inputs":[{"internalType":"uint256","name":"id","type":"uint256"},{"internalType":"uint64","name":"timestamp","type":"uint64"}],"name":"getStateDataByTime","outputs":[{"internalType":"uint64","name":"","type":"uint64"},{"internalType":"uint64","name":"","type":"uint64"},{"internalType":"uint256","name":"","type":"uint256"}],"stateMutability":"view","type":"function"},{"inputs":[{"internalType":"uint256","name":"state","type":"uint256"}],"name":"getTransitionInfo","outputs":[{"internalType":"uint256","name":"","type":"uint256"},{"internalType":"uint256","name":"","type":"uint256"},{"internalType":"uint64","name":"","type":"uint64"},{"internalType":"uint64","name":"","type":"uint64"},{"internalType":"uint256","name":"","type":"uint256"},{"internalType":"uint256","name":"","type":"uint256"}],"stateMutability":"view","type":"function"},{"inputs":[{"internalType":"uint256","name":"","type":"uint256"},{"internalType":"uint256","name":"","type":"uint256"}],"name":"identities","outputs":[{"internalType":"uint64","name":"BlockN","type":"uint64"},{"internalType":"uint64","name":"BlockTimeStamp","type":"uint64"},{"internalType":"uint256","name":"State","type":"uint256"}],"stateMutability":"view","type":"function"},{"inputs":[{"internalType":"contract IStateVerifier","name":"_verifierContractAddr","type":"address"}],"name":"initialize","outputs":[],"stateMutability":"nonpayable","type":"function"},{"inputs":[],"name":"owner","outputs":[{"internalType":"address","name":"","type":"address"}],"stateMutability":"view","type":"function"},{"inputs":[],"name":"renounceOwnership","outputs":[],"stateMutability":"nonpayable","type":"function"},{"inputs":[{"internalType":"address","name":"newVerifier","type":"address"}],"name":"setVerifier","outputs":[],"stateMutability":"nonpayable","type":"function"},{"inputs":[{"internalType":"address","name":"newOwner","type":"address"}],"name":"transferOwnership","outputs":[],"stateMutability":"nonpayable","type":"function"},{"inputs":[{"internalType":"uint256","name":"id","type":"uint256"},{"internalType":"uint256","name":"oldState","type":"uint256"},{"internalType":"uint256","name":"newState","type":"uint256"},{"internalType":"bool","name":"isOldStateGenesis","type":"bool"},{"internalType":"uint256[2]","name":"a","type":"uint256[2]"},{"internalType":"uint256[2][2]","name":"b","type":"uint256[2][2]"},{"internalType":"uint256[2]","name":"c","type":"uint256[2]"}],"name":"transitState","outputs":[],"stateMutability":"nonpayable","type":"function"},{"inputs":[{"internalType":"uint256","name":"","type":"uint256"}],"name":"transitions","outputs":[{"internalType":"uint256","name":"replaceAtTimestamp","type":"uint256"},{"internalType":"uint256","name":"createAtTimestamp","type":"uint256"},{"internalType":"uint64","name":"replacedAtBlock","type":"uint64"},{"internalType":"uint64","name":"createdAtBlock","type":"uint64"},{"internalType":"uint256","name":"id","type":"uint256"},{"internalType":"uint256","name":"replaceBy","type":"uint256"}],"stateMutability":"view","type":"function"},{"inputs":[],"name":"verifier","outputs":[{"internalType":"contract IStateVerifier","name":"","type":"address"}],"stateMutability":"view","type":"function"}],"evm":{"bytecode":{"linkReferences":{},"object":"608060405234801561001057600080fd5b50611b16806100206000396000f3fe608060405234801561001057600080fd5b50600436106100ea5760003560e01c80638da5cb5b1161008c578063c8d1e53e11610066578063c8d1e53e146102ae578063d8dcd971146102c1578063e20490b5146102d4578063f2fde38b146102e757600080fd5b80638da5cb5b14610237578063bb79571514610248578063c4d66de81461029b57600080fd5b806344c9af28116100c857806344c9af281461016e5780635437988d1461018f578063683ace65146101a2578063715018a61461022f57600080fd5b80630281bec2146100ef57806328f88a651461012e5780632b7ac3f314610143575b600080fd5b6101026100fd36600461191f565b6102fa565b6040805167ffffffffffffffff9485168152939092166020840152908201526060015b60405180910390f35b61014161013c366004611858565b61076f565b005b606554610156906001600160a01b031681565b6040516001600160a01b039091168152602001610125565b61018161017c36600461181d565b610fa6565b604051908152602001610125565b61014161019d3660046117dc565b611006565b6101f46101b036600461181d565b606760205260009081526040902080546001820154600283015460038401546004909401549293919267ffffffffffffffff80831693600160401b90930416919086565b60408051968752602087019590955267ffffffffffffffff9384169486019490945291166060840152608083015260a082015260c001610125565b61014161103d565b6033546001600160a01b0316610156565b6101f461025636600461181d565b600090815260676020526040902080546001820154600283015460038401546004909401549294919367ffffffffffffffff80831694600160401b9093041692909190565b6101416102a93660046117dc565b611051565b6101026102bc36600461181d565b61119a565b6101026102cf36600461191f565b611245565b6101026102e2366004611836565b611507565b6101416102f53660046117dc565b611559565b6000806000428467ffffffffffffffff161061035d5760405162461bcd60e51b815260206004820152601260248201527f6572724e6f467574757265416c6c6f776564000000000000000000000000000060448201526064015b60405180910390fd5b60008581526066602052604090205461037e57506000915081905080610768565b6000858152606660205260408120805461039a90600190611a7a565b815481106103aa576103aa611aa7565b600091825260209091206002909102015467ffffffffffffffff600160401b9091048116915085168110156104c057600086815260666020526040902080546103f590600190611a7a565b8154811061040557610405611aa7565b6000918252602080832060029092029091015488835260669091526040909120805467ffffffffffffffff9092169161044090600190611a7a565b8154811061045057610450611aa7565b6000918252602080832060029290920290910154898352606690915260409091208054600160401b90920467ffffffffffffffff169161049290600190611a7a565b815481106104a2576104a2611aa7565b90600052602060002090600202016001015493509350935050610768565b60008681526066602052604081205481906104dd90600190611a7a565b90505b80821161075957600060026104f58484611a40565b6104ff9190611a58565b60008a8152606660205260409020805491925067ffffffffffffffff8a16918390811061052e5761052e611aa7565b6000918252602090912060029091020154600160401b900467ffffffffffffffff16141561062057600089815260666020526040902080548290811061057657610576611aa7565b600091825260208083206002909202909101548b835260669091526040909120805467ffffffffffffffff90921691839081106105b5576105b5611aa7565b906000526020600020906002020160000160089054906101000a900467ffffffffffffffff16606660008c815260200190815260200160002083815481106105ff576105ff611aa7565b90600052602060002090600202016001015496509650965050505050610768565b600089815260666020526040902080548290811061064057610640611aa7565b600091825260209091206002909102015467ffffffffffffffff600160401b90910481169089161180156106c157506000898152606660205260409020610688826001611a40565b8154811061069857610698611aa7565b600091825260209091206002909102015467ffffffffffffffff600160401b9091048116908916105b156106e657600089815260666020526040902080548290811061057657610576611aa7565b600089815260666020526040902080548290811061070657610706611aa7565b600091825260209091206002909102015467ffffffffffffffff600160401b909104811690891611156107455761073e816001611a40565b9250610753565b610750600182611a7a565b91505b506104e0565b60008060009550955095505050505b9250925092565b836109cf5760008781526066602052604090205461081b5760405162461bcd60e51b815260206004820152605760248201527f74686572652073686f756c64206265206174206f6e6520737461746520666f7260448201527f206964656e7469747920696e20736d61727420636f6e7472616374207768656e60648201527f2069734f6c64537461746547656e65736973203d3d2030000000000000000000608482015260a401610354565b6000878152606660205260408120805461083790600190611a7a565b8154811061084757610847611aa7565b6000918252602091829020604080516060810182526002909302909101805467ffffffffffffffff808216808652600160401b9092041694840194909452600101549082015291504314156109045760405162461bcd60e51b815260206004820152602160248201527f6e6f206d756c7469706c652073657420696e207468652073616d6520626c6f6360448201527f6b000000000000000000000000000000000000000000000000000000000000006064820152608401610354565b868160400151146109c95760405162461bcd60e51b815260206004820152606c60248201527f6f6c64537461746520617267756d656e742073686f756c64206265206571756160448201527f6c20746f20746865206c6174657374206964656e74697479207374617465206960648201527f6e20736d61727420636f6e7472616374207768656e2069734f6c64537461746560848201527f47656e65736973203d3d2030000000000000000000000000000000000000000060a482015260c401610354565b50610b72565b60008781526066602052604090205415610a775760405162461bcd60e51b815260206004820152605460248201527f54686572652073686f756c64206265206e6f2073746174657320666f7220696460448201527f656e7469747920696e20736d61727420636f6e7472616374207768656e20697360648201527f4f6c64537461746547656e65736973203d3d2030000000000000000000000000608482015260a401610354565b60008681526067602052604090206003015415610ad65760405162461bcd60e51b815260206004820152601960248201527f6f6c6453746174652073686f756c64206e6f74206578697374000000000000006044820152606401610354565b60008681526067602090815260408083206003018a90558983526066825280832081516060810183528481528084018581529281018b81528254600181810185559387529490952090516002909402018054925167ffffffffffffffff908116600160401b027fffffffffffffffffffffffffffffffff0000000000000000000000000000000090941694169390931791909117825591519101555b60008581526067602052604090206003015415610bd15760405162461bcd60e51b815260206004820152601960248201527f6e657753746174652073686f756c64206e6f74206578697374000000000000006044820152606401610354565b6000604051806080016040528089815260200188815260200187815260200186610bfc576000610bff565b60015b60ff1690526065546040517f5fe8c13b0000000000000000000000000000000000000000000000000000000081529192506001600160a01b031690635fe8c13b90610c54908790879087908790600401611985565b60206040518083038186803b158015610c6c57600080fd5b505afa158015610c80573d6000803e3d6000fd5b505050506040513d601f19601f82011682018060405250810190610ca49190611800565b610d165760405162461bcd60e51b815260206004820152603560248201527f7a65726f2d6b6e6f776c656467652070726f6f66206f6620737461746520747260448201527f616e736974696f6e206973206e6f742076616c696400000000000000000000006064820152608401610354565b6066600089815260200190815260200160002060405180606001604052804367ffffffffffffffff1681526020014267ffffffffffffffff16815260200188815250908060018154018082558091505060019003906000526020600020906002020160009091909190915060008201518160000160006101000a81548167ffffffffffffffff021916908367ffffffffffffffff16021790555060208201518160000160086101000a81548167ffffffffffffffff021916908367ffffffffffffffff1602179055506040820151816001015550506040518060c0016040528060008152602001428152602001600067ffffffffffffffff1681526020014267ffffffffffffffff168152602001898152602001600081525060676000888152602001908152602001600020600082015181600001556020820151816001015560408201518160020160006101000a81548167ffffffffffffffff021916908367ffffffffffffffff16021790555060608201518160020160086101000a81548167ffffffffffffffff021916908367ffffffffffffffff1602179055506080820151816003015560a08201518160040155905050426067600089815260200190815260200160002060000181905550436067600089815260200190815260200160002060020160006101000a81548167ffffffffffffffff021916908367ffffffffffffffff1602179055508560676000898152602001908152602001600020600401819055507f81c6f328b24014ef550c34a433275b52f3a8a0f32aa871adec069ab526a0239088434289604051610f94949392919093845267ffffffffffffffff928316602085015291166040830152606082015260800190565b60405180910390a15050505050505050565b600081815260666020526040812054610fc157506000919050565b60008281526066602052604090208054610fdd90600190611a7a565b81548110610fed57610fed611aa7565b9060005260206000209060020201600101549050919050565b61100e6115e9565b6065805473ffffffffffffffffffffffffffffffffffffffff19166001600160a01b0392909216919091179055565b6110456115e9565b61104f6000611643565b565b600054610100900460ff16158080156110715750600054600160ff909116105b8061108b5750303b15801561108b575060005460ff166001145b6110fd5760405162461bcd60e51b815260206004820152602e60248201527f496e697469616c697a61626c653a20636f6e747261637420697320616c72656160448201527f647920696e697469616c697a65640000000000000000000000000000000000006064820152608401610354565b6000805460ff191660011790558015611120576000805461ff0019166101001790555b6065805473ffffffffffffffffffffffffffffffffffffffff19166001600160a01b0384161790556111506116a2565b8015611196576000805461ff0019169055604051600181527f7f26b83ff96e1f2b6a682f133852f6798a09c465da95921460cefb38474024989060200160405180910390a15b5050565b600081815260666020526040812054819081906111bf5750600091508190508061123e565b600084815260666020526040812080546111db90600190611a7a565b815481106111eb576111eb611aa7565b6000918252602091829020604080516060810182526002909302909101805467ffffffffffffffff808216808652600160401b909204169484018590526001909101549290910182905295509093509150505b9193909250565b6000806000438467ffffffffffffffff16106112a35760405162461bcd60e51b815260206004820152601260248201527f6572724e6f467574757265416c6c6f77656400000000000000000000000000006044820152606401610354565b6000858152606660205260409020546112c457506000915081905080610768565b600085815260666020526040812080546112e090600190611a7a565b815481106112f0576112f0611aa7565b600091825260209091206002909102015467ffffffffffffffff9081169150851681101561133457600086815260666020526040902080546103f590600190611a7a565b600086815260666020526040812054819061135190600190611a7a565b90505b80821161075957600060026113698484611a40565b6113739190611a58565b60008a8152606660205260409020805491925067ffffffffffffffff8a1691839081106113a2576113a2611aa7565b600091825260209091206002909102015467ffffffffffffffff1614156113e357600089815260666020526040902080548290811061057657610576611aa7565b600089815260666020526040902080548290811061140357611403611aa7565b600091825260209091206002909102015467ffffffffffffffff90811690891611801561147657506000898152606660205260409020611444826001611a40565b8154811061145457611454611aa7565b600091825260209091206002909102015467ffffffffffffffff908116908916105b1561149b57600089815260666020526040902080548290811061057657610576611aa7565b60008981526066602052604090208054829081106114bb576114bb611aa7565b600091825260209091206002909102015467ffffffffffffffff90811690891611156114f3576114ec816001611a40565b9250611501565b6114fe600182611a7a565b91505b50611354565b6066602052816000526040600020818154811061152357600080fd5b60009182526020909120600290910201805460019091015467ffffffffffffffff8083169450600160401b909204909116915083565b6115616115e9565b6001600160a01b0381166115dd5760405162461bcd60e51b815260206004820152602660248201527f4f776e61626c653a206e6577206f776e657220697320746865207a65726f206160448201527f64647265737300000000000000000000000000000000000000000000000000006064820152608401610354565b6115e681611643565b50565b6033546001600160a01b0316331461104f5760405162461bcd60e51b815260206004820181905260248201527f4f776e61626c653a2063616c6c6572206973206e6f7420746865206f776e65726044820152606401610354565b603380546001600160a01b0383811673ffffffffffffffffffffffffffffffffffffffff19831681179093556040519116919082907f8be0079c531659141344cd1fd0a4f28419497f9722a3daafe3b4186f6b6457e090600090a35050565b600054610100900460ff1661170d5760405162461bcd60e51b815260206004820152602b60248201527f496e697469616c697a61626c653a20636f6e7472616374206973206e6f74206960448201526a6e697469616c697a696e6760a81b6064820152608401610354565b61104f600054610100900460ff1661177b5760405162461bcd60e51b815260206004820152602b60248201527f496e697469616c697a61626c653a20636f6e7472616374206973206e6f74206960448201526a6e697469616c697a696e6760a81b6064820152608401610354565b61104f33611643565b600082601f83011261179557600080fd5b61179d611a09565b8083856040860111156117af57600080fd5b60005b60028110156117d15781358452602093840193909101906001016117b2565b509095945050505050565b6000602082840312156117ee57600080fd5b81356117f981611abd565b9392505050565b60006020828403121561181257600080fd5b81516117f981611ad2565b60006020828403121561182f57600080fd5b5035919050565b6000806040838503121561184957600080fd5b50508035926020909101359150565b6000806000806000806000610180888a03121561187457600080fd5b87359650602088013595506040808901359550606089013561189581611ad2565b94506118a48a60808b01611784565b93508960df8a01126118b557600080fd5b6118bd611a09565b8060c08b016101408c018d8111156118d457600080fd5b60005b60028110156118fe576118ea8f84611784565b8552602090940193918501916001016118d7565b5082965061190c8e82611784565b9550505050505092959891949750929550565b6000806040838503121561193257600080fd5b82359150602083013567ffffffffffffffff8116811461195157600080fd5b809150509250929050565b8060005b600281101561197f578151845260209384019390910190600101611960565b50505050565b6101808101611994828761195c565b60408083018660005b60028110156119c4576119b183835161195c565b918301916020919091019060010161199d565b505050506119d560c083018561195c565b61010082018360005b60048110156119fd5781518352602092830192909101906001016119de565b50505095945050505050565b6040805190810167ffffffffffffffff81118282101715611a3a57634e487b7160e01b600052604160045260246000fd5b60405290565b60008219821115611a5357611a53611a91565b500190565b600082611a7557634e487b7160e01b600052601260045260246000fd5b500490565b600082821015611a8c57611a8c611a91565b500390565b634e487b7160e01b600052601160045260246000fd5b634e487b7160e01b600052603260045260246000fd5b6001600160a01b03811681146115e657600080fd5b80151581146115e657600080fdfea2646970667358221220648a08fe24d34f1de8a4e5b9c67a23a7229fdc90e89f90b8c31ccd7c587f052064736f6c63430008070033","opcodes":"PUSH1 0x80 PUSH1 0x40 MSTORE CALLVALUE DUP1 ISZERO PUSH2 0x10 JUMPI PUSH1 0x0 DUP1 REVERT JUMPDEST POP PUSH2 0x1B16 DUP1 PUSH2 0x20 PUSH1 0x0 CODECOPY PUSH1 0x0 RETURN INVALID PUSH1 0x80 PUSH1 0x40 MSTORE CALLVALUE DUP1 ISZERO PUSH2 0x10 JUMPI PUSH1 0x0 DUP1 REVERT JUMPDEST POP PUSH1 0x4 CALLDATASIZE LT PUSH2 0xEA JUMPI PUSH1 0x0 CALLDATALOAD PUSH1 0xE0 SHR DUP1 PUSH4 0x8DA5CB5B GT PUSH2 0x8C JUMPI DUP1 PUSH4 0xC8D1E53E GT PUSH2 0x66 JUMPI DUP1 PUSH4 0xC8D1E53E EQ PUSH2 0x2AE JUMPI DUP1 PUSH4 0xD8DCD971 EQ PUSH2 0x2C1 JUMPI DUP1 PUSH4 0xE20490B5 EQ PUSH2 0x2D4 JUMPI DUP1 PUSH4 0xF2FDE38B EQ PUSH2 0x2E7 JUMPI PUSH1 0x0 DUP1 REVERT JUMPDEST DUP1 PUSH4 0x8DA5CB5B EQ PUSH2 0x237 JUMPI DUP1 PUSH4 0xBB795715 EQ PUSH2 0x248 JUMPI DUP1 PUSH4 0xC4D66DE8 EQ PUSH2 0x29B JUMPI PUSH1 0x0 DUP1 REVERT JUMPDEST DUP1 PUSH4 0x44C9AF28 GT PUSH2 0xC8 JUMPI DUP1 PUSH4 0x44C9AF28 EQ PUSH2 0x16E JUMPI DUP1 PUSH4 0x5437988D EQ PUSH2 0x18F JUMPI DUP1 PUSH4 0x683ACE65 EQ PUSH2 0x1A2 JUMPI DUP1 PUSH4 0x715018A6 EQ PUSH2 0x22F JUMPI PUSH1 0x0 DUP1 REVERT JUMPDEST DUP1 PUSH4 0x281BEC2 EQ PUSH2 0xEF JUMPI DUP1 PUSH4 0x28F88A65 EQ PUSH2 0x12E JUMPI DUP1 PUSH4 0x2B7AC3F3 EQ PUSH2 0x143 JUMPI JUMPDEST PUSH1 0x0 DUP1 REVERT JUMPDEST PUSH2 0x102 PUSH2 0xFD CALLDATASIZE PUSH1 0x4 PUSH2 0x191F JUMP JUMPDEST PUSH2 0x2FA JUMP JUMPDEST PUSH1 0x40 DUP1 MLOAD PUSH8 0xFFFFFFFFFFFFFFFF SWAP5 DUP6 AND DUP2 MSTORE SWAP4 SWAP1 SWAP3 AND PUSH1 0x20 DUP5 ADD MSTORE SWAP1 DUP3 ADD MSTORE PUSH1 0x60 ADD JUMPDEST PUSH1 0x40 MLOAD DUP1 SWAP2 SUB SWAP1 RETURN JUMPDEST PUSH2 0x141 PUSH2 0x13C CALLDATASIZE PUSH1 0x4 PUSH2 0x1858 JUMP JUMPDEST PUSH2 0x76F JUMP JUMPDEST STOP JUMPDEST PUSH1 0x65 SLOAD PUSH2 0x156 SWAP1 PUSH1 0x1 PUSH1 0x1 PUSH1 0xA0 SHL SUB AND DUP2 JUMP JUMPDEST PUSH1 0x40 MLOAD PUSH1 0x1 PUSH1 0x1 PUSH1 0xA0 SHL SUB SWAP1 SWAP2 AND DUP2 MSTORE PUSH1 0x20 ADD PUSH2 0x125 JUMP JUMPDEST PUSH2 0x181 PUSH2 0x17C CALLDATASIZE PUSH1 0x4 PUSH2 0x181D JUMP JUMPDEST PUSH2 0xFA6 JUMP JUMPDEST PUSH1 0x40 MLOAD SWAP1 DUP2 MSTORE PUSH1 0x20 ADD PUSH2 0x125 JUMP JUMPDEST PUSH2 0x141 PUSH2 0x19D CALLDATASIZE PUSH1 0x4 PUSH2 0x17DC JUMP JUMPDEST PUSH2 0x1006 JUMP JUMPDEST PUSH2 0x1F4 PUSH2 0x1B0 CALLDATASIZE PUSH1 0x4 PUSH2 0x181D JUMP JUMPDEST PUSH1 0x67 PUSH1 0x20 MSTORE PUSH1 0x0 SWAP1 DUP2 MSTORE PUSH1 0x40 SWAP1 KECCAK256 DUP1 SLOAD PUSH1 0x1 DUP3 ADD SLOAD PUSH1 0x2 DUP4 ADD SLOAD PUSH1 0x3 DUP5 ADD SLOAD PUSH1 0x4 SWAP1 SWAP5 ADD SLOAD SWAP3 SWAP4 SWAP2 SWAP3 PUSH8 0xFFFFFFFFFFFFFFFF DUP1 DUP4 AND SWAP4 PUSH1 0x1 PUSH1 0x40 SHL SWAP1 SWAP4 DIV AND SWAP2 SWAP1 DUP7 JUMP JUMPDEST PUSH1 0x40 DUP1 MLOAD SWAP7 DUP8 MSTORE PUSH1 0x20 DUP8 ADD SWAP6 SWAP1 SWAP6 MSTORE PUSH8 0xFFFFFFFFFFFFFFFF SWAP4 DUP5 AND SWAP5 DUP7 ADD SWAP5 SWAP1 SWAP5 MSTORE SWAP2 AND PUSH1 0x60 DUP5 ADD MSTORE PUSH1 0x80 DUP4 ADD MSTORE PUSH1 0xA0 DUP3 ADD MSTORE PUSH1 0xC0 ADD PUSH2 0x125 JUMP JUMPDEST PUSH2 0x141 PUSH2 0x103D JUMP JUMPDEST PUSH1 0x33 SLOAD PUSH1 0x1 PUSH1 0x1 PUSH1 0xA0 SHL SUB AND PUSH2 0x156 JUMP JUMPDEST PUSH2 0x1F4 PUSH2 0x256 CALLDATASIZE PUSH1 0x4 PUSH2 0x181D JUMP JUMPDEST PUSH1 0x0 SWAP1 DUP2 MSTORE PUSH1 0x67 PUSH1 0x20 MSTORE PUSH1 0x40 SWAP1 KECCAK256 DUP1 SLOAD PUSH1 0x1 DUP3 ADD SLOAD PUSH1 0x2 DUP4 ADD SLOAD PUSH1 0x3 DUP5 ADD SLOAD PUSH1 0x4 SWAP1 SWAP5 ADD SLOAD SWAP3 SWAP5 SWAP2 SWAP4 PUSH8 0xFFFFFFFFFFFFFFFF DUP1 DUP4 AND SWAP5 PUSH1 0x1 PUSH1 0x40 SHL SWAP1 SWAP4 DIV AND SWAP3 SWAP1 SWAP2 SWAP1 JUMP JUMPDEST PUSH2 0x141 PUSH2 0x2A9 CALLDATASIZE PUSH1 0x4 PUSH2 0x17DC JUMP JUMPDEST PUSH2 0x1051 JUMP JUMPDEST PUSH2 0x102 PUSH2 0x2BC CALLDATASIZE PUSH1 0x4 PUSH2 0x181D JUMP JUMPDEST PUSH2 0x119A JUMP JUMPDEST PUSH2 0x102 PUSH2 0x2CF CALLDATASIZE PUSH1 0x4 PUSH2 0x191F JUMP JUMPDEST PUSH2 0x1245 JUMP JUMPDEST PUSH2 0x102 PUSH2 0x2E2 CALLDATASIZE PUSH1 0x4 PUSH2 0x1836 JUMP JUMPDEST PUSH2 0x1507 JUMP JUMPDEST PUSH2 0x141 PUSH2 0x2F5 CALLDATASIZE PUSH1 0x4 PUSH2 0x17DC JUMP JUMPDEST PUSH2 0x1559 JUMP JUMPDEST PUSH1 0x0 DUP1 PUSH1 0x0 TIMESTAMP DUP5 PUSH8 0xFFFFFFFFFFFFFFFF AND LT PUSH2 0x35D JUMPI PUSH1 0x40 MLOAD PUSH3 0x461BCD PUSH1 0xE5 SHL DUP2 MSTORE PUSH1 0x20 PUSH1 0x4 DUP3 ADD MSTORE PUSH1 0x12 PUSH1 0x24 DUP3 ADD MSTORE PUSH32 0x6572724E6F467574757265416C6C6F7765640000000000000000000000000000 PUSH1 0x44 DUP3 ADD MSTORE PUSH1 0x64 ADD JUMPDEST PUSH1 0x40 MLOAD DUP1 SWAP2 SUB SWAP1 REVERT JUMPDEST PUSH1 0x0 DUP6 DUP2 MSTORE PUSH1 0x66 PUSH1 0x20 MSTORE PUSH1 0x40 SWAP1 KECCAK256 SLOAD PUSH2 0x37E JUMPI POP PUSH1 0x0 SWAP2 POP DUP2 SWAP1 POP DUP1 PUSH2 0x768 JUMP JUMPDEST PUSH1 0x0 DUP6 DUP2 MSTORE PUSH1 0x66 PUSH1 0x20 MSTORE PUSH1 0x40 DUP2 KECCAK256 DUP1 SLOAD PUSH2 0x39A SWAP1 PUSH1 0x1 SWAP1 PUSH2 0x1A7A JUMP JUMPDEST DUP2 SLOAD DUP2 LT PUSH2 0x3AA JUMPI PUSH2 0x3AA PUSH2 0x1AA7 JUMP JUMPDEST PUSH1 0x0 SWAP2 DUP3 MSTORE PUSH1 0x20 SWAP1 SWAP2 KECCAK256 PUSH1 0x2 SWAP1 SWAP2 MUL ADD SLOAD PUSH8 0xFFFFFFFFFFFFFFFF PUSH1 0x1 PUSH1 0x40 SHL SWAP1 SWAP2 DIV DUP2 AND SWAP2 POP DUP6 AND DUP2 LT ISZERO PUSH2 0x4C0 JUMPI PUSH1 0x0 DUP7 DUP2 MSTORE PUSH1 0x66 PUSH1 0x20 MSTORE PUSH1 0x40 SWAP1 KECCAK256 DUP1 SLOAD PUSH2 0x3F5 SWAP1 PUSH1 0x1 SWAP1 PUSH2 0x1A7A JUMP JUMPDEST DUP2 SLOAD DUP2 LT PUSH2 0x405 JUMPI PUSH2 0x405 PUSH2 0x1AA7 JUMP JUMPDEST PUSH1 0x0 SWAP2 DUP3 MSTORE PUSH1 0x20 DUP1 DUP4 KECCAK256 PUSH1 0x2 SWAP1 SWAP3 MUL SWAP1 SWAP2 ADD SLOAD DUP9 DUP4 MSTORE PUSH1 0x66 SWAP1 SWAP2 MSTORE PUSH1 0x40 SWAP1 SWAP2 KECCAK256 DUP1 SLOAD PUSH8 0xFFFFFFFFFFFFFFFF SWAP1 SWAP3 AND SWAP2 PUSH2 0x440 SWAP1 PUSH1 0x1 SWAP1 PUSH2 0x1A7A JUMP JUMPDEST DUP2 SLOAD DUP2 LT PUSH2 0x450 JUMPI PUSH2 0x450 PUSH2 0x1AA7 JUMP JUMPDEST PUSH1 0x0 SWAP2 DUP3 MSTORE PUSH1 0x20 DUP1 DUP4 KECCAK256 PUSH1 0x2 SWAP3 SWAP1 SWAP3 MUL SWAP1 SWAP2 ADD SLOAD DUP10 DUP4 MSTORE PUSH1 0x66 SWAP1 SWAP2 MSTORE PUSH1 0x40 SWAP1 SWAP2 KECCAK256 DUP1 SLOAD PUSH1 0x1 PUSH1 0x40 SHL SWAP1 SWAP3 DIV PUSH8 0xFFFFFFFFFFFFFFFF AND SWAP2 PUSH2 0x492 SWAP1 PUSH1 0x1 SWAP1 PUSH2 0x1A7A JUMP JUMPDEST DUP2 SLOAD DUP2 LT PUSH2 0x4A2 JUMPI PUSH2 0x4A2 PUSH2 0x1AA7 JUMP JUMPDEST SWAP1 PUSH1 0x0 MSTORE PUSH1 0x20 PUSH1 0x0 KECCAK256 SWAP1 PUSH1 0x2 MUL ADD PUSH1 0x1 ADD SLOAD SWAP4 POP SWAP4 POP SWAP4 POP POP PUSH2 0x768 JUMP JUMPDEST PUSH1 0x0 DUP7 DUP2 MSTORE PUSH1 0x66 PUSH1 0x20 MSTORE PUSH1 0x40 DUP2 KECCAK256 SLOAD DUP2 SWAP1 PUSH2 0x4DD SWAP1 PUSH1 0x1 SWAP1 PUSH2 0x1A7A JUMP JUMPDEST SWAP1 POP JUMPDEST DUP1 DUP3 GT PUSH2 0x759 JUMPI PUSH1 0x0 PUSH1 0x2 PUSH2 0x4F5 DUP5 DUP5 PUSH2 0x1A40 JUMP JUMPDEST PUSH2 0x4FF SWAP2 SWAP1 PUSH2 0x1A58 JUMP JUMPDEST PUSH1 0x0 DUP11 DUP2 MSTORE PUSH1 0x66 PUSH1 0x20 MSTORE PUSH1 0x40 SWAP1 KECCAK256 DUP1 SLOAD SWAP2 SWAP3 POP PUSH8 0xFFFFFFFFFFFFFFFF DUP11 AND SWAP2 DUP4 SWAP1 DUP2 LT PUSH2 0x52E JUMPI PUSH2 0x52E PUSH2 0x1AA7 JUMP JUMPDEST PUSH1 0x0 SWAP2 DUP3 MSTORE PUSH1 0x20 SWAP1 SWAP2 KECCAK256 PUSH1 0x2 SWAP1 SWAP2 MUL ADD SLOAD PUSH1 0x1 PUSH1 0x40 SHL SWAP1 DIV PUSH8 0xFFFFFFFFFFFFFFFF AND EQ ISZERO PUSH2 0x620 JUMPI PUSH1 0x0 DUP10 DUP2 MSTORE PUSH1 0x66 PUSH1 0x20 MSTORE PUSH1 0x40 SWAP1 KECCAK256 DUP1 SLOAD DUP3 SWAP1 DUP2 LT PUSH2 0x576 JUMPI PUSH2 0x576 PUSH2 0x1AA7 JUMP JUMPDEST PUSH1 0x0 SWAP2 DUP3 MSTORE PUSH1 0x20 DUP1 DUP4 KECCAK256 PUSH1 0x2 SWAP1 SWAP3 MUL SWAP1 SWAP2 ADD SLOAD DUP12 DUP4 MSTORE PUSH1 0x66 SWAP1 SWAP2 MSTORE PUSH1 0x40 SWAP1 SWAP2 KECCAK256 DUP1 SLOAD PUSH8 0xFFFFFFFFFFFFFFFF SWAP1 SWAP3 AND SWAP2 DUP4 SWAP1 DUP2 LT PUSH2 0x5B5 JUMPI PUSH2 0x5B5 PUSH2 0x1AA7 JUMP JUMPDEST SWAP1 PUSH1 0x0 MSTORE PUSH1 0x20 PUSH1 0x0 KECCAK256 SWAP1 PUSH1 0x2 MUL ADD PUSH1 0x0 ADD PUSH1 0x8 SWAP1 SLOAD SWAP1 PUSH2 0x100 EXP SWAP1 DIV PUSH8 0xFFFFFFFFFFFFFFFF AND PUSH1 0x66 PUSH1 0x0 DUP13 DUP2 MSTORE PUSH1 0x20 ADD SWAP1 DUP2 MSTORE PUSH1 0x20 ADD PUSH1 0x0 KECCAK256 DUP4 DUP2 SLOAD DUP2 LT PUSH2 0x5FF JUMPI PUSH2 0x5FF PUSH2 0x1AA7 JUMP JUMPDEST SWAP1 PUSH1 0x0 MSTORE PUSH1 0x20 PUSH1 0x0 KECCAK256 SWAP1 PUSH1 0x2 MUL ADD PUSH1 0x1 ADD SLOAD SWAP7 POP SWAP7 POP SWAP7 POP POP POP POP POP PUSH2 0x768 JUMP JUMPDEST PUSH1 0x0 DUP10 DUP2 MSTORE PUSH1 0x66 PUSH1 0x20 MSTORE PUSH1 0x40 SWAP1 KECCAK256 DUP1 SLOAD DUP3 SWAP1 DUP2 LT PUSH2 0x640 JUMPI PUSH2 0x640 PUSH2 0x1AA7 JUMP JUMPDEST PUSH1 0x0 SWAP2 DUP3 MSTORE PUSH1 0x20 SWAP1 SWAP2 KECCAK256 PUSH1 0x2 SWAP1 SWAP2 MUL ADD SLOAD PUSH8 0xFFFFFFFFFFFFFFFF PUSH1 0x1 PUSH1 0x40 SHL SWAP1 SWAP2 DIV DUP2 AND SWAP1 DUP10 AND GT DUP1 ISZERO PUSH2 0x6C1 JUMPI POP PUSH1 0x0 DUP10 DUP2 MSTORE PUSH1 0x66 PUSH1 0x20 MSTORE PUSH1 0x40 SWAP1 KECCAK256 PUSH2 0x688 DUP3 PUSH1 0x1 PUSH2 0x1A40 JUMP JUMPDEST DUP2 SLOAD DUP2 LT PUSH2 0x698 JUMPI PUSH2 0x698 PUSH2 0x1AA7 JUMP JUMPDEST PUSH1 0x0 SWAP2 DUP3 MSTORE PUSH1 0x20 SWAP1 SWAP2 KECCAK256 PUSH1 0x2 SWAP1 SWAP2 MUL ADD SLOAD PUSH8 0xFFFFFFFFFFFFFFFF PUSH1 0x1 PUSH1 0x40 SHL SWAP1 SWAP2 DIV DUP2 AND SWAP1 DUP10 AND LT JUMPDEST ISZERO PUSH2 0x6E6 JUMPI PUSH1 0x0 DUP10 DUP2 MSTORE PUSH1 0x66 PUSH1 0x20 MSTORE PUSH1 0x40 SWAP1 KECCAK256 DUP1 SLOAD DUP3 SWAP1 DUP2 LT PUSH2 0x576 JUMPI PUSH2 0x576 PUSH2 0x1AA7 JUMP JUMPDEST PUSH1 0x0 DUP10 DUP2 MSTORE PUSH1 0x66 PUSH1 0x20 MSTORE PUSH1 0x40 SWAP1 KECCAK256 DUP1 SLOAD DUP3 SWAP1 DUP2 LT PUSH2 0x706 JUMPI PUSH2 0x706 PUSH2 0x1AA7 JUMP JUMPDEST PUSH1 0x0 SWAP2 DUP3 MSTORE PUSH1 0x20 SWAP1 SWAP2 KECCAK256 PUSH1 0x2 SWAP1 SWAP2 MUL ADD SLOAD PUSH8 0xFFFFFFFFFFFFFFFF PUSH1 0x1 PUSH1 0x40 SHL SWAP1 SWAP2 DIV DUP2 AND SWAP1 DUP10 AND GT ISZERO PUSH2 0x745 JUMPI PUSH2 0x73E DUP2 PUSH1 0x1 PUSH2 0x1A40 JUMP JUMPDEST SWAP3 POP PUSH2 0x753 JUMP JUMPDEST PUSH2 0x750 PUSH1 0x1 DUP3 PUSH2 0x1A7A JUMP JUMPDEST SWAP2 POP JUMPDEST POP PUSH2 0x4E0 JUMP JUMPDEST PUSH1 0x0 DUP1 PUSH1 0x0 SWAP6 POP SWAP6 POP SWAP6 POP POP POP POP JUMPDEST SWAP3 POP SWAP3 POP SWAP3 JUMP JUMPDEST DUP4 PUSH2 0x9CF JUMPI PUSH1 0x0 DUP8 DUP2 MSTORE PUSH1 0x66 PUSH1 0x20 MSTORE PUSH1 0x40 SWAP1 KECCAK256 SLOAD PUSH2 0x81B JUMPI PUSH1 0x40 MLOAD PUSH3 0x461BCD PUSH1 0xE5 SHL DUP2 MSTORE PUSH1 0x20 PUSH1 0x4 DUP3 ADD MSTORE PUSH1 0x57 PUSH1 0x24 DUP3 ADD MSTORE PUSH32 0x74686572652073686F756C64206265206174206F6E6520737461746520666F72 PUSH1 0x44 DUP3 ADD MSTORE PUSH32 0x206964656E7469747920696E20736D61727420636F6E7472616374207768656E PUSH1 0x64 DUP3 ADD MSTORE PUSH32 0x2069734F6C64537461746547656E65736973203D3D2030000000000000000000 PUSH1 0x84 DUP3 ADD MSTORE PUSH1 0xA4 ADD PUSH2 0x354 JUMP JUMPDEST PUSH1 0x0 DUP8 DUP2 MSTORE PUSH1 0x66 PUSH1 0x20 MSTORE PUSH1 0x40 DUP2 KECCAK256 DUP1 SLOAD PUSH2 0x837 SWAP1 PUSH1 0x1 SWAP1 PUSH2 0x1A7A JUMP JUMPDEST DUP2 SLOAD DUP2 LT PUSH2 0x847 JUMPI PUSH2 0x847 PUSH2 0x1AA7 JUMP JUMPDEST PUSH1 0x0 SWAP2 DUP3 MSTORE PUSH1 0x20 SWAP2 DUP3 SWAP1 KECCAK256 PUSH1 0x40 DUP1 MLOAD PUSH1 0x60 DUP2 ADD DUP3 MSTORE PUSH1 0x2 SWAP1 SWAP4 MUL SWAP1 SWAP2 ADD DUP1 SLOAD PUSH8 0xFFFFFFFFFFFFFFFF DUP1 DUP3 AND DUP1 DUP7 MSTORE PUSH1 0x1 PUSH1 0x40 SHL SWAP1 SWAP3 DIV AND SWAP5 DUP5 ADD SWAP5 SWAP1 SWAP5 MSTORE PUSH1 0x1 ADD SLOAD SWAP1 DUP3 ADD MSTORE SWAP2 POP NUMBER EQ ISZERO PUSH2 0x904 JUMPI PUSH1 0x40 MLOAD PUSH3 0x461BCD PUSH1 0xE5 SHL DUP2 MSTORE PUSH1 0x20 PUSH1 0x4 DUP3 ADD MSTORE PUSH1 0x21 PUSH1 0x24 DUP3 ADD MSTORE PUSH32 0x6E6F206D756C7469706C652073657420696E207468652073616D6520626C6F63 PUSH1 0x44 DUP3 ADD MSTORE PUSH32 0x6B00000000000000000000000000000000000000000000000000000000000000 PUSH1 0x64 DUP3 ADD MSTORE PUSH1 0x84 ADD PUSH2 0x354 JUMP JUMPDEST DUP7 DUP2 PUSH1 0x40 ADD MLOAD EQ PUSH2 0x9C9 JUMPI PUSH1 0x40 MLOAD PUSH3 0x461BCD PUSH1 0xE5 SHL DUP2 MSTORE PUSH1 0x20 PUSH1 0x4 DUP3 ADD MSTORE PUSH1 0x6C PUSH1 0x24 DUP3 ADD MSTORE PUSH32 0x6F6C64537461746520617267756D656E742073686F756C642062652065717561 PUSH1 0x44 DUP3 ADD MSTORE PUSH32 0x6C20746F20746865206C6174657374206964656E746974792073746174652069 PUSH1 0x64 DUP3 ADD MSTORE PUSH32 0x6E20736D61727420636F6E7472616374207768656E2069734F6C645374617465 PUSH1 0x84 DUP3 ADD MSTORE PUSH32 0x47656E65736973203D3D20300000000000000000000000000000000000000000 PUSH1 0xA4 DUP3 ADD MSTORE PUSH1 0xC4 ADD PUSH2 0x354 JUMP JUMPDEST POP PUSH2 0xB72 JUMP JUMPDEST PUSH1 0x0 DUP8 DUP2 MSTORE PUSH1 0x66 PUSH1 0x20 MSTORE PUSH1 0x40 SWAP1 KECCAK256 SLOAD ISZERO PUSH2 0xA77 JUMPI PUSH1 0x40 MLOAD PUSH3 0x461BCD PUSH1 0xE5 SHL DUP2 MSTORE PUSH1 0x20 PUSH1 0x4 DUP3 ADD MSTORE PUSH1 0x54 PUSH1 0x24 DUP3 ADD MSTORE PUSH32 0x54686572652073686F756C64206265206E6F2073746174657320666F72206964 PUSH1 0x44 DUP3 ADD MSTORE PUSH32 0x656E7469747920696E20736D61727420636F6E7472616374207768656E206973 PUSH1 0x64 DUP3 ADD MSTORE PUSH32 0x4F6C64537461746547656E65736973203D3D2030000000000000000000000000 PUSH1 0x84 DUP3 ADD MSTORE PUSH1 0xA4 ADD PUSH2 0x354 JUMP JUMPDEST PUSH1 0x0 DUP7 DUP2 MSTORE PUSH1 0x67 PUSH1 0x20 MSTORE PUSH1 0x40 SWAP1 KECCAK256 PUSH1 0x3 ADD SLOAD ISZERO PUSH2 0xAD6 JUMPI PUSH1 0x40 MLOAD PUSH3 0x461BCD PUSH1 0xE5 SHL DUP2 MSTORE PUSH1 0x20 PUSH1 0x4 DUP3 ADD MSTORE PUSH1 0x19 PUSH1 0x24 DUP3 ADD MSTORE PUSH32 0x6F6C6453746174652073686F756C64206E6F7420657869737400000000000000 PUSH1 0x44 DUP3 ADD MSTORE PUSH1 0x64 ADD PUSH2 0x354 JUMP JUMPDEST PUSH1 0x0 DUP7 DUP2 MSTORE PUSH1 0x67 PUSH1 0x20 SWAP1 DUP2 MSTORE PUSH1 0x40 DUP1 DUP4 KECCAK256 PUSH1 0x3 ADD DUP11 SWAP1 SSTORE DUP10 DUP4 MSTORE PUSH1 0x66 DUP3 MSTORE DUP1 DUP4 KECCAK256 DUP2 MLOAD PUSH1 0x60 DUP2 ADD DUP4 MSTORE DUP5 DUP2 MSTORE DUP1 DUP5 ADD DUP6 DUP2 MSTORE SWAP3 DUP2 ADD DUP12 DUP2 MSTORE DUP3 SLOAD PUSH1 0x1 DUP2 DUP2 ADD DUP6 SSTORE SWAP4 DUP8 MSTORE SWAP5 SWAP1 SWAP6 KECCAK256 SWAP1 MLOAD PUSH1 0x2 SWAP1 SWAP5 MUL ADD DUP1 SLOAD SWAP3 MLOAD PUSH8 0xFFFFFFFFFFFFFFFF SWAP1 DUP2 AND PUSH1 0x1 PUSH1 0x40 SHL MUL PUSH32 0xFFFFFFFFFFFFFFFFFFFFFFFFFFFFFFFF00000000000000000000000000000000 SWAP1 SWAP5 AND SWAP5 AND SWAP4 SWAP1 SWAP4 OR SWAP2 SWAP1 SWAP2 OR DUP3 SSTORE SWAP2 MLOAD SWAP2 ADD SSTORE JUMPDEST PUSH1 0x0 DUP6 DUP2 MSTORE PUSH1 0x67 PUSH1 0x20 MSTORE PUSH1 0x40 SWAP1 KECCAK256 PUSH1 0x3 ADD SLOAD ISZERO PUSH2 0xBD1 JUMPI PUSH1 0x40 MLOAD PUSH3 0x461BCD PUSH1 0xE5 SHL DUP2 MSTORE PUSH1 0x20 PUSH1 0x4 DUP3 ADD MSTORE PUSH1 0x19 PUSH1 0x24 DUP3 ADD MSTORE PUSH32 0x6E657753746174652073686F756C64206E6F7420657869737400000000000000 PUSH1 0x44 DUP3 ADD MSTORE PUSH1 0x64 ADD PUSH2 0x354 JUMP JUMPDEST PUSH1 0x0 PUSH1 0x40 MLOAD DUP1 PUSH1 0x80 ADD PUSH1 0x40 MSTORE DUP1 DUP10 DUP2 MSTORE PUSH1 0x20 ADD DUP9 DUP2 MSTORE PUSH1 0x20 ADD DUP8 DUP2 MSTORE PUSH1 0x20 ADD DUP7 PUSH2 0xBFC JUMPI PUSH1 0x0 PUSH2 0xBFF JUMP JUMPDEST PUSH1 0x1 JUMPDEST PUSH1 0xFF AND SWAP1 MSTORE PUSH1 0x65 SLOAD PUSH1 0x40 MLOAD PUSH32 0x5FE8C13B00000000000000000000000000000000000000000000000000000000 DUP2 MSTORE SWAP2 SWAP3 POP PUSH1 0x1 PUSH1 0x1 PUSH1 0xA0 SHL SUB AND SWAP1 PUSH4 0x5FE8C13B SWAP1 PUSH2 0xC54 SWAP1 DUP8 SWAP1 DUP8 SWAP1 DUP8 SWAP1 DUP8 SWAP1 PUSH1 0x4 ADD PUSH2 0x1985 JUMP JUMPDEST PUSH1 0x20 PUSH1 0x40 MLOAD DUP1 DUP4 SUB DUP2 DUP7 DUP1 EXTCODESIZE ISZERO DUP1 ISZERO PUSH2 0xC6C JUMPI PUSH1 0x0 DUP1 REVERT JUMPDEST POP GAS STATICCALL ISZERO DUP1 ISZERO PUSH2 0xC80 JUMPI RETURNDATASIZE PUSH1 0x0 DUP1 RETURNDATACOPY RETURNDATASIZE PUSH1 0x0 REVERT JUMPDEST POP POP POP POP PUSH1 0x40 MLOAD RETURNDATASIZE PUSH1 0x1F NOT PUSH1 0x1F DUP3 ADD AND DUP3 ADD DUP1 PUSH1 0x40 MSTORE POP DUP2 ADD SWAP1 PUSH2 0xCA4 SWAP2 SWAP1 PUSH2 0x1800 JUMP JUMPDEST PUSH2 0xD16 JUMPI PUSH1 0x40 MLOAD PUSH3 0x461BCD PUSH1 0xE5 SHL DUP2 MSTORE PUSH1 0x20 PUSH1 0x4 DUP3 ADD MSTORE PUSH1 0x35 PUSH1 0x24 DUP3 ADD MSTORE PUSH32 0x7A65726F2D6B6E6F776C656467652070726F6F66206F66207374617465207472 PUSH1 0x44 DUP3 ADD MSTORE PUSH32 0x616E736974696F6E206973206E6F742076616C69640000000000000000000000 PUSH1 0x64 DUP3 ADD MSTORE PUSH1 0x84 ADD PUSH2 0x354 JUMP JUMPDEST PUSH1 0x66 PUSH1 0x0 DUP10 DUP2 MSTORE PUSH1 0x20 ADD SWAP1 DUP2 MSTORE PUSH1 0x20 ADD PUSH1 0x0 KECCAK256 PUSH1 0x40 MLOAD DUP1 PUSH1 0x60 ADD PUSH1 0x40 MSTORE DUP1 NUMBER PUSH8 0xFFFFFFFFFFFFFFFF AND DUP2 MSTORE PUSH1 0x20 ADD TIMESTAMP PUSH8 0xFFFFFFFFFFFFFFFF AND DUP2 MSTORE PUSH1 0x20 ADD DUP9 DUP2 MSTORE POP SWAP1 DUP1 PUSH1 0x1 DUP2 SLOAD ADD DUP1 DUP3 SSTORE DUP1 SWAP2 POP POP PUSH1 0x1 SWAP1 SUB SWAP1 PUSH1 0x0 MSTORE PUSH1 0x20 PUSH1 0x0 KECCAK256 SWAP1 PUSH1 0x2 MUL ADD PUSH1 0x0 SWAP1 SWAP2 SWAP1 SWAP2 SWAP1 SWAP2 POP PUSH1 0x0 DUP3 ADD MLOAD DUP2 PUSH1 0x0 ADD PUSH1 0x0 PUSH2 0x100 EXP DUP2 SLOAD DUP2 PUSH8 0xFFFFFFFFFFFFFFFF MUL NOT AND SWAP1 DUP4 PUSH8 0xFFFFFFFFFFFFFFFF AND MUL OR SWAP1 SSTORE POP PUSH1 0x20 DUP3 ADD MLOAD DUP2 PUSH1 0x0 ADD PUSH1 0x8 PUSH2 0x100 EXP DUP2 SLOAD DUP2 PUSH8 0xFFFFFFFFFFFFFFFF MUL NOT AND SWAP1 DUP4 PUSH8 0xFFFFFFFFFFFFFFFF AND MUL OR SWAP1 SSTORE POP PUSH1 0x40 DUP3 ADD MLOAD DUP2 PUSH1 0x1 ADD SSTORE POP POP PUSH1 0x40 MLOAD DUP1 PUSH1 0xC0 ADD PUSH1 0x40 MSTORE DUP1 PUSH1 0x0 DUP2 MSTORE PUSH1 0x20 ADD TIMESTAMP DUP2 MSTORE PUSH1 0x20 ADD PUSH1 0x0 PUSH8 0xFFFFFFFFFFFFFFFF AND DUP2 MSTORE PUSH1 0x20 ADD TIMESTAMP PUSH8 0xFFFFFFFFFFFFFFFF AND DUP2 MSTORE PUSH1 0x20 ADD DUP10 DUP2 MSTORE PUSH1 0x20 ADD PUSH1 0x0 DUP2 MSTORE POP PUSH1 0x67 PUSH1 0x0 DUP9 DUP2 MSTORE PUSH1 0x20 ADD SWAP1 DUP2 MSTORE PUSH1 0x20 ADD PUSH1 0x0 KECCAK256 PUSH1 0x0 DUP3 ADD MLOAD DUP2 PUSH1 0x0 ADD SSTORE PUSH1 0x20 DUP3 ADD MLOAD DUP2 PUSH1 0x1 ADD SSTORE PUSH1 0x40 DUP3 ADD MLOAD DUP2 PUSH1 0x2 ADD PUSH1 0x0 PUSH2 0x100 EXP DUP2 SLOAD DUP2 PUSH8 0xFFFFFFFFFFFFFFFF MUL NOT AND SWAP1 DUP4 PUSH8 0xFFFFFFFFFFFFFFFF AND MUL OR SWAP1 SSTORE POP PUSH1 0x60 DUP3 ADD MLOAD DUP2 PUSH1 0x2 ADD PUSH1 0x8 PUSH2 0x100 EXP DUP2 SLOAD DUP2 PUSH8 0xFFFFFFFFFFFFFFFF MUL NOT AND SWAP1 DUP4 PUSH8 0xFFFFFFFFFFFFFFFF AND MUL OR SWAP1 SSTORE POP PUSH1 0x80 DUP3 ADD MLOAD DUP2 PUSH1 0x3 ADD SSTORE PUSH1 0xA0 DUP3 ADD MLOAD DUP2 PUSH1 0x4 ADD SSTORE SWAP1 POP POP TIMESTAMP PUSH1 0x67 PUSH1 0x0 DUP10 DUP2 MSTORE PUSH1 0x20 ADD SWAP1 DUP2 MSTORE PUSH1 0x20 ADD PUSH1 0x0 KECCAK256 PUSH1 0x0 ADD DUP2 SWAP1 SSTORE POP NUMBER PUSH1 0x67 PUSH1 0x0 DUP10 DUP2 MSTORE PUSH1 0x20 ADD SWAP1 DUP2 MSTORE PUSH1 0x20 ADD PUSH1 0x0 KECCAK256 PUSH1 0x2 ADD PUSH1 0x0 PUSH2 0x100 EXP DUP2 SLOAD DUP2 PUSH8 0xFFFFFFFFFFFFFFFF MUL NOT AND SWAP1 DUP4 PUSH8 0xFFFFFFFFFFFFFFFF AND MUL OR SWAP1 SSTORE POP DUP6 PUSH1 0x67 PUSH1 0x0 DUP10 DUP2 MSTORE PUSH1 0x20 ADD SWAP1 DUP2 MSTORE PUSH1 0x20 ADD PUSH1 0x0 KECCAK256 PUSH1 0x4 ADD DUP2 SWAP1 SSTORE POP PUSH32 0x81C6F328B24014EF550C34A433275B52F3A8A0F32AA871ADEC069AB526A02390 DUP9 NUMBER TIMESTAMP DUP10 PUSH1 0x40 MLOAD PUSH2 0xF94 SWAP5 SWAP4 SWAP3 SWAP2 SWAP1 SWAP4 DUP5 MSTORE PUSH8 0xFFFFFFFFFFFFFFFF SWAP3 DUP4 AND PUSH1 0x20 DUP6 ADD MSTORE SWAP2 AND PUSH1 0x40 DUP4 ADD MSTORE PUSH1 0x60 DUP3 ADD MSTORE PUSH1 0x80 ADD SWAP1 JUMP JUMPDEST PUSH1 0x40 MLOAD DUP1 SWAP2 SUB SWAP1 LOG1 POP POP POP POP POP POP POP POP JUMP JUMPDEST PUSH1 0x0 DUP2 DUP2 MSTORE PUSH1 0x66 PUSH1 0x20 MSTORE PUSH1 0x40 DUP2 KECCAK256 SLOAD PUSH2 0xFC1 JUMPI POP PUSH1 0x0 SWAP2 SWAP1 POP JUMP JUMPDEST PUSH1 0x0 DUP3 DUP2 MSTORE PUSH1 0x66 PUSH1 0x20 MSTORE PUSH1 0x40 SWAP1 KECCAK256 DUP1 SLOAD PUSH2 0xFDD SWAP1 PUSH1 0x1 SWAP1 PUSH2 0x1A7A JUMP JUMPDEST DUP2 SLOAD DUP2 LT PUSH2 0xFED JUMPI PUSH2 0xFED PUSH2 0x1AA7 JUMP JUMPDEST SWAP1 PUSH1 0x0 MSTORE PUSH1 0x20 PUSH1 0x0 KECCAK256 SWAP1 PUSH1 0x2 MUL ADD PUSH1 0x1 ADD SLOAD SWAP1 POP SWAP2 SWAP1 POP JUMP JUMPDEST PUSH2 0x100E PUSH2 0x15E9 JUMP JUMPDEST PUSH1 0x65 DUP1 SLOAD PUSH20 0xFFFFFFFFFFFFFFFFFFFFFFFFFFFFFFFFFFFFFFFF NOT AND PUSH1 0x1 PUSH1 0x1 PUSH1 0xA0 SHL SUB SWAP3 SWAP1 SWAP3 AND SWAP2 SWAP1 SWAP2 OR SWAP1 SSTORE JUMP JUMPDEST PUSH2 0x1045 PUSH2 0x15E9 JUMP JUMPDEST PUSH2 0x104F PUSH1 0x0 PUSH2 0x1643 JUMP JUMPDEST JUMP JUMPDEST PUSH1 0x0 SLOAD PUSH2 0x100 SWAP1 DIV PUSH1 0xFF AND ISZERO DUP1 DUP1 ISZERO PUSH2 0x1071 JUMPI POP PUSH1 0x0 SLOAD PUSH1 0x1 PUSH1 0xFF SWAP1 SWAP2 AND LT JUMPDEST DUP1 PUSH2 0x108B JUMPI POP ADDRESS EXTCODESIZE ISZERO DUP1 ISZERO PUSH2 0x108B JUMPI POP PUSH1 0x0 SLOAD PUSH1 0xFF AND PUSH1 0x1 EQ JUMPDEST PUSH2 0x10FD JUMPI PUSH1 0x40 MLOAD PUSH3 0x461BCD PUSH1 0xE5 SHL DUP2 MSTORE PUSH1 0x20 PUSH1 0x4 DUP3 ADD MSTORE PUSH1 0x2E PUSH1 0x24 DUP3 ADD MSTORE PUSH32 0x496E697469616C697A61626C653A20636F6E747261637420697320616C726561 PUSH1 0x44 DUP3 ADD MSTORE PUSH32 0x647920696E697469616C697A6564000000000000000000000000000000000000 PUSH1 0x64 DUP3 ADD MSTORE PUSH1 0x84 ADD PUSH2 0x354 JUMP JUMPDEST PUSH1 0x0 DUP1 SLOAD PUSH1 0xFF NOT AND PUSH1 0x1 OR SWAP1 SSTORE DUP1 ISZERO PUSH2 0x1120 JUMPI PUSH1 0x0 DUP1 SLOAD PUSH2 0xFF00 NOT AND PUSH2 0x100 OR SWAP1 SSTORE JUMPDEST PUSH1 0x65 DUP1 SLOAD PUSH20 0xFFFFFFFFFFFFFFFFFFFFFFFFFFFFFFFFFFFFFFFF NOT AND PUSH1 0x1 PUSH1 0x1 PUSH1 0xA0 SHL SUB DUP5 AND OR SWAP1 SSTORE PUSH2 0x1150 PUSH2 0x16A2 JUMP JUMPDEST DUP1 ISZERO PUSH2 0x1196 JUMPI PUSH1 0x0 DUP1 SLOAD PUSH2 0xFF00 NOT AND SWAP1 SSTORE PUSH1 0x40 MLOAD PUSH1 0x1 DUP2 MSTORE PUSH32 0x7F26B83FF96E1F2B6A682F133852F6798A09C465DA95921460CEFB3847402498 SWAP1 PUSH1 0x20 ADD PUSH1 0x40 MLOAD DUP1 SWAP2 SUB SWAP1 LOG1 JUMPDEST POP POP JUMP JUMPDEST PUSH1 0x0 DUP2 DUP2 MSTORE PUSH1 0x66 PUSH1 0x20 MSTORE PUSH1 0x40 DUP2 KECCAK256 SLOAD DUP2 SWAP1 DUP2 SWAP1 PUSH2 0x11BF JUMPI POP PUSH1 0x0 SWAP2 POP DUP2 SWAP1 POP DUP1 PUSH2 0x123E JUMP JUMPDEST PUSH1 0x0 DUP5 DUP2 MSTORE PUSH1 0x66 PUSH1 0x20 MSTORE PUSH1 0x40 DUP2 KECCAK256 DUP1 SLOAD PUSH2 0x11DB SWAP1 PUSH1 0x1 SWAP1 PUSH2 0x1A7A JUMP JUMPDEST DUP2 SLOAD DUP2 LT PUSH2 0x11EB JUMPI PUSH2 0x11EB PUSH2 0x1AA7 JUMP JUMPDEST PUSH1 0x0 SWAP2 DUP3 MSTORE PUSH1 0x20 SWAP2 DUP3 SWAP1 KECCAK256 PUSH1 0x40 DUP1 MLOAD PUSH1 0x60 DUP2 ADD DUP3 MSTORE PUSH1 0x2 SWAP1 SWAP4 MUL SWAP1 SWAP2 ADD DUP1 SLOAD PUSH8 0xFFFFFFFFFFFFFFFF DUP1 DUP3 AND DUP1 DUP7 MSTORE PUSH1 0x1 PUSH1 0x40 SHL SWAP1 SWAP3 DIV AND SWAP5 DUP5 ADD DUP6 SWAP1 MSTORE PUSH1 0x1 SWAP1 SWAP2 ADD SLOAD SWAP3 SWAP1 SWAP2 ADD DUP3 SWAP1 MSTORE SWAP6 POP SWAP1 SWAP4 POP SWAP2 POP POP JUMPDEST SWAP2 SWAP4 SWAP1 SWAP3 POP JUMP JUMPDEST PUSH1 0x0 DUP1 PUSH1 0x0 NUMBER DUP5 PUSH8 0xFFFFFFFFFFFFFFFF AND LT PUSH2 0x12A3 JUMPI PUSH1 0x40 MLOAD PUSH3 0x461BCD PUSH1 0xE5 SHL DUP2 MSTORE PUSH1 0x20 PUSH1 0x4 DUP3 ADD MSTORE PUSH1 0x12 PUSH1 0x24 DUP3 ADD MSTORE PUSH32 0x6572724E6F467574757265416C6C6F7765640000000000000000000000000000 PUSH1 0x44 DUP3 ADD MSTORE PUSH1 0x64 ADD PUSH2 0x354 JUMP JUMPDEST PUSH1 0x0 DUP6 DUP2 MSTORE PUSH1 0x66 PUSH1 0x20 MSTORE PUSH1 0x40 SWAP1 KECCAK256 SLOAD PUSH2 0x12C4 JUMPI POP PUSH1 0x0 SWAP2 POP DUP2 SWAP1 POP DUP1 PUSH2 0x768 JUMP JUMPDEST PUSH1 0x0 DUP6 DUP2 MSTORE PUSH1 0x66 PUSH1 0x20 MSTORE PUSH1 0x40 DUP2 KECCAK256 DUP1 SLOAD PUSH2 0x12E0 SWAP1 PUSH1 0x1 SWAP1 PUSH2 0x1A7A JUMP JUMPDEST DUP2 SLOAD DUP2 LT PUSH2 0x12F0 JUMPI PUSH2 0x12F0 PUSH2 0x1AA7 JUMP JUMPDEST PUSH1 0x0 SWAP2 DUP3 MSTORE PUSH1 0x20 SWAP1 SWAP2 KECCAK256 PUSH1 0x2 SWAP1 SWAP2 MUL ADD SLOAD PUSH8 0xFFFFFFFFFFFFFFFF SWAP1 DUP2 AND SWAP2 POP DUP6 AND DUP2 LT ISZERO PUSH2 0x1334 JUMPI PUSH1 0x0 DUP7 DUP2 MSTORE PUSH1 0x66 PUSH1 0x20 MSTORE PUSH1 0x40 SWAP1 KECCAK256 DUP1 SLOAD PUSH2 0x3F5 SWAP1 PUSH1 0x1 SWAP1 PUSH2 0x1A7A JUMP JUMPDEST PUSH1 0x0 DUP7 DUP2 MSTORE PUSH1 0x66 PUSH1 0x20 MSTORE PUSH1 0x40 DUP2 KECCAK256 SLOAD DUP2 SWAP1 PUSH2 0x1351 SWAP1 PUSH1 0x1 SWAP1 PUSH2 0x1A7A JUMP JUMPDEST SWAP1 POP JUMPDEST DUP1 DUP3 GT PUSH2 0x759 JUMPI PUSH1 0x0 PUSH1 0x2 PUSH2 0x1369 DUP5 DUP5 PUSH2 0x1A40 JUMP JUMPDEST PUSH2 0x1373 SWAP2 SWAP1 PUSH2 0x1A58 JUMP JUMPDEST PUSH1 0x0 DUP11 DUP2 MSTORE PUSH1 0x66 PUSH1 0x20 MSTORE PUSH1 0x40 SWAP1 KECCAK256 DUP1 SLOAD SWAP2 SWAP3 POP PUSH8 0xFFFFFFFFFFFFFFFF DUP11 AND SWAP2 DUP4 SWAP1 DUP2 LT PUSH2 0x13A2 JUMPI PUSH2 0x13A2 PUSH2 0x1AA7 JUMP JUMPDEST PUSH1 0x0 SWAP2 DUP3 MSTORE PUSH1 0x20 SWAP1 SWAP2 KECCAK256 PUSH1 0x2 SWAP1 SWAP2 MUL ADD SLOAD PUSH8 0xFFFFFFFFFFFFFFFF AND EQ ISZERO PUSH2 0x13E3 JUMPI PUSH1 0x0 DUP10 DUP2 MSTORE PUSH1 0x66 PUSH1 0x20 MSTORE PUSH1 0x40 SWAP1 KECCAK256 DUP1 SLOAD DUP3 SWAP1 DUP2 LT PUSH2 0x576 JUMPI PUSH2 0x576 PUSH2 0x1AA7 JUMP JUMPDEST PUSH1 0x0 DUP10 DUP2 MSTORE PUSH1 0x66 PUSH1 0x20 MSTORE PUSH1 0x40 SWAP1 KECCAK256 DUP1 SLOAD DUP3 SWAP1 DUP2 LT PUSH2 0x1403 JUMPI PUSH2 0x1403 PUSH2 0x1AA7 JUMP JUMPDEST PUSH1 0x0 SWAP2 DUP3 MSTORE PUSH1 0x20 SWAP1 SWAP2 KECCAK256 PUSH1 0x2 SWAP1 SWAP2 MUL ADD SLOAD PUSH8 0xFFFFFFFFFFFFFFFF SWAP1 DUP2 AND SWAP1 DUP10 AND GT DUP1 ISZERO PUSH2 0x1476 JUMPI POP PUSH1 0x0 DUP10 DUP2 MSTORE PUSH1 0x66 PUSH1 0x20 MSTORE PUSH1 0x40 SWAP1 KECCAK256 PUSH2 0x1444 DUP3 PUSH1 0x1 PUSH2 0x1A40 JUMP JUMPDEST DUP2 SLOAD DUP2 LT PUSH2 0x1454 JUMPI PUSH2 0x1454 PUSH2 0x1AA7 JUMP JUMPDEST PUSH1 0x0 SWAP2 DUP3 MSTORE PUSH1 0x20 SWAP1 SWAP2 KECCAK256 PUSH1 0x2 SWAP1 SWAP2 MUL ADD SLOAD PUSH8 0xFFFFFFFFFFFFFFFF SWAP1 DUP2 AND SWAP1 DUP10 AND LT JUMPDEST ISZERO PUSH2 0x149B JUMPI PUSH1 0x0 DUP10 DUP2 MSTORE PUSH1 0x66 PUSH1 0x20 MSTORE PUSH1 0x40 SWAP1 KECCAK256 DUP1 SLOAD DUP3 SWAP1 DUP2 LT PUSH2 0x576 JUMPI PUSH2 0x576 PUSH2 0x1AA7 JUMP JUMPDEST PUSH1 0x0 DUP10 DUP2 MSTORE PUSH1 0x66 PUSH1 0x20 MSTORE PUSH1 0x40 SWAP1 KECCAK256 DUP1 SLOAD DUP3 SWAP1 DUP2 LT PUSH2 0x14BB JUMPI PUSH2 0x14BB PUSH2 0x1AA7 JUMP JUMPDEST PUSH1 0x0 SWAP2 DUP3 MSTORE PUSH1 0x20 SWAP1 SWAP2 KECCAK256 PUSH1 0x2 SWAP1 SWAP2 MUL ADD SLOAD PUSH8 0xFFFFFFFFFFFFFFFF SWAP1 DUP2 AND SWAP1 DUP10 AND GT ISZERO PUSH2 0x14F3 JUMPI PUSH2 0x14EC DUP2 PUSH1 0x1 PUSH2 0x1A40 JUMP JUMPDEST SWAP3 POP PUSH2 0x1501 JUMP JUMPDEST PUSH2 0x14FE PUSH1 0x1 DUP3 PUSH2 0x1A7A JUMP JUMPDEST SWAP2 POP JUMPDEST POP PUSH2 0x1354 JUMP JUMPDEST PUSH1 0x66 PUSH1 0x20 MSTORE DUP2 PUSH1 0x0 MSTORE PUSH1 0x40 PUSH1 0x0 KECCAK256 DUP2 DUP2 SLOAD DUP2 LT PUSH2 0x1523 JUMPI PUSH1 0x0 DUP1 REVERT JUMPDEST PUSH1 0x0 SWAP2 DUP3 MSTORE PUSH1 0x20 SWAP1 SWAP2 KECCAK256 PUSH1 0x2 SWAP1 SWAP2 MUL ADD DUP1 SLOAD PUSH1 0x1 SWAP1 SWAP2 ADD SLOAD PUSH8 0xFFFFFFFFFFFFFFFF DUP1 DUP4 AND SWAP5 POP PUSH1 0x1 PUSH1 0x40 SHL SWAP1 SWAP3 DIV SWAP1 SWAP2 AND SWAP2 POP DUP4 JUMP JUMPDEST PUSH2 0x1561 PUSH2 0x15E9 JUMP JUMPDEST PUSH1 0x1 PUSH1 0x1 PUSH1 0xA0 SHL SUB DUP2 AND PUSH2 0x15DD JUMPI PUSH1 0x40 MLOAD PUSH3 0x461BCD PUSH1 0xE5 SHL DUP2 MSTORE PUSH1 0x20 PUSH1 0x4 DUP3 ADD MSTORE PUSH1 0x26 PUSH1 0x24 DUP3 ADD MSTORE PUSH32 0x4F776E61626C653A206E6577206F776E657220697320746865207A65726F2061 PUSH1 0x44 DUP3 ADD MSTORE PUSH32 0x6464726573730000000000000000000000000000000000000000000000000000 PUSH1 0x64 DUP3 ADD MSTORE PUSH1 0x84 ADD PUSH2 0x354 JUMP JUMPDEST PUSH2 0x15E6 DUP2 PUSH2 0x1643 JUMP JUMPDEST POP JUMP JUMPDEST PUSH1 0x33 SLOAD PUSH1 0x1 PUSH1 0x1 PUSH1 0xA0 SHL SUB AND CALLER EQ PUSH2 0x104F JUMPI PUSH1 0x40 MLOAD PUSH3 0x461BCD PUSH1 0xE5 SHL DUP2 MSTORE PUSH1 0x20 PUSH1 0x4 DUP3 ADD DUP2 SWAP1 MSTORE PUSH1 0x24 DUP3 ADD MSTORE PUSH32 0x4F776E61626C653A2063616C6C6572206973206E6F7420746865206F776E6572 PUSH1 0x44 DUP3 ADD MSTORE PUSH1 0x64 ADD PUSH2 0x354 JUMP JUMPDEST PUSH1 0x33 DUP1 SLOAD PUSH1 0x1 PUSH1 0x1 PUSH1 0xA0 SHL SUB DUP4 DUP2 AND PUSH20 0xFFFFFFFFFFFFFFFFFFFFFFFFFFFFFFFFFFFFFFFF NOT DUP4 AND DUP2 OR SWAP1 SWAP4 SSTORE PUSH1 0x40 MLOAD SWAP2 AND SWAP2 SWAP1 DUP3 SWAP1 PUSH32 0x8BE0079C531659141344CD1FD0A4F28419497F9722A3DAAFE3B4186F6B6457E0 SWAP1 PUSH1 0x0 SWAP1 LOG3 POP POP JUMP JUMPDEST PUSH1 0x0 SLOAD PUSH2 0x100 SWAP1 DIV PUSH1 0xFF AND PUSH2 0x170D JUMPI PUSH1 0x40 MLOAD PUSH3 0x461BCD PUSH1 0xE5 SHL DUP2 MSTORE PUSH1 0x20 PUSH1 0x4 DUP3 ADD MSTORE PUSH1 0x2B PUSH1 0x24 DUP3 ADD MSTORE PUSH32 0x496E697469616C697A61626C653A20636F6E7472616374206973206E6F742069 PUSH1 0x44 DUP3 ADD MSTORE PUSH11 0x6E697469616C697A696E67 PUSH1 0xA8 SHL PUSH1 0x64 DUP3 ADD MSTORE PUSH1 0x84 ADD PUSH2 0x354 JUMP JUMPDEST PUSH2 0x104F PUSH1 0x0 SLOAD PUSH2 0x100 SWAP1 DIV PUSH1 0xFF AND PUSH2 0x177B JUMPI PUSH1 0x40 MLOAD PUSH3 0x461BCD PUSH1 0xE5 SHL DUP2 MSTORE PUSH1 0x20 PUSH1 0x4 DUP3 ADD MSTORE PUSH1 0x2B PUSH1 0x24 DUP3 ADD MSTORE PUSH32 0x496E697469616C697A61626C653A20636F6E7472616374206973206E6F742069 PUSH1 0x44 DUP3 ADD MSTORE PUSH11 0x6E697469616C697A696E67 PUSH1 0xA8 SHL PUSH1 0x64 DUP3 ADD MSTORE PUSH1 0x84 ADD PUSH2 0x354 JUMP JUMPDEST PUSH2 0x104F CALLER PUSH2 0x1643 JUMP JUMPDEST PUSH1 0x0 DUP3 PUSH1 0x1F DUP4 ADD SLT PUSH2 0x1795 JUMPI PUSH1 0x0 DUP1 REVERT JUMPDEST PUSH2 0x179D PUSH2 0x1A09 JUMP JUMPDEST DUP1 DUP4 DUP6 PUSH1 0x40 DUP7 ADD GT ISZERO PUSH2 0x17AF JUMPI PUSH1 0x0 DUP1 REVERT JUMPDEST PUSH1 0x0 JUMPDEST PUSH1 0x2 DUP2 LT ISZERO PUSH2 0x17D1 JUMPI DUP2 CALLDATALOAD DUP5 MSTORE PUSH1 0x20 SWAP4 DUP5 ADD SWAP4 SWAP1 SWAP2 ADD SWAP1 PUSH1 0x1 ADD PUSH2 0x17B2 JUMP JUMPDEST POP SWAP1 SWAP6 SWAP5 POP POP POP POP POP JUMP JUMPDEST PUSH1 0x0 PUSH1 0x20 DUP3 DUP5 SUB SLT ISZERO PUSH2 0x17EE JUMPI PUSH1 0x0 DUP1 REVERT JUMPDEST DUP2 CALLDATALOAD PUSH2 0x17F9 DUP2 PUSH2 0x1ABD JUMP JUMPDEST SWAP4 SWAP3 POP POP POP JUMP JUMPDEST PUSH1 0x0 PUSH1 0x20 DUP3 DUP5 SUB SLT ISZERO PUSH2 0x1812 JUMPI PUSH1 0x0 DUP1 REVERT JUMPDEST DUP2 MLOAD PUSH2 0x17F9 DUP2 PUSH2 0x1AD2 JUMP JUMPDEST PUSH1 0x0 PUSH1 0x20 DUP3 DUP5 SUB SLT ISZERO PUSH2 0x182F JUMPI PUSH1 0x0 DUP1 REVERT JUMPDEST POP CALLDATALOAD SWAP2 SWAP1 POP JUMP JUMPDEST PUSH1 0x0 DUP1 PUSH1 0x40 DUP4 DUP6 SUB SLT ISZERO PUSH2 0x1849 JUMPI PUSH1 0x0 DUP1 REVERT JUMPDEST POP POP DUP1 CALLDATALOAD SWAP3 PUSH1 0x20 SWAP1 SWAP2 ADD CALLDATALOAD SWAP2 POP JUMP JUMPDEST PUSH1 0x0 DUP1 PUSH1 0x0 DUP1 PUSH1 0x0 DUP1 PUSH1 0x0 PUSH2 0x180 DUP9 DUP11 SUB SLT ISZERO PUSH2 0x1874 JUMPI PUSH1 0x0 DUP1 REVERT JUMPDEST DUP8 CALLDATALOAD SWAP7 POP PUSH1 0x20 DUP9 ADD CALLDATALOAD SWAP6 POP PUSH1 0x40 DUP1 DUP10 ADD CALLDATALOAD SWAP6 POP PUSH1 0x60 DUP10 ADD CALLDATALOAD PUSH2 0x1895 DUP2 PUSH2 0x1AD2 JUMP JUMPDEST SWAP5 POP PUSH2 0x18A4 DUP11 PUSH1 0x80 DUP12 ADD PUSH2 0x1784 JUMP JUMPDEST SWAP4 POP DUP10 PUSH1 0xDF DUP11 ADD SLT PUSH2 0x18B5 JUMPI PUSH1 0x0 DUP1 REVERT JUMPDEST PUSH2 0x18BD PUSH2 0x1A09 JUMP JUMPDEST DUP1 PUSH1 0xC0 DUP12 ADD PUSH2 0x140 DUP13 ADD DUP14 DUP2 GT ISZERO PUSH2 0x18D4 JUMPI PUSH1 0x0 DUP1 REVERT JUMPDEST PUSH1 0x0 JUMPDEST PUSH1 0x2 DUP2 LT ISZERO PUSH2 0x18FE JUMPI PUSH2 0x18EA DUP16 DUP5 PUSH2 0x1784 JUMP JUMPDEST DUP6 MSTORE PUSH1 0x20 SWAP1 SWAP5 ADD SWAP4 SWAP2 DUP6 ADD SWAP2 PUSH1 0x1 ADD PUSH2 0x18D7 JUMP JUMPDEST POP DUP3 SWAP7 POP PUSH2 0x190C DUP15 DUP3 PUSH2 0x1784 JUMP JUMPDEST SWAP6 POP POP POP POP POP POP SWAP3 SWAP6 SWAP9 SWAP2 SWAP5 SWAP8 POP SWAP3 SWAP6 POP JUMP JUMPDEST PUSH1 0x0 DUP1 PUSH1 0x40 DUP4 DUP6 SUB SLT ISZERO PUSH2 0x1932 JUMPI PUSH1 0x0 DUP1 REVERT JUMPDEST DUP3 CALLDATALOAD SWAP2 POP PUSH1 0x20 DUP4 ADD CALLDATALOAD PUSH8 0xFFFFFFFFFFFFFFFF DUP2 AND DUP2 EQ PUSH2 0x1951 JUMPI PUSH1 0x0 DUP1 REVERT JUMPDEST DUP1 SWAP2 POP POP SWAP3 POP SWAP3 SWAP1 POP JUMP JUMPDEST DUP1 PUSH1 0x0 JUMPDEST PUSH1 0x2 DUP2 LT ISZERO PUSH2 0x197F JUMPI DUP2 MLOAD DUP5 MSTORE PUSH1 0x20 SWAP4 DUP5 ADD SWAP4 SWAP1 SWAP2 ADD SWAP1 PUSH1 0x1 ADD PUSH2 0x1960 JUMP JUMPDEST POP POP POP POP JUMP JUMPDEST PUSH2 0x180 DUP2 ADD PUSH2 0x1994 DUP3 DUP8 PUSH2 0x195C JUMP JUMPDEST PUSH1 0x40 DUP1 DUP4 ADD DUP7 PUSH1 0x0 JUMPDEST PUSH1 0x2 DUP2 LT ISZERO PUSH2 0x19C4 JUMPI PUSH2 0x19B1 DUP4 DUP4 MLOAD PUSH2 0x195C JUMP JUMPDEST SWAP2 DUP4 ADD SWAP2 PUSH1 0x20 SWAP2 SWAP1 SWAP2 ADD SWAP1 PUSH1 0x1 ADD PUSH2 0x199D JUMP JUMPDEST POP POP POP POP PUSH2 0x19D5 PUSH1 0xC0 DUP4 ADD DUP6 PUSH2 0x195C JUMP JUMPDEST PUSH2 0x100 DUP3 ADD DUP4 PUSH1 0x0 JUMPDEST PUSH1 0x4 DUP2 LT ISZERO PUSH2 0x19FD JUMPI DUP2 MLOAD DUP4 MSTORE PUSH1 0x20 SWAP3 DUP4 ADD SWAP3 SWAP1 SWAP2 ADD SWAP1 PUSH1 0x1 ADD PUSH2 0x19DE JUMP JUMPDEST POP POP POP SWAP6 SWAP5 POP POP POP POP POP JUMP JUMPDEST PUSH1 0x40 DUP1 MLOAD SWAP1 DUP2 ADD PUSH8 0xFFFFFFFFFFFFFFFF DUP2 GT DUP3 DUP3 LT OR ISZERO PUSH2 0x1A3A JUMPI PUSH4 0x4E487B71 PUSH1 0xE0 SHL PUSH1 0x0 MSTORE PUSH1 0x41 PUSH1 0x4 MSTORE PUSH1 0x24 PUSH1 0x0 REVERT JUMPDEST PUSH1 0x40 MSTORE SWAP1 JUMP JUMPDEST PUSH1 0x0 DUP3 NOT DUP3 GT ISZERO PUSH2 0x1A53 JUMPI PUSH2 0x1A53 PUSH2 0x1A91 JUMP JUMPDEST POP ADD SWAP1 JUMP JUMPDEST PUSH1 0x0 DUP3 PUSH2 0x1A75 JUMPI PUSH4 0x4E487B71 PUSH1 0xE0 SHL PUSH1 0x0 MSTORE PUSH1 0x12 PUSH1 0x4 MSTORE PUSH1 0x24 PUSH1 0x0 REVERT JUMPDEST POP DIV SWAP1 JUMP JUMPDEST PUSH1 0x0 DUP3 DUP3 LT ISZERO PUSH2 0x1A8C JUMPI PUSH2 0x1A8C PUSH2 0x1A91 JUMP JUMPDEST POP SUB SWAP1 JUMP JUMPDEST PUSH4 0x4E487B71 PUSH1 0xE0 SHL PUSH1 0x0 MSTORE PUSH1 0x11 PUSH1 0x4 MSTORE PUSH1 0x24 PUSH1 0x0 REVERT JUMPDEST PUSH4 0x4E487B71 PUSH1 0xE0 SHL PUSH1 0x0 MSTORE PUSH1 0x32 PUSH1 0x4 MSTORE PUSH1 0x24 PUSH1 0x0 REVERT JUMPDEST PUSH1 0x1 PUSH1 0x1 PUSH1 0xA0 SHL SUB DUP2 AND DUP2 EQ PUSH2 0x15E6 JUMPI PUSH1 0x0 DUP1 REVERT JUMPDEST DUP1 ISZERO ISZERO DUP2 EQ PUSH2 0x15E6 JUMPI PUSH1 0x0 DUP1 REVERT INVALID LOG2 PUSH5 0x6970667358 0x22 SLT KECCAK256 PUSH5 0x8A08FE24D3 0x4F SAR 0xE8 LOG4 0xE5 0xB9 0xC6 PUSH27 0x23A7229FDC90E89F90B8C31CCD7C587F052064736F6C6343000807 STOP CALLER "},"methodIdentifiers":{"getState(uint256)":"44c9af28","getStateDataByBlock(uint256,uint64)":"d8dcd971","getStateDataById(uint256)":"c8d1e53e","getStateDataByTime(uint256,uint64)":"0281bec2","getTransitionInfo(uint256)":"bb795715","identities(uint256,uint256)":"e20490b5","initialize(address)":"c4d66de8","owner()":"8da5cb5b","renounceOwnership()":"715018a6","setVerifier(address)":"5437988d","transferOwnership(address)":"f2fde38b","transitState(uint256,uint256,uint256,bool,uint256[2],uint256[2][2],uint256[2])":"28f88a65","transitions(uint256)":"683ace65","verifier()":"2b7ac3f3"}},"storageLayout":{"storage":[{"astId":138,"contract":"contracts/State.sol:State","label":"_initialized","offset":0,"slot":"0","type":"t_uint8"},{"astId":141,"contract":"contracts/State.sol:State","label":"_initializing","offset":1,"slot":"0","type":"t_bool"},{"astId":625,"contract":"contracts/State.sol:State","label":"__gap","offset":0,"slot":"1","type":"t_array(t_uint256)50_storage"},{"astId":10,"contract":"contracts/State.sol:State","label":"_owner","offset":0,"slot":"51","type":"t_address"},{"astId":130,"contract":"contracts/State.sol:State","label":"__gap","offset":0,"slot":"52","type":"t_array(t_uint256)49_storage"},{"astId":657,"contract":"contracts/State.sol:State","label":"verifier","offset":0,"slot":"101","type":"t_contract(IStateVerifier)1579"},{"astId":664,"contract":"contracts/State.sol:State","label":"identities","offset":0,"slot":"102","type":"t_mapping(t_uint256,t_array(t_struct(IDState)640_storage)dyn_storage)"},{"astId":670,"contract":"contracts/State.sol:State","label":"transitions","offset":0,"slot":"103","type":"t_mapping(t_uint256,t_struct(transitionInfo)653_storage)"}],"types":{"t_address":{"encoding":"inplace","label":"address","numberOfBytes":"20"},"t_array(t_struct(IDState)640_storage)dyn_storage":{"base":"t_struct(IDState)640_storage","encoding":"dynamic_array","label":"struct State.IDState[]","numberOfBytes":"32"},"t_array(t_uint256)49_storage":{"base":"t_uint256","encoding":"inplace","label":"uint256[49]","numberOfBytes":"1568"},"t_array(t_uint256)50_storage":{"base":"t_uint256","encoding":"inplace","label":"uint256[50]","numberOfBytes":"1600"},"t_bool":{"encoding":"inplace","label":"bool","numberOfBytes":"1"},"t_contract(IStateVerifier)1579":{"encoding":"inplace","label":"contract IStateVerifier","numberOfBytes":"20"},"t_mapping(t_uint256,t_array(t_struct(IDState)640_storage)dyn_storage)":{"encoding":"mapping","key":"t_uint256","label":"mapping(uint256 => struct State.IDState[])","numberOfBytes":"32","value":"t_array(t_struct(IDState)640_storage)dyn_storage"},"t_mapping(t_uint256,t_struct(transitionInfo)653_storage)":{"encoding":"mapping","key":"t_uint256","label":"mapping(uint256 => struct State.transitionInfo)","numberOfBytes":"32","value":"t_struct(transitionInfo)653_storage"},"t_struct(IDState)640_storage":{"encoding":"inplace","label":"struct State.IDState","members":[{"astId":635,"contract":"contracts/State.sol:State","label":"BlockN","offset":0,"slot":"0","type":"t_uint64"},{"astId":637,"contract":"contracts/State.sol:State","label":"BlockTimeStamp","offset":8,"slot":"0","type":"t_uint64"},{"astId":639,"contract":"contracts/State.sol:State","label":"State","offset":0,"slot":"1","type":"t_uint256"}],"numberOfBytes":"64"},"t_struct(transitionInfo)653_storage":{"encoding":"inplace","label":"struct State.transitionInfo","members":[{"astId":642,"contract":"contracts/State.sol:State","label":"replaceAtTimestamp","offset":0,"slot":"0","type":"t_uint256"},{"astId":644,"contract":"contracts/State.sol:State","label":"createAtTimestamp","offset":0,"slot":"1","type":"t_uint256"},{"astId":646,"contract":"contracts/State.sol:State","label":"replacedAtBlock","offset":0,"slot":"2","type":"t_uint64"},{"astId":648,"contract":"contracts/State.sol:State","label":"createdAtBlock","offset":8,"slot":"2","type":"t_uint64"},{"astId":650,"contract":"contracts/State.sol:State","label":"id","offset":0,"slot":"3","type":"t_uint256"},{"astId":652,"contract":"contracts/State.sol:State","label":"replaceBy","offset":0,"slot":"4","type":"t_uint256"}],"numberOfBytes":"160"},"t_uint256":{"encoding":"inplace","label":"uint256","numberOfBytes":"32"},"t_uint64":{"encoding":"inplace","label":"uint64","numberOfBytes":"8"},"t_uint8":{"encoding":"inplace","label":"uint8","numberOfBytes":"1"}}}}}}