{"contracts/verifiers/QueryMTPVerifier.sol":{"QueryMTPVerifier":{"abi":[{"inputs":[{"internalType":"uint256[2]","name":"a","type":"uint256[2]"},{"internalType":"uint256[2][2]","name":"b","type":"uint256[2][2]"},{"internalType":"uint256[2]","name":"c","type":"uint256[2]"},{"internalType":"uint256[9]","name":"input","type":"uint256[9]"}],"name":"verifyProof","outputs":[{"internalType":"bool","name":"r","type":"bool"}],"stateMutability":"view","type":"function"}],"evm":{"bytecode":{"linkReferences":{},"object":"608060405234801561001057600080fd5b5061158b806100206000396000f3fe608060405234801561001057600080fd5b506004361061002b5760003560e01c8063c542c93b14610030575b600080fd5b61004361003e36600461132e565b610057565b604051901515815260200160405180910390f35b600061006161119c565b60408051808201825287518152602080890151818301529083528151608081018352875151818401908152885183015160608301528152825180840184528883018051518252518301518184015281830152838201528151808301835286518152868201518183015283830152815160098082526101408201909352600092909182016101208036833701905050905060005b60098110156101435784816009811061010f5761010f611529565b602002015182828151811061012657610126611529565b60209081029190910101528061013b816114d6565b9150506100f4565b5061014e818361016c565b61015d57600192505050610164565b6000925050505b949350505050565b60007f30644e72e131a029b85045b68181585d2833e84879b9709143e1f593f00000018161019861036e565b9050806080015151855160016101ae9190611488565b146102005760405162461bcd60e51b815260206004820152601260248201527f76657269666965722d6261642d696e707574000000000000000000000000000060448201526064015b60405180910390fd5b604080518082019091526000808252602082018190525b86518110156102f1578387828151811061023357610233611529565b6020026020010151106102885760405162461bcd60e51b815260206004820152601f60248201527f76657269666965722d6774652d736e61726b2d7363616c61722d6669656c640060448201526064016101f7565b6102dd826102d885608001518460016102a19190611488565b815181106102b1576102b1611529565b60200260200101518a85815181106102cb576102cb611529565b6020026020010151610ac2565b610b69565b9150806102e9816114d6565b915050610217565b5061031a81836080015160008151811061030d5761030d611529565b6020026020010151610b69565b905061035061032c8660000151610c0c565b8660200151846000015185602001518587604001518b604001518960600151610cab565b6103605760019350505050610368565b600093505050505b92915050565b6103766111ed565b6040805180820182527f0b5dcd20b2c877922f1dc6b9ab7612a488a4960cf6a50d634ce5edd3b4aa752c81527f169014d5471334ecce07b840a4c8805ff5f56f53c9db7df42302d095eb80e8926020808301919091529083528151608080820184527f1df093d824dd1701460f1052df89350d338b2410321b80bff70ac2e82fa82ea88285019081527f0760439e8ad5d8cc95834ec7f5b24c4ef0751ee6a2bf19ff47d20ded514448a8606080850191909152908352845180860186527f2537195b41b650638f1a3f1321794d0b3f8a5262d125a230fd0c8d207e7dec1981527f23956c43a3927d35d6ae322bcb65bddab490acd4387bc708ae55d583a96287f0818601528385015285840192909252835180820185527f198e9393920d483a7260bfb731fb5d25f1aa493335a9e71297e485b7aef312c28186019081527f1800deef121f1e76426a00665e5c4479674322d4f75edadd46debd5cd992f6ed828501528152845180860186527f090689d0585ff075ec9e99ad690c3395bc4b313370b38ef355acdadcd122975b81527f12c85ea5db8c6deb4aab71808dcb408fe3d1e7690c43d37b4ce6cc0166fa7daa818601528185015285850152835190810184527f1bdb443ce61ebcf93daed4215a57e1cec90ca64973023e31197a112e8cee72f68185019081527f117e26c4235f42625b3404f2973059814ff260dba7176d7aae910f493a8e1fb5828401528152835180850185527f196e247a12f580e36894f256f0c122393489b4c213b3e913250feee806ca45ff81527f2fedff4e4bbcbf9f1c56e28a060d50eef5f54e2aab897f6b465acd2ed005ae918185015281840152908401528151600a8082526101608201909352919082015b60408051808201909152600080825260208201528152602001906001900390816105f257505060808201908152604080518082019091527f170601b748ae8175b7b7091bb8a4bde8ce02518b8c2fa81960a75c8c5b1576d081527f08ad977114581e71332fcbde308d5d51450c4bf5c53187afe45681b4a612c12060208201529051805160009061068557610685611529565b602002602001018190525060405180604001604052807f19d4c28801427d061f5e567a441aa8ba21685f0a3842439733620e1d46b1a7fc81526020017f1cb038a19001d28b6ad7e559e0e074dc34004f693a8c4d4566383e2a080c9c3f81525081608001516001815181106106fc576106fc611529565b602002602001018190525060405180604001604052807f29b64a4f254fc477bfbf81c7dd2ccac03cbb1b1731c94d098bbf2c94605f3bf481526020017f227591cc7a098aa47d62160316b4040b0d7f20c3f463b5c7f27caec31600ddc8815250816080015160028151811061077357610773611529565b602002602001018190525060405180604001604052807f289ba0c64fbabed2f67958052004c03acb11e18421b0de630fef3ea3c4fb977781526020017f21d36891465c169ddf2d622f23d9fc580268553a6aa9219054ed828e576cf4aa81525081608001516003815181106107ea576107ea611529565b602002602001018190525060405180604001604052807f220551a435a08e795f5d0cae30d73053a038fbfebd973ff76c4dc660bd87b4da81526020017f2cca9899d62db3db987cd6587cbc93250412bb7ef16904bbd325824a57b867e7815250816080015160048151811061086157610861611529565b602002602001018190525060405180604001604052807f156673867371ab3482f83bd6230e09c721224bceb803dcf84a76753bd098f19581526020017f0fbf9328aa10be601e403b4f3b3b8ab86409ddd26076fbd70cfede1ad28be3c481525081608001516005815181106108d8576108d8611529565b602002602001018190525060405180604001604052807f104b97b6edf888296d93ac2d7318fb212b8a037a76515301a1aa2c413bf4e54c81526020017f0938474fff7169eae21ae1fadc6c9847a549bd16b4ddba4cb77e773bb1487c96815250816080015160068151811061094f5761094f611529565b602002602001018190525060405180604001604052807f247b8505da9407bb290a10b26e0bb5a69679e5de39a70f8a8665546d239c4dab81526020017f2513a27ec5de6e92546610957f20aa2c17b55adc531e3958c7b1d6ef7eb2c15681525081608001516007815181106109c6576109c6611529565b602002602001018190525060405180604001604052807f304a58da8459613dea3e3a278a3f0efea918022eb816db0cd82c2dce87fef4eb81526020017f1bb027b62ea536480fc057480ce52a91d4b6015e2316390e30efcd10f84a09d98152508160800151600881518110610a3d57610a3d611529565b602002602001018190525060405180604001604052807f1f368cf3c4227dead46d19b22b7a77171966e8f10264abc0961f28b9e57264f281526020017f0e5c84d54ccc5552fb2175991d16cc169cefb453770b9506eaa193b743f303ef8152508160800151600981518110610ab457610ab4611529565b602002602001018190525090565b6040805180820190915260008082526020820152610ade61123e565b835181526020808501519082015260408101839052600060608360808460076107d05a03fa9050808015610b1157610b13565bfe5b5080610b615760405162461bcd60e51b815260206004820152601260248201527f70616972696e672d6d756c2d6661696c6564000000000000000000000000000060448201526064016101f7565b505092915050565b6040805180820190915260008082526020820152610b8561125c565b8351815260208085015181830152835160408301528301516060808301919091526000908360c08460066107d05a03fa9050808015610b11575080610b615760405162461bcd60e51b815260206004820152601260248201527f70616972696e672d6164642d6661696c6564000000000000000000000000000060448201526064016101f7565b604080518082019091526000808252602082015281517f30644e72e131a029b85045b68181585d97816a916871ca8d3c208c16d87cfd4790158015610c5357506020830151155b15610c735750506040805180820190915260008082526020820152919050565b604051806040016040528084600001518152602001828560200151610c9891906114f1565b610ca290846114bf565b90529392505050565b60408051600480825260a08201909252600091829190816020015b6040805180820190915260008082526020820152815260200190600190039081610cc657505060408051600480825260a0820190925291925060009190602082015b610d1061127a565b815260200190600190039081610d085790505090508a82600081518110610d3957610d39611529565b60200260200101819052508882600181518110610d5857610d58611529565b60200260200101819052508682600281518110610d7757610d77611529565b60200260200101819052508482600381518110610d9657610d96611529565b60200260200101819052508981600081518110610db557610db5611529565b60200260200101819052508781600181518110610dd457610dd4611529565b60200260200101819052508581600281518110610df357610df3611529565b60200260200101819052508381600381518110610e1257610e12611529565b6020026020010181905250610e278282610e36565b9b9a5050505050505050505050565b60008151835114610e895760405162461bcd60e51b815260206004820152601660248201527f70616972696e672d6c656e677468732d6661696c65640000000000000000000060448201526064016101f7565b82516000610e988260066114a0565b905060008167ffffffffffffffff811115610eb557610eb561153f565b604051908082528060200260200182016040528015610ede578160200160208202803683370190505b50905060005b8381101561111957868181518110610efe57610efe611529565b60200260200101516000015182826006610f1891906114a0565b610f23906000611488565b81518110610f3357610f33611529565b602002602001018181525050868181518110610f5157610f51611529565b60200260200101516020015182826006610f6b91906114a0565b610f76906001611488565b81518110610f8657610f86611529565b602002602001018181525050858181518110610fa457610fa4611529565b6020908102919091010151515182610fbd8360066114a0565b610fc8906002611488565b81518110610fd857610fd8611529565b602002602001018181525050858181518110610ff657610ff6611529565b602090810291909101810151510151826110118360066114a0565b61101c906003611488565b8151811061102c5761102c611529565b60200260200101818152505085818151811061104a5761104a611529565b60200260200101516020015160006002811061106857611068611529565b6020020151826110798360066114a0565b611084906004611488565b8151811061109457611094611529565b6020026020010181815250508581815181106110b2576110b2611529565b6020026020010151602001516001600281106110d0576110d0611529565b6020020151826110e18360066114a0565b6110ec906005611488565b815181106110fc576110fc611529565b602090810291909101015280611111816114d6565b915050610ee4565b5061112261129a565b6000602082602086026020860160086107d05a03fa9050808015610b1157508061118e5760405162461bcd60e51b815260206004820152601560248201527f70616972696e672d6f70636f64652d6661696c6564000000000000000000000060448201526064016101f7565b505115159695505050505050565b6040805160a0810190915260006060820181815260808301919091528152602081016111c661127a565b81526020016111e8604051806040016040528060008152602001600081525090565b905290565b6040805160e08101909152600060a0820181815260c083019190915281526020810161121761127a565b815260200161122461127a565b815260200161123161127a565b8152602001606081525090565b60405180606001604052806003906020820280368337509192915050565b60405180608001604052806004906020820280368337509192915050565b604051806040016040528061128d6112b8565b81526020016111e86112b8565b60405180602001604052806001906020820280368337509192915050565b60405180604001604052806002906020820280368337509192915050565b600082601f8301126112e757600080fd5b6112ef61141f565b80838560408601111561130157600080fd5b60005b6002811015611323578135845260209384019390910190600101611304565b509095945050505050565b60008060008061022080868803121561134657600080fd5b61135087876112d6565b9450604087605f88011261136357600080fd5b61136b61141f565b8082890160c08a018b81111561138057600080fd5b60005b60028110156113aa576113968d846112d6565b855260209094019391850191600101611383565b508298506113b88c826112d6565b975050505050508661011f8701126113cf57600080fd5b6113d7611456565b80610100880189848a0111156113ec57600080fd5b600093505b6009841015611411578035835260019390930192602092830192016113f1565b509598949750929550505050565b6040805190810167ffffffffffffffff8111828210171561145057634e487b7160e01b600052604160045260246000fd5b60405290565b604051610120810167ffffffffffffffff8111828210171561145057634e487b7160e01b600052604160045260246000fd5b6000821982111561149b5761149b611513565b500190565b60008160001904831182151516156114ba576114ba611513565b500290565b6000828210156114d1576114d1611513565b500390565b60006000198214156114ea576114ea611513565b5060010190565b60008261150e57634e487b7160e01b600052601260045260246000fd5b500690565b634e487b7160e01b600052601160045260246000fd5b634e487b7160e01b600052603260045260246000fd5b634e487b7160e01b600052604160045260246000fdfea26469706673582212208b3091f22957f99973d8320774c7021667b2bef64ea76036f6d53f91a2a0cb1164736f6c63430008070033","opcodes":"PUSH1 0x80 PUSH1 0x40 MSTORE CALLVALUE DUP1 ISZERO PUSH2 0x10 JUMPI PUSH1 0x0 DUP1 REVERT JUMPDEST POP PUSH2 0x158B DUP1 PUSH2 0x20 PUSH1 0x0 CODECOPY PUSH1 0x0 RETURN INVALID PUSH1 0x80 PUSH1 0x40 MSTORE CALLVALUE DUP1 ISZERO PUSH2 0x10 JUMPI PUSH1 0x0 DUP1 REVERT JUMPDEST POP PUSH1 0x4 CALLDATASIZE LT PUSH2 0x2B JUMPI PUSH1 0x0 CALLDATALOAD PUSH1 0xE0 SHR DUP1 PUSH4 0xC542C93B EQ PUSH2 0x30 JUMPI JUMPDEST PUSH1 0x0 DUP1 REVERT JUMPDEST PUSH2 0x43 PUSH2 0x3E CALLDATASIZE PUSH1 0x4 PUSH2 0x132E JUMP JUMPDEST PUSH2 0x57 JUMP JUMPDEST PUSH1 0x40 MLOAD SWAP1 ISZERO ISZERO DUP2 MSTORE PUSH1 0x20 ADD PUSH1 0x40 MLOAD DUP1 SWAP2 SUB SWAP1 RETURN JUMPDEST PUSH1 0x0 PUSH2 0x61 PUSH2 0x119C JUMP JUMPDEST PUSH1 0x40 DUP1 MLOAD DUP1 DUP3 ADD DUP3 MSTORE DUP8 MLOAD DUP2 MSTORE PUSH1 0x20 DUP1 DUP10 ADD MLOAD DUP2 DUP4 ADD MSTORE SWAP1 DUP4 MSTORE DUP2 MLOAD PUSH1 0x80 DUP2 ADD DUP4 MSTORE DUP8 MLOAD MLOAD DUP2 DUP5 ADD SWAP1 DUP2 MSTORE DUP9 MLOAD DUP4 ADD MLOAD PUSH1 0x60 DUP4 ADD MSTORE DUP2 MSTORE DUP3 MLOAD DUP1 DUP5 ADD DUP5 MSTORE DUP9 DUP4 ADD DUP1 MLOAD MLOAD DUP3 MSTORE MLOAD DUP4 ADD MLOAD DUP2 DUP5 ADD MSTORE DUP2 DUP4 ADD MSTORE DUP4 DUP3 ADD MSTORE DUP2 MLOAD DUP1 DUP4 ADD DUP4 MSTORE DUP7 MLOAD DUP2 MSTORE DUP7 DUP3 ADD MLOAD DUP2 DUP4 ADD MSTORE DUP4 DUP4 ADD MSTORE DUP2 MLOAD PUSH1 0x9 DUP1 DUP3 MSTORE PUSH2 0x140 DUP3 ADD SWAP1 SWAP4 MSTORE PUSH1 0x0 SWAP3 SWAP1 SWAP2 DUP3 ADD PUSH2 0x120 DUP1 CALLDATASIZE DUP4 CALLDATACOPY ADD SWAP1 POP POP SWAP1 POP PUSH1 0x0 JUMPDEST PUSH1 0x9 DUP2 LT ISZERO PUSH2 0x143 JUMPI DUP5 DUP2 PUSH1 0x9 DUP2 LT PUSH2 0x10F JUMPI PUSH2 0x10F PUSH2 0x1529 JUMP JUMPDEST PUSH1 0x20 MUL ADD MLOAD DUP3 DUP3 DUP2 MLOAD DUP2 LT PUSH2 0x126 JUMPI PUSH2 0x126 PUSH2 0x1529 JUMP JUMPDEST PUSH1 0x20 SWAP1 DUP2 MUL SWAP2 SWAP1 SWAP2 ADD ADD MSTORE DUP1 PUSH2 0x13B DUP2 PUSH2 0x14D6 JUMP JUMPDEST SWAP2 POP POP PUSH2 0xF4 JUMP JUMPDEST POP PUSH2 0x14E DUP2 DUP4 PUSH2 0x16C JUMP JUMPDEST PUSH2 0x15D JUMPI PUSH1 0x1 SWAP3 POP POP POP PUSH2 0x164 JUMP JUMPDEST PUSH1 0x0 SWAP3 POP POP POP JUMPDEST SWAP5 SWAP4 POP POP POP POP JUMP JUMPDEST PUSH1 0x0 PUSH32 0x30644E72E131A029B85045B68181585D2833E84879B9709143E1F593F0000001 DUP2 PUSH2 0x198 PUSH2 0x36E JUMP JUMPDEST SWAP1 POP DUP1 PUSH1 0x80 ADD MLOAD MLOAD DUP6 MLOAD PUSH1 0x1 PUSH2 0x1AE SWAP2 SWAP1 PUSH2 0x1488 JUMP JUMPDEST EQ PUSH2 0x200 JUMPI PUSH1 0x40 MLOAD PUSH3 0x461BCD PUSH1 0xE5 SHL DUP2 MSTORE PUSH1 0x20 PUSH1 0x4 DUP3 ADD MSTORE PUSH1 0x12 PUSH1 0x24 DUP3 ADD MSTORE PUSH32 0x76657269666965722D6261642D696E7075740000000000000000000000000000 PUSH1 0x44 DUP3 ADD MSTORE PUSH1 0x64 ADD JUMPDEST PUSH1 0x40 MLOAD DUP1 SWAP2 SUB SWAP1 REVERT JUMPDEST PUSH1 0x40 DUP1 MLOAD DUP1 DUP3 ADD SWAP1 SWAP2 MSTORE PUSH1 0x0 DUP1 DUP3 MSTORE PUSH1 0x20 DUP3 ADD DUP2 SWAP1 MSTORE JUMPDEST DUP7 MLOAD DUP2 LT ISZERO PUSH2 0x2F1 JUMPI DUP4 DUP8 DUP3 DUP2 MLOAD DUP2 LT PUSH2 0x233 JUMPI PUSH2 0x233 PUSH2 0x1529 JUMP JUMPDEST PUSH1 0x20 MUL PUSH1 0x20 ADD ADD MLOAD LT PUSH2 0x288 JUMPI PUSH1 0x40 MLOAD PUSH3 0x461BCD PUSH1 0xE5 SHL DUP2 MSTORE PUSH1 0x20 PUSH1 0x4 DUP3 ADD MSTORE PUSH1 0x1F PUSH1 0x24 DUP3 ADD MSTORE PUSH32 0x76657269666965722D6774652D736E61726B2D7363616C61722D6669656C6400 PUSH1 0x44 DUP3 ADD MSTORE PUSH1 0x64 ADD PUSH2 0x1F7 JUMP JUMPDEST PUSH2 0x2DD DUP3 PUSH2 0x2D8 DUP6 PUSH1 0x80 ADD MLOAD DUP5 PUSH1 0x1 PUSH2 0x2A1 SWAP2 SWAP1 PUSH2 0x1488 JUMP JUMPDEST DUP2 MLOAD DUP2 LT PUSH2 0x2B1 JUMPI PUSH2 0x2B1 PUSH2 0x1529 JUMP JUMPDEST PUSH1 0x20 MUL PUSH1 0x20 ADD ADD MLOAD DUP11 DUP6 DUP2 MLOAD DUP2 LT PUSH2 0x2CB JUMPI PUSH2 0x2CB PUSH2 0x1529 JUMP JUMPDEST PUSH1 0x20 MUL PUSH1 0x20 ADD ADD MLOAD PUSH2 0xAC2 JUMP JUMPDEST PUSH2 0xB69 JUMP JUMPDEST SWAP2 POP DUP1 PUSH2 0x2E9 DUP2 PUSH2 0x14D6 JUMP JUMPDEST SWAP2 POP POP PUSH2 0x217 JUMP JUMPDEST POP PUSH2 0x31A DUP2 DUP4 PUSH1 0x80 ADD MLOAD PUSH1 0x0 DUP2 MLOAD DUP2 LT PUSH2 0x30D JUMPI PUSH2 0x30D PUSH2 0x1529 JUMP JUMPDEST PUSH1 0x20 MUL PUSH1 0x20 ADD ADD MLOAD PUSH2 0xB69 JUMP JUMPDEST SWAP1 POP PUSH2 0x350 PUSH2 0x32C DUP7 PUSH1 0x0 ADD MLOAD PUSH2 0xC0C JUMP JUMPDEST DUP7 PUSH1 0x20 ADD MLOAD DUP5 PUSH1 0x0 ADD MLOAD DUP6 PUSH1 0x20 ADD MLOAD DUP6 DUP8 PUSH1 0x40 ADD MLOAD DUP12 PUSH1 0x40 ADD MLOAD DUP10 PUSH1 0x60 ADD MLOAD PUSH2 0xCAB JUMP JUMPDEST PUSH2 0x360 JUMPI PUSH1 0x1 SWAP4 POP POP POP POP PUSH2 0x368 JUMP JUMPDEST PUSH1 0x0 SWAP4 POP POP POP POP JUMPDEST SWAP3 SWAP2 POP POP JUMP JUMPDEST PUSH2 0x376 PUSH2 0x11ED JUMP JUMPDEST PUSH1 0x40 DUP1 MLOAD DUP1 DUP3 ADD DUP3 MSTORE PUSH32 0xB5DCD20B2C877922F1DC6B9AB7612A488A4960CF6A50D634CE5EDD3B4AA752C DUP2 MSTORE PUSH32 0x169014D5471334ECCE07B840A4C8805FF5F56F53C9DB7DF42302D095EB80E892 PUSH1 0x20 DUP1 DUP4 ADD SWAP2 SWAP1 SWAP2 MSTORE SWAP1 DUP4 MSTORE DUP2 MLOAD PUSH1 0x80 DUP1 DUP3 ADD DUP5 MSTORE PUSH32 0x1DF093D824DD1701460F1052DF89350D338B2410321B80BFF70AC2E82FA82EA8 DUP3 DUP6 ADD SWAP1 DUP2 MSTORE PUSH32 0x760439E8AD5D8CC95834EC7F5B24C4EF0751EE6A2BF19FF47D20DED514448A8 PUSH1 0x60 DUP1 DUP6 ADD SWAP2 SWAP1 SWAP2 MSTORE SWAP1 DUP4 MSTORE DUP5 MLOAD DUP1 DUP7 ADD DUP7 MSTORE PUSH32 0x2537195B41B650638F1A3F1321794D0B3F8A5262D125A230FD0C8D207E7DEC19 DUP2 MSTORE PUSH32 0x23956C43A3927D35D6AE322BCB65BDDAB490ACD4387BC708AE55D583A96287F0 DUP2 DUP7 ADD MSTORE DUP4 DUP6 ADD MSTORE DUP6 DUP5 ADD SWAP3 SWAP1 SWAP3 MSTORE DUP4 MLOAD DUP1 DUP3 ADD DUP6 MSTORE PUSH32 0x198E9393920D483A7260BFB731FB5D25F1AA493335A9E71297E485B7AEF312C2 DUP2 DUP7 ADD SWAP1 DUP2 MSTORE PUSH32 0x1800DEEF121F1E76426A00665E5C4479674322D4F75EDADD46DEBD5CD992F6ED DUP3 DUP6 ADD MSTORE DUP2 MSTORE DUP5 MLOAD DUP1 DUP7 ADD DUP7 MSTORE PUSH32 0x90689D0585FF075EC9E99AD690C3395BC4B313370B38EF355ACDADCD122975B DUP2 MSTORE PUSH32 0x12C85EA5DB8C6DEB4AAB71808DCB408FE3D1E7690C43D37B4CE6CC0166FA7DAA DUP2 DUP7 ADD MSTORE DUP2 DUP6 ADD MSTORE DUP6 DUP6 ADD MSTORE DUP4 MLOAD SWAP1 DUP2 ADD DUP5 MSTORE PUSH32 0x1BDB443CE61EBCF93DAED4215A57E1CEC90CA64973023E31197A112E8CEE72F6 DUP2 DUP6 ADD SWAP1 DUP2 MSTORE PUSH32 0x117E26C4235F42625B3404F2973059814FF260DBA7176D7AAE910F493A8E1FB5 DUP3 DUP5 ADD MSTORE DUP2 MSTORE DUP4 MLOAD DUP1 DUP6 ADD DUP6 MSTORE PUSH32 0x196E247A12F580E36894F256F0C122393489B4C213B3E913250FEEE806CA45FF DUP2 MSTORE PUSH32 0x2FEDFF4E4BBCBF9F1C56E28A060D50EEF5F54E2AAB897F6B465ACD2ED005AE91 DUP2 DUP6 ADD MSTORE DUP2 DUP5 ADD MSTORE SWAP1 DUP5 ADD MSTORE DUP2 MLOAD PUSH1 0xA DUP1 DUP3 MSTORE PUSH2 0x160 DUP3 ADD SWAP1 SWAP4 MSTORE SWAP2 SWAP1 DUP3 ADD JUMPDEST PUSH1 0x40 DUP1 MLOAD DUP1 DUP3 ADD SWAP1 SWAP2 MSTORE PUSH1 0x0 DUP1 DUP3 MSTORE PUSH1 0x20 DUP3 ADD MSTORE DUP2 MSTORE PUSH1 0x20 ADD SWAP1 PUSH1 0x1 SWAP1 SUB SWAP1 DUP2 PUSH2 0x5F2 JUMPI POP POP PUSH1 0x80 DUP3 ADD SWAP1 DUP2 MSTORE PUSH1 0x40 DUP1 MLOAD DUP1 DUP3 ADD SWAP1 SWAP2 MSTORE PUSH32 0x170601B748AE8175B7B7091BB8A4BDE8CE02518B8C2FA81960A75C8C5B1576D0 DUP2 MSTORE PUSH32 0x8AD977114581E71332FCBDE308D5D51450C4BF5C53187AFE45681B4A612C120 PUSH1 0x20 DUP3 ADD MSTORE SWAP1 MLOAD DUP1 MLOAD PUSH1 0x0 SWAP1 PUSH2 0x685 JUMPI PUSH2 0x685 PUSH2 0x1529 JUMP JUMPDEST PUSH1 0x20 MUL PUSH1 0x20 ADD ADD DUP2 SWAP1 MSTORE POP PUSH1 0x40 MLOAD DUP1 PUSH1 0x40 ADD PUSH1 0x40 MSTORE DUP1 PUSH32 0x19D4C28801427D061F5E567A441AA8BA21685F0A3842439733620E1D46B1A7FC DUP2 MSTORE PUSH1 0x20 ADD PUSH32 0x1CB038A19001D28B6AD7E559E0E074DC34004F693A8C4D4566383E2A080C9C3F DUP2 MSTORE POP DUP2 PUSH1 0x80 ADD MLOAD PUSH1 0x1 DUP2 MLOAD DUP2 LT PUSH2 0x6FC JUMPI PUSH2 0x6FC PUSH2 0x1529 JUMP JUMPDEST PUSH1 0x20 MUL PUSH1 0x20 ADD ADD DUP2 SWAP1 MSTORE POP PUSH1 0x40 MLOAD DUP1 PUSH1 0x40 ADD PUSH1 0x40 MSTORE DUP1 PUSH32 0x29B64A4F254FC477BFBF81C7DD2CCAC03CBB1B1731C94D098BBF2C94605F3BF4 DUP2 MSTORE PUSH1 0x20 ADD PUSH32 0x227591CC7A098AA47D62160316B4040B0D7F20C3F463B5C7F27CAEC31600DDC8 DUP2 MSTORE POP DUP2 PUSH1 0x80 ADD MLOAD PUSH1 0x2 DUP2 MLOAD DUP2 LT PUSH2 0x773 JUMPI PUSH2 0x773 PUSH2 0x1529 JUMP JUMPDEST PUSH1 0x20 MUL PUSH1 0x20 ADD ADD DUP2 SWAP1 MSTORE POP PUSH1 0x40 MLOAD DUP1 PUSH1 0x40 ADD PUSH1 0x40 MSTORE DUP1 PUSH32 0x289BA0C64FBABED2F67958052004C03ACB11E18421B0DE630FEF3EA3C4FB9777 DUP2 MSTORE PUSH1 0x20 ADD PUSH32 0x21D36891465C169DDF2D622F23D9FC580268553A6AA9219054ED828E576CF4AA DUP2 MSTORE POP DUP2 PUSH1 0x80 ADD MLOAD PUSH1 0x3 DUP2 MLOAD DUP2 LT PUSH2 0x7EA JUMPI PUSH2 0x7EA PUSH2 0x1529 JUMP JUMPDEST PUSH1 0x20 MUL PUSH1 0x20 ADD ADD DUP2 SWAP1 MSTORE POP PUSH1 0x40 MLOAD DUP1 PUSH1 0x40 ADD PUSH1 0x40 MSTORE DUP1 PUSH32 0x220551A435A08E795F5D0CAE30D73053A038FBFEBD973FF76C4DC660BD87B4DA DUP2 MSTORE PUSH1 0x20 ADD PUSH32 0x2CCA9899D62DB3DB987CD6587CBC93250412BB7EF16904BBD325824A57B867E7 DUP2 MSTORE POP DUP2 PUSH1 0x80 ADD MLOAD PUSH1 0x4 DUP2 MLOAD DUP2 LT PUSH2 0x861 JUMPI PUSH2 0x861 PUSH2 0x1529 JUMP JUMPDEST PUSH1 0x20 MUL PUSH1 0x20 ADD ADD DUP2 SWAP1 MSTORE POP PUSH1 0x40 MLOAD DUP1 PUSH1 0x40 ADD PUSH1 0x40 MSTORE DUP1 PUSH32 0x156673867371AB3482F83BD6230E09C721224BCEB803DCF84A76753BD098F195 DUP2 MSTORE PUSH1 0x20 ADD PUSH32 0xFBF9328AA10BE601E403B4F3B3B8AB86409DDD26076FBD70CFEDE1AD28BE3C4 DUP2 MSTORE POP DUP2 PUSH1 0x80 ADD MLOAD PUSH1 0x5 DUP2 MLOAD DUP2 LT PUSH2 0x8D8 JUMPI PUSH2 0x8D8 PUSH2 0x1529 JUMP JUMPDEST PUSH1 0x20 MUL PUSH1 0x20 ADD ADD DUP2 SWAP1 MSTORE POP PUSH1 0x40 MLOAD DUP1 PUSH1 0x40 ADD PUSH1 0x40 MSTORE DUP1 PUSH32 0x104B97B6EDF888296D93AC2D7318FB212B8A037A76515301A1AA2C413BF4E54C DUP2 MSTORE PUSH1 0x20 ADD PUSH32 0x938474FFF7169EAE21AE1FADC6C9847A549BD16B4DDBA4CB77E773BB1487C96 DUP2 MSTORE POP DUP2 PUSH1 0x80 ADD MLOAD PUSH1 0x6 DUP2 MLOAD DUP2 LT PUSH2 0x94F JUMPI PUSH2 0x94F PUSH2 0x1529 JUMP JUMPDEST PUSH1 0x20 MUL PUSH1 0x20 ADD ADD DUP2 SWAP1 MSTORE POP PUSH1 0x40 MLOAD DUP1 PUSH1 0x40 ADD PUSH1 0x40 MSTORE DUP1 PUSH32 0x247B8505DA9407BB290A10B26E0BB5A69679E5DE39A70F8A8665546D239C4DAB DUP2 MSTORE PUSH1 0x20 ADD PUSH32 0x2513A27EC5DE6E92546610957F20AA2C17B55ADC531E3958C7B1D6EF7EB2C156 DUP2 MSTORE POP DUP2 PUSH1 0x80 ADD MLOAD PUSH1 0x7 DUP2 MLOAD DUP2 LT PUSH2 0x9C6 JUMPI PUSH2 0x9C6 PUSH2 0x1529 JUMP JUMPDEST PUSH1 0x20 MUL PUSH1 0x20 ADD ADD DUP2 SWAP1 MSTORE POP PUSH1 0x40 MLOAD DUP1 PUSH1 0x40 ADD PUSH1 0x40 MSTORE DUP1 PUSH32 0x304A58DA8459613DEA3E3A278A3F0EFEA918022EB816DB0CD82C2DCE87FEF4EB DUP2 MSTORE PUSH1 0x20 ADD PUSH32 0x1BB027B62EA536480FC057480CE52A91D4B6015E2316390E30EFCD10F84A09D9 DUP2 MSTORE POP DUP2 PUSH1 0x80 ADD MLOAD PUSH1 0x8 DUP2 MLOAD DUP2 LT PUSH2 0xA3D JUMPI PUSH2 0xA3D PUSH2 0x1529 JUMP JUMPDEST PUSH1 0x20 MUL PUSH1 0x20 ADD ADD DUP2 SWAP1 MSTORE POP PUSH1 0x40 MLOAD DUP1 PUSH1 0x40 ADD PUSH1 0x40 MSTORE DUP1 PUSH32 0x1F368CF3C4227DEAD46D19B22B7A77171966E8F10264ABC0961F28B9E57264F2 DUP2 MSTORE PUSH1 0x20 ADD PUSH32 0xE5C84D54CCC5552FB2175991D16CC169CEFB453770B9506EAA193B743F303EF DUP2 MSTORE POP DUP2 PUSH1 0x80 ADD MLOAD PUSH1 0x9 DUP2 MLOAD DUP2 LT PUSH2 0xAB4 JUMPI PUSH2 0xAB4 PUSH2 0x1529 JUMP JUMPDEST PUSH1 0x20 MUL PUSH1 0x20 ADD ADD DUP2 SWAP1 MSTORE POP SWAP1 JUMP JUMPDEST PUSH1 0x40 DUP1 MLOAD DUP1 DUP3 ADD SWAP1 SWAP2 MSTORE PUSH1 0x0 DUP1 DUP3 MSTORE PUSH1 0x20 DUP3 ADD MSTORE PUSH2 0xADE PUSH2 0x123E JUMP JUMPDEST DUP4 MLOAD DUP2 MSTORE PUSH1 0x20 DUP1 DUP6 ADD MLOAD SWAP1 DUP3 ADD MSTORE PUSH1 0x40 DUP2 ADD DUP4 SWAP1 MSTORE PUSH1 0x0 PUSH1 0x60 DUP4 PUSH1 0x80 DUP5 PUSH1 0x7 PUSH2 0x7D0 GAS SUB STATICCALL SWAP1 POP DUP1 DUP1 ISZERO PUSH2 0xB11 JUMPI PUSH2 0xB13 JUMP JUMPDEST INVALID JUMPDEST POP DUP1 PUSH2 0xB61 JUMPI PUSH1 0x40 MLOAD PUSH3 0x461BCD PUSH1 0xE5 SHL DUP2 MSTORE PUSH1 0x20 PUSH1 0x4 DUP3 ADD MSTORE PUSH1 0x12 PUSH1 0x24 DUP3 ADD MSTORE PUSH32 0x70616972696E672D6D756C2D6661696C65640000000000000000000000000000 PUSH1 0x44 DUP3 ADD MSTORE PUSH1 0x64 ADD PUSH2 0x1F7 JUMP JUMPDEST POP POP SWAP3 SWAP2 POP POP JUMP JUMPDEST PUSH1 0x40 DUP1 MLOAD DUP1 DUP3 ADD SWAP1 SWAP2 MSTORE PUSH1 0x0 DUP1 DUP3 MSTORE PUSH1 0x20 DUP3 ADD MSTORE PUSH2 0xB85 PUSH2 0x125C JUMP JUMPDEST DUP4 MLOAD DUP2 MSTORE PUSH1 0x20 DUP1 DUP6 ADD MLOAD DUP2 DUP4 ADD MSTORE DUP4 MLOAD PUSH1 0x40 DUP4 ADD MSTORE DUP4 ADD MLOAD PUSH1 0x60 DUP1 DUP4 ADD SWAP2 SWAP1 SWAP2 MSTORE PUSH1 0x0 SWAP1 DUP4 PUSH1 0xC0 DUP5 PUSH1 0x6 PUSH2 0x7D0 GAS SUB STATICCALL SWAP1 POP DUP1 DUP1 ISZERO PUSH2 0xB11 JUMPI POP DUP1 PUSH2 0xB61 JUMPI PUSH1 0x40 MLOAD PUSH3 0x461BCD PUSH1 0xE5 SHL DUP2 MSTORE PUSH1 0x20 PUSH1 0x4 DUP3 ADD MSTORE PUSH1 0x12 PUSH1 0x24 DUP3 ADD MSTORE PUSH32 0x70616972696E672D6164642D6661696C65640000000000000000000000000000 PUSH1 0x44 DUP3 ADD MSTORE PUSH1 0x64 ADD PUSH2 0x1F7 JUMP JUMPDEST PUSH1 0x40 DUP1 MLOAD DUP1 DUP3 ADD SWAP1 SWAP2 MSTORE PUSH1 0x0 DUP1 DUP3 MSTORE PUSH1 0x20 DUP3 ADD MSTORE DUP2 MLOAD PUSH32 0x30644E72E131A029B85045B68181585D97816A916871CA8D3C208C16D87CFD47 SWAP1 ISZERO DUP1 ISZERO PUSH2 0xC53 JUMPI POP PUSH1 0x20 DUP4 ADD MLOAD ISZERO JUMPDEST ISZERO PUSH2 0xC73 JUMPI POP POP PUSH1 0x40 DUP1 MLOAD DUP1 DUP3 ADD SWAP1 SWAP2 MSTORE PUSH1 0x0 DUP1 DUP3 MSTORE PUSH1 0x20 DUP3 ADD MSTORE SWAP2 SWAP1 POP JUMP JUMPDEST PUSH1 0x40 MLOAD DUP1 PUSH1 0x40 ADD PUSH1 0x40 MSTORE DUP1 DUP5 PUSH1 0x0 ADD MLOAD DUP2 MSTORE PUSH1 0x20 ADD DUP3 DUP6 PUSH1 0x20 ADD MLOAD PUSH2 0xC98 SWAP2 SWAP1 PUSH2 0x14F1 JUMP JUMPDEST PUSH2 0xCA2 SWAP1 DUP5 PUSH2 0x14BF JUMP JUMPDEST SWAP1 MSTORE SWAP4 SWAP3 POP POP POP JUMP JUMPDEST PUSH1 0x40 DUP1 MLOAD PUSH1 0x4 DUP1 DUP3 MSTORE PUSH1 0xA0 DUP3 ADD SWAP1 SWAP3 MSTORE PUSH1 0x0 SWAP2 DUP3 SWAP2 SWAP1 DUP2 PUSH1 0x20 ADD JUMPDEST PUSH1 0x40 DUP1 MLOAD DUP1 DUP3 ADD SWAP1 SWAP2 MSTORE PUSH1 0x0 DUP1 DUP3 MSTORE PUSH1 0x20 DUP3 ADD MSTORE DUP2 MSTORE PUSH1 0x20 ADD SWAP1 PUSH1 0x1 SWAP1 SUB SWAP1 DUP2 PUSH2 0xCC6 JUMPI POP POP PUSH1 0x40 DUP1 MLOAD PUSH1 0x4 DUP1 DUP3 MSTORE PUSH1 0xA0 DUP3 ADD SWAP1 SWAP3 MSTORE SWAP2 SWAP3 POP PUSH1 0x0 SWAP2 SWAP1 PUSH1 0x20 DUP3 ADD JUMPDEST PUSH2 0xD10 PUSH2 0x127A JUMP JUMPDEST DUP2 MSTORE PUSH1 0x20 ADD SWAP1 PUSH1 0x1 SWAP1 SUB SWAP1 DUP2 PUSH2 0xD08 JUMPI SWAP1 POP POP SWAP1 POP DUP11 DUP3 PUSH1 0x0 DUP2 MLOAD DUP2 LT PUSH2 0xD39 JUMPI PUSH2 0xD39 PUSH2 0x1529 JUMP JUMPDEST PUSH1 0x20 MUL PUSH1 0x20 ADD ADD DUP2 SWAP1 MSTORE POP DUP9 DUP3 PUSH1 0x1 DUP2 MLOAD DUP2 LT PUSH2 0xD58 JUMPI PUSH2 0xD58 PUSH2 0x1529 JUMP JUMPDEST PUSH1 0x20 MUL PUSH1 0x20 ADD ADD DUP2 SWAP1 MSTORE POP DUP7 DUP3 PUSH1 0x2 DUP2 MLOAD DUP2 LT PUSH2 0xD77 JUMPI PUSH2 0xD77 PUSH2 0x1529 JUMP JUMPDEST PUSH1 0x20 MUL PUSH1 0x20 ADD ADD DUP2 SWAP1 MSTORE POP DUP5 DUP3 PUSH1 0x3 DUP2 MLOAD DUP2 LT PUSH2 0xD96 JUMPI PUSH2 0xD96 PUSH2 0x1529 JUMP JUMPDEST PUSH1 0x20 MUL PUSH1 0x20 ADD ADD DUP2 SWAP1 MSTORE POP DUP10 DUP2 PUSH1 0x0 DUP2 MLOAD DUP2 LT PUSH2 0xDB5 JUMPI PUSH2 0xDB5 PUSH2 0x1529 JUMP JUMPDEST PUSH1 0x20 MUL PUSH1 0x20 ADD ADD DUP2 SWAP1 MSTORE POP DUP8 DUP2 PUSH1 0x1 DUP2 MLOAD DUP2 LT PUSH2 0xDD4 JUMPI PUSH2 0xDD4 PUSH2 0x1529 JUMP JUMPDEST PUSH1 0x20 MUL PUSH1 0x20 ADD ADD DUP2 SWAP1 MSTORE POP DUP6 DUP2 PUSH1 0x2 DUP2 MLOAD DUP2 LT PUSH2 0xDF3 JUMPI PUSH2 0xDF3 PUSH2 0x1529 JUMP JUMPDEST PUSH1 0x20 MUL PUSH1 0x20 ADD ADD DUP2 SWAP1 MSTORE POP DUP4 DUP2 PUSH1 0x3 DUP2 MLOAD DUP2 LT PUSH2 0xE12 JUMPI PUSH2 0xE12 PUSH2 0x1529 JUMP JUMPDEST PUSH1 0x20 MUL PUSH1 0x20 ADD ADD DUP2 SWAP1 MSTORE POP PUSH2 0xE27 DUP3 DUP3 PUSH2 0xE36 JUMP JUMPDEST SWAP12 SWAP11 POP POP POP POP POP POP POP POP POP POP POP JUMP JUMPDEST PUSH1 0x0 DUP2 MLOAD DUP4 MLOAD EQ PUSH2 0xE89 JUMPI PUSH1 0x40 MLOAD PUSH3 0x461BCD PUSH1 0xE5 SHL DUP2 MSTORE PUSH1 0x20 PUSH1 0x4 DUP3 ADD MSTORE PUSH1 0x16 PUSH1 0x24 DUP3 ADD MSTORE PUSH32 0x70616972696E672D6C656E677468732D6661696C656400000000000000000000 PUSH1 0x44 DUP3 ADD MSTORE PUSH1 0x64 ADD PUSH2 0x1F7 JUMP JUMPDEST DUP3 MLOAD PUSH1 0x0 PUSH2 0xE98 DUP3 PUSH1 0x6 PUSH2 0x14A0 JUMP JUMPDEST SWAP1 POP PUSH1 0x0 DUP2 PUSH8 0xFFFFFFFFFFFFFFFF DUP2 GT ISZERO PUSH2 0xEB5 JUMPI PUSH2 0xEB5 PUSH2 0x153F JUMP JUMPDEST PUSH1 0x40 MLOAD SWAP1 DUP1 DUP3 MSTORE DUP1 PUSH1 0x20 MUL PUSH1 0x20 ADD DUP3 ADD PUSH1 0x40 MSTORE DUP1 ISZERO PUSH2 0xEDE JUMPI DUP2 PUSH1 0x20 ADD PUSH1 0x20 DUP3 MUL DUP1 CALLDATASIZE DUP4 CALLDATACOPY ADD SWAP1 POP JUMPDEST POP SWAP1 POP PUSH1 0x0 JUMPDEST DUP4 DUP2 LT ISZERO PUSH2 0x1119 JUMPI DUP7 DUP2 DUP2 MLOAD DUP2 LT PUSH2 0xEFE JUMPI PUSH2 0xEFE PUSH2 0x1529 JUMP JUMPDEST PUSH1 0x20 MUL PUSH1 0x20 ADD ADD MLOAD PUSH1 0x0 ADD MLOAD DUP3 DUP3 PUSH1 0x6 PUSH2 0xF18 SWAP2 SWAP1 PUSH2 0x14A0 JUMP JUMPDEST PUSH2 0xF23 SWAP1 PUSH1 0x0 PUSH2 0x1488 JUMP JUMPDEST DUP2 MLOAD DUP2 LT PUSH2 0xF33 JUMPI PUSH2 0xF33 PUSH2 0x1529 JUMP JUMPDEST PUSH1 0x20 MUL PUSH1 0x20 ADD ADD DUP2 DUP2 MSTORE POP POP DUP7 DUP2 DUP2 MLOAD DUP2 LT PUSH2 0xF51 JUMPI PUSH2 0xF51 PUSH2 0x1529 JUMP JUMPDEST PUSH1 0x20 MUL PUSH1 0x20 ADD ADD MLOAD PUSH1 0x20 ADD MLOAD DUP3 DUP3 PUSH1 0x6 PUSH2 0xF6B SWAP2 SWAP1 PUSH2 0x14A0 JUMP JUMPDEST PUSH2 0xF76 SWAP1 PUSH1 0x1 PUSH2 0x1488 JUMP JUMPDEST DUP2 MLOAD DUP2 LT PUSH2 0xF86 JUMPI PUSH2 0xF86 PUSH2 0x1529 JUMP JUMPDEST PUSH1 0x20 MUL PUSH1 0x20 ADD ADD DUP2 DUP2 MSTORE POP POP DUP6 DUP2 DUP2 MLOAD DUP2 LT PUSH2 0xFA4 JUMPI PUSH2 0xFA4 PUSH2 0x1529 JUMP JUMPDEST PUSH1 0x20 SWAP1 DUP2 MUL SWAP2 SWAP1 SWAP2 ADD ADD MLOAD MLOAD MLOAD DUP3 PUSH2 0xFBD DUP4 PUSH1 0x6 PUSH2 0x14A0 JUMP JUMPDEST PUSH2 0xFC8 SWAP1 PUSH1 0x2 PUSH2 0x1488 JUMP JUMPDEST DUP2 MLOAD DUP2 LT PUSH2 0xFD8 JUMPI PUSH2 0xFD8 PUSH2 0x1529 JUMP JUMPDEST PUSH1 0x20 MUL PUSH1 0x20 ADD ADD DUP2 DUP2 MSTORE POP POP DUP6 DUP2 DUP2 MLOAD DUP2 LT PUSH2 0xFF6 JUMPI PUSH2 0xFF6 PUSH2 0x1529 JUMP JUMPDEST PUSH1 0x20 SWAP1 DUP2 MUL SWAP2 SWAP1 SWAP2 ADD DUP2 ADD MLOAD MLOAD ADD MLOAD DUP3 PUSH2 0x1011 DUP4 PUSH1 0x6 PUSH2 0x14A0 JUMP JUMPDEST PUSH2 0x101C SWAP1 PUSH1 0x3 PUSH2 0x1488 JUMP JUMPDEST DUP2 MLOAD DUP2 LT PUSH2 0x102C JUMPI PUSH2 0x102C PUSH2 0x1529 JUMP JUMPDEST PUSH1 0x20 MUL PUSH1 0x20 ADD ADD DUP2 DUP2 MSTORE POP POP DUP6 DUP2 DUP2 MLOAD DUP2 LT PUSH2 0x104A JUMPI PUSH2 0x104A PUSH2 0x1529 JUMP JUMPDEST PUSH1 0x20 MUL PUSH1 0x20 ADD ADD MLOAD PUSH1 0x20 ADD MLOAD PUSH1 0x0 PUSH1 0x2 DUP2 LT PUSH2 0x1068 JUMPI PUSH2 0x1068 PUSH2 0x1529 JUMP JUMPDEST PUSH1 0x20 MUL ADD MLOAD DUP3 PUSH2 0x1079 DUP4 PUSH1 0x6 PUSH2 0x14A0 JUMP JUMPDEST PUSH2 0x1084 SWAP1 PUSH1 0x4 PUSH2 0x1488 JUMP JUMPDEST DUP2 MLOAD DUP2 LT PUSH2 0x1094 JUMPI PUSH2 0x1094 PUSH2 0x1529 JUMP JUMPDEST PUSH1 0x20 MUL PUSH1 0x20 ADD ADD DUP2 DUP2 MSTORE POP POP DUP6 DUP2 DUP2 MLOAD DUP2 LT PUSH2 0x10B2 JUMPI PUSH2 0x10B2 PUSH2 0x1529 JUMP JUMPDEST PUSH1 0x20 MUL PUSH1 0x20 ADD ADD MLOAD PUSH1 0x20 ADD MLOAD PUSH1 0x1 PUSH1 0x2 DUP2 LT PUSH2 0x10D0 JUMPI PUSH2 0x10D0 PUSH2 0x1529 JUMP JUMPDEST PUSH1 0x20 MUL ADD MLOAD DUP3 PUSH2 0x10E1 DUP4 PUSH1 0x6 PUSH2 0x14A0 JUMP JUMPDEST PUSH2 0x10EC SWAP1 PUSH1 0x5 PUSH2 0x1488 JUMP JUMPDEST DUP2 MLOAD DUP2 LT PUSH2 0x10FC JUMPI PUSH2 0x10FC PUSH2 0x1529 JUMP JUMPDEST PUSH1 0x20 SWAP1 DUP2 MUL SWAP2 SWAP1 SWAP2 ADD ADD MSTORE DUP1 PUSH2 0x1111 DUP2 PUSH2 0x14D6 JUMP JUMPDEST SWAP2 POP POP PUSH2 0xEE4 JUMP JUMPDEST POP PUSH2 0x1122 PUSH2 0x129A JUMP JUMPDEST PUSH1 0x0 PUSH1 0x20 DUP3 PUSH1 0x20 DUP7 MUL PUSH1 0x20 DUP7 ADD PUSH1 0x8 PUSH2 0x7D0 GAS SUB STATICCALL SWAP1 POP DUP1 DUP1 ISZERO PUSH2 0xB11 JUMPI POP DUP1 PUSH2 0x118E JUMPI PUSH1 0x40 MLOAD PUSH3 0x461BCD PUSH1 0xE5 SHL DUP2 MSTORE PUSH1 0x20 PUSH1 0x4 DUP3 ADD MSTORE PUSH1 0x15 PUSH1 0x24 DUP3 ADD MSTORE PUSH32 0x70616972696E672D6F70636F64652D6661696C65640000000000000000000000 PUSH1 0x44 DUP3 ADD MSTORE PUSH1 0x64 ADD PUSH2 0x1F7 JUMP JUMPDEST POP MLOAD ISZERO ISZERO SWAP7 SWAP6 POP POP POP POP POP POP JUMP JUMPDEST PUSH1 0x40 DUP1 MLOAD PUSH1 0xA0 DUP2 ADD SWAP1 SWAP2 MSTORE PUSH1 0x0 PUSH1 0x60 DUP3 ADD DUP2 DUP2 MSTORE PUSH1 0x80 DUP4 ADD SWAP2 SWAP1 SWAP2 MSTORE DUP2 MSTORE PUSH1 0x20 DUP2 ADD PUSH2 0x11C6 PUSH2 0x127A JUMP JUMPDEST DUP2 MSTORE PUSH1 0x20 ADD PUSH2 0x11E8 PUSH1 0x40 MLOAD DUP1 PUSH1 0x40 ADD PUSH1 0x40 MSTORE DUP1 PUSH1 0x0 DUP2 MSTORE PUSH1 0x20 ADD PUSH1 0x0 DUP2 MSTORE POP SWAP1 JUMP JUMPDEST SWAP1 MSTORE SWAP1 JUMP JUMPDEST PUSH1 0x40 DUP1 MLOAD PUSH1 0xE0 DUP2 ADD SWAP1 SWAP2 MSTORE PUSH1 0x0 PUSH1 0xA0 DUP3 ADD DUP2 DUP2 MSTORE PUSH1 0xC0 DUP4 ADD SWAP2 SWAP1 SWAP2 MSTORE DUP2 MSTORE PUSH1 0x20 DUP2 ADD PUSH2 0x1217 PUSH2 0x127A JUMP JUMPDEST DUP2 MSTORE PUSH1 0x20 ADD PUSH2 0x1224 PUSH2 0x127A JUMP JUMPDEST DUP2 MSTORE PUSH1 0x20 ADD PUSH2 0x1231 PUSH2 0x127A JUMP JUMPDEST DUP2 MSTORE PUSH1 0x20 ADD PUSH1 0x60 DUP2 MSTORE POP SWAP1 JUMP JUMPDEST PUSH1 0x40 MLOAD DUP1 PUSH1 0x60 ADD PUSH1 0x40 MSTORE DUP1 PUSH1 0x3 SWAP1 PUSH1 0x20 DUP3 MUL DUP1 CALLDATASIZE DUP4 CALLDATACOPY POP SWAP2 SWAP3 SWAP2 POP POP JUMP JUMPDEST PUSH1 0x40 MLOAD DUP1 PUSH1 0x80 ADD PUSH1 0x40 MSTORE DUP1 PUSH1 0x4 SWAP1 PUSH1 0x20 DUP3 MUL DUP1 CALLDATASIZE DUP4 CALLDATACOPY POP SWAP2 SWAP3 SWAP2 POP POP JUMP JUMPDEST PUSH1 0x40 MLOAD DUP1 PUSH1 0x40 ADD PUSH1 0x40 MSTORE DUP1 PUSH2 0x128D PUSH2 0x12B8 JUMP JUMPDEST DUP2 MSTORE PUSH1 0x20 ADD PUSH2 0x11E8 PUSH2 0x12B8 JUMP JUMPDEST PUSH1 0x40 MLOAD DUP1 PUSH1 0x20 ADD PUSH1 0x40 MSTORE DUP1 PUSH1 0x1 SWAP1 PUSH1 0x20 DUP3 MUL DUP1 CALLDATASIZE DUP4 CALLDATACOPY POP SWAP2 SWAP3 SWAP2 POP POP JUMP JUMPDEST PUSH1 0x40 MLOAD DUP1 PUSH1 0x40 ADD PUSH1 0x40 MSTORE DUP1 PUSH1 0x2 SWAP1 PUSH1 0x20 DUP3 MUL DUP1 CALLDATASIZE DUP4 CALLDATACOPY POP SWAP2 SWAP3 SWAP2 POP POP JUMP JUMPDEST PUSH1 0x0 DUP3 PUSH1 0x1F DUP4 ADD SLT PUSH2 0x12E7 JUMPI PUSH1 0x0 DUP1 REVERT JUMPDEST PUSH2 0x12EF PUSH2 0x141F JUMP JUMPDEST DUP1 DUP4 DUP6 PUSH1 0x40 DUP7 ADD GT ISZERO PUSH2 0x1301 JUMPI PUSH1 0x0 DUP1 REVERT JUMPDEST PUSH1 0x0 JUMPDEST PUSH1 0x2 DUP2 LT ISZERO PUSH2 0x1323 JUMPI DUP2 CALLDATALOAD DUP5 MSTORE PUSH1 0x20 SWAP4 DUP5 ADD SWAP4 SWAP1 SWAP2 ADD SWAP1 PUSH1 0x1 ADD PUSH2 0x1304 JUMP JUMPDEST POP SWAP1 SWAP6 SWAP5 POP POP POP POP POP JUMP JUMPDEST PUSH1 0x0 DUP1 PUSH1 0x0 DUP1 PUSH2 0x220 DUP1 DUP7 DUP9 SUB SLT ISZERO PUSH2 0x1346 JUMPI PUSH1 0x0 DUP1 REVERT JUMPDEST PUSH2 0x1350 DUP8 DUP8 PUSH2 0x12D6 JUMP JUMPDEST SWAP5 POP PUSH1 0x40 DUP8 PUSH1 0x5F DUP9 ADD SLT PUSH2 0x1363 JUMPI PUSH1 0x0 DUP1 REVERT JUMPDEST PUSH2 0x136B PUSH2 0x141F JUMP JUMPDEST DUP1 DUP3 DUP10 ADD PUSH1 0xC0 DUP11 ADD DUP12 DUP2 GT ISZERO PUSH2 0x1380 JUMPI PUSH1 0x0 DUP1 REVERT JUMPDEST PUSH1 0x0 JUMPDEST PUSH1 0x2 DUP2 LT ISZERO PUSH2 0x13AA JUMPI PUSH2 0x1396 DUP14 DUP5 PUSH2 0x12D6 JUMP JUMPDEST DUP6 MSTORE PUSH1 0x20 SWAP1 SWAP5 ADD SWAP4 SWAP2 DUP6 ADD SWAP2 PUSH1 0x1 ADD PUSH2 0x1383 JUMP JUMPDEST POP DUP3 SWAP9 POP PUSH2 0x13B8 DUP13 DUP3 PUSH2 0x12D6 JUMP JUMPDEST SWAP8 POP POP POP POP POP POP DUP7 PUSH2 0x11F DUP8 ADD SLT PUSH2 0x13CF JUMPI PUSH1 0x0 DUP1 REVERT JUMPDEST PUSH2 0x13D7 PUSH2 0x1456 JUMP JUMPDEST DUP1 PUSH2 0x100 DUP9 ADD DUP10 DUP5 DUP11 ADD GT ISZERO PUSH2 0x13EC JUMPI PUSH1 0x0 DUP1 REVERT JUMPDEST PUSH1 0x0 SWAP4 POP JUMPDEST PUSH1 0x9 DUP5 LT ISZERO PUSH2 0x1411 JUMPI DUP1 CALLDATALOAD DUP4 MSTORE PUSH1 0x1 SWAP4 SWAP1 SWAP4 ADD SWAP3 PUSH1 0x20 SWAP3 DUP4 ADD SWAP3 ADD PUSH2 0x13F1 JUMP JUMPDEST POP SWAP6 SWAP9 SWAP5 SWAP8 POP SWAP3 SWAP6 POP POP POP POP JUMP JUMPDEST PUSH1 0x40 DUP1 MLOAD SWAP1 DUP2 ADD PUSH8 0xFFFFFFFFFFFFFFFF DUP2 GT DUP3 DUP3 LT OR ISZERO PUSH2 0x1450 JUMPI PUSH4 0x4E487B71 PUSH1 0xE0 SHL PUSH1 0x0 MSTORE PUSH1 0x41 PUSH1 0x4 MSTORE PUSH1 0x24 PUSH1 0x0 REVERT JUMPDEST PUSH1 0x40 MSTORE SWAP1 JUMP JUMPDEST PUSH1 0x40 MLOAD PUSH2 0x120 DUP2 ADD PUSH8 0xFFFFFFFFFFFFFFFF DUP2 GT DUP3 DUP3 LT OR ISZERO PUSH2 0x1450 JUMPI PUSH4 0x4E487B71 PUSH1 0xE0 SHL PUSH1 0x0 MSTORE PUSH1 0x41 PUSH1 0x4 MSTORE PUSH1 0x24 PUSH1 0x0 REVERT JUMPDEST PUSH1 0x0 DUP3 NOT DUP3 GT ISZERO PUSH2 0x149B JUMPI PUSH2 0x149B PUSH2 0x1513 JUMP JUMPDEST POP ADD SWAP1 JUMP JUMPDEST PUSH1 0x0 DUP2 PUSH1 0x0 NOT DIV DUP4 GT DUP3 ISZERO ISZERO AND ISZERO PUSH2 0x14BA JUMPI PUSH2 0x14BA PUSH2 0x1513 JUMP JUMPDEST POP MUL SWAP1 JUMP JUMPDEST PUSH1 0x0 DUP3 DUP3 LT ISZERO PUSH2 0x14D1 JUMPI PUSH2 0x14D1 PUSH2 0x1513 JUMP JUMPDEST POP SUB SWAP1 JUMP JUMPDEST PUSH1 0x0 PUSH1 0x0 NOT DUP3 EQ ISZERO PUSH2 0x14EA JUMPI PUSH2 0x14EA PUSH2 0x1513 JUMP JUMPDEST POP PUSH1 0x1 ADD SWAP1 JUMP JUMPDEST PUSH1 0x0 DUP3 PUSH2 0x150E JUMPI PUSH4 0x4E487B71 PUSH1 0xE0 SHL PUSH1 0x0 MSTORE PUSH1 0x12 PUSH1 0x4 MSTORE PUSH1 0x24 PUSH1 0x0 REVERT JUMPDEST POP MOD SWAP1 JUMP JUMPDEST PUSH4 0x4E487B71 PUSH1 0xE0 SHL PUSH1 0x0 MSTORE PUSH1 0x11 PUSH1 0x4 MSTORE PUSH1 0x24 PUSH1 0x0 REVERT JUMPDEST PUSH4 0x4E487B71 PUSH1 0xE0 SHL PUSH1 0x0 MSTORE PUSH1 0x32 PUSH1 0x4 MSTORE PUSH1 0x24 PUSH1 0x0 REVERT JUMPDEST PUSH4 0x4E487B71 PUSH1 0xE0 SHL PUSH1 0x0 MSTORE PUSH1 0x41 PUSH1 0x4 MSTORE PUSH1 0x24 PUSH1 0x0 REVERT INVALID LOG2 PUSH5 0x6970667358 0x22 SLT KECCAK256 DUP12 ADDRESS SWAP2 CALLCODE 0x29 JUMPI 0xF9 SWAP10 PUSH20 0xD8320774C7021667B2BEF64EA76036F6D53F91A2 LOG0 0xCB GT PUSH5 0x736F6C6343 STOP ADDMOD SMOD STOP CALLER "},"methodIdentifiers":{"verifyProof(uint256[2],uint256[2][2],uint256[2],uint256[9])":"c542c93b"}},"storageLayout":{"storage":[],"types":null}}}}