{"contracts/test/TestValidator.sol":{"TestValidator":{"abi":[{"inputs":[{"internalType":"address","name":"_mtpValidator","type":"address"},{"internalType":"address","name":"_sigValidator","type":"address"}],"stateMutability":"nonpayable","type":"constructor"},{"inputs":[],"name":"mtpValidator","outputs":[{"internalType":"contract IValidator","name":"","type":"address"}],"stateMutability":"view","type":"function"},{"inputs":[],"name":"owner","outputs":[{"internalType":"address","name":"","type":"address"}],"stateMutability":"view","type":"function"},{"inputs":[],"name":"sigValidator","outputs":[{"internalType":"contract IValidator","name":"","type":"address"}],"stateMutability":"view","type":"function"},{"inputs":[{"internalType":"uint256[2]","name":"a","type":"uint256[2]"},{"internalType":"uint256[2][2]","name":"b","type":"uint256[2][2]"},{"internalType":"uint256[2]","name":"c","type":"uint256[2]"},{"internalType":"uint256[9]","name":"pubSigs","type":"uint256[9]"}],"name":"verifyMTP","outputs":[{"internalType":"bool","name":"","type":"bool"}],"stateMutability":"nonpayable","type":"function"},{"inputs":[{"internalType":"uint256[2]","name":"a","type":"uint256[2]"},{"internalType":"uint256[2][2]","name":"b","type":"uint256[2][2]"},{"internalType":"uint256[2]","name":"c","type":"uint256[2]"},{"internalType":"uint256[9]","name":"pubSigs","type":"uint256[9]"}],"name":"verifySig","outputs":[{"internalType":"bool","name":"","type":"bool"}],"stateMutability":"nonpayable","type":"function"}],"evm":{"bytecode":{"linkReferences":{},"object":"63013046a760808181526401d6f3455960a08190526001600160641b0360c0819052610140604052600561010081815264517565727960d81b61012090815260e0919091526003958655600493909355908155919291610061916006916100c0565b50505034801561007057600080fd5b5060405161079138038061079183398101604081905261008f91610175565b600180546001600160a01b039384166001600160a01b031991821617909155600280549290931691161790556101e3565b8280546100cc906101a8565b90600052602060002090601f0160209004810192826100ee5760008555610134565b82601f1061010757805160ff1916838001178555610134565b82800160010185558215610134579182015b82811115610134578251825591602001919060010190610119565b50610140929150610144565b5090565b5b808211156101405760008155600101610145565b80516001600160a01b038116811461017057600080fd5b919050565b6000806040838503121561018857600080fd5b61019183610159565b915061019f60208401610159565b90509250929050565b600181811c908216806101bc57607f821691505b602082108114156101dd57634e487b7160e01b600052602260045260246000fd5b50919050565b61059f806101f26000396000f3fe608060405234801561001057600080fd5b50600436106100675760003560e01c806379501bf61161005057806379501bf6146100bf5780638da5cb5b146100d2578063e125bcb5146100e557600080fd5b80636a1c4be11461006c57806373b39ab91461009c575b600080fd5b60015461007f906001600160a01b031681565b6040516001600160a01b0390911681526020015b60405180910390f35b6100af6100aa366004610257565b6100f8565b6040519015158152602001610093565b60025461007f906001600160a01b031681565b60005461007f906001600160a01b031681565b6100af6100f3366004610257565b6101c5565b600254604051635802c3f760e01b81526000916001600160a01b031690635802c3f790610132908890889088908890600390600401610466565b60206040518083038186803b15801561014a57600080fd5b505afa15801561015e573d6000803e3d6000fd5b505050506040513d601f19601f820116820180604052508101906101829190610348565b156101b95750600080547fffffffffffffffffffffffff0000000000000000000000000000000000000000163317905560016101bd565b5060005b949350505050565b600154604051635802c3f760e01b81526000916001600160a01b031690635802c3f790610132908890889088908890600390600401610466565b600082601f83011261021057600080fd5b610218610500565b80838560408601111561022a57600080fd5b60005b600281101561024c57813584526020938401939091019060010161022d565b509095945050505050565b60008060008061022080868803121561026f57600080fd5b61027987876101ff565b9450604087605f88011261028c57600080fd5b610294610500565b8082890160c08a018b8111156102a957600080fd5b60005b60028110156102d3576102bf8d846101ff565b8552602090940193918501916001016102ac565b508298506102e18c826101ff565b975050505050508661011f8701126102f857600080fd5b610300610537565b80610100880189848a01111561031557600080fd5b600093505b600984101561033a5780358352600193909301926020928301920161031a565b509598949750929550505050565b60006020828403121561035a57600080fd5b8151801515811461036a57600080fd5b9392505050565b8060005b6002811015610394578151845260209384019390910190600101610375565b50505050565b805482526000600180830154602081818701526002850154604087015260038501915060806060870152600082548181861c9050858216806103dd57607f821691505b8482108114156103fb57634e487b7160e01b84526022600452602484fd5b60808a0182905260a08a0181801561041a576001811461042b57610456565b60ff19851682528682019550610456565b60008881526020902060005b8581101561045057815484820152908a01908801610437565b83019650505b50939a9950505050505050505050565b60006102406104758389610371565b60408084018860005b60028110156104a557610492838351610371565b918301916020919091019060010161047e565b505050506104b660c0840187610371565b61010083018560005b60098110156104de5781518352602092830192909101906001016104bf565b505050806102208401526104f48184018561039a565b98975050505050505050565b6040805190810167ffffffffffffffff8111828210171561053157634e487b7160e01b600052604160045260246000fd5b60405290565b604051610120810167ffffffffffffffff8111828210171561053157634e487b7160e01b600052604160045260246000fdfea26469706673582212208043fc5463b2b741f9725606452a7bed5def6926a0c0e3a02bc367bf8dec90fc64736f6c63430008070033","opcodes":"PUSH4 0x13046A7 PUSH1 0x80 DUP2 DUP2 MSTORE PUSH5 0x1D6F34559 PUSH1 0xA0 DUP2 SWAP1 MSTORE PUSH1 0x1 PUSH1 0x1 PUSH1 0x64 SHL SUB PUSH1 0xC0 DUP2 SWAP1 MSTORE PUSH2 0x140 PUSH1 0x40 MSTORE PUSH1 0x5 PUSH2 0x100 DUP2 DUP2 MSTORE PUSH5 0x5175657279 PUSH1 0xD8 SHL PUSH2 0x120 SWAP1 DUP2 MSTORE PUSH1 0xE0 SWAP2 SWAP1 SWAP2 MSTORE PUSH1 0x3 SWAP6 DUP7 SSTORE PUSH1 0x4 SWAP4 SWAP1 SWAP4 SSTORE SWAP1 DUP2 SSTORE SWAP2 SWAP3 SWAP2 PUSH2 0x61 SWAP2 PUSH1 0x6 SWAP2 PUSH2 0xC0 JUMP JUMPDEST POP POP POP CALLVALUE DUP1 ISZERO PUSH2 0x70 JUMPI PUSH1 0x0 DUP1 REVERT JUMPDEST POP PUSH1 0x40 MLOAD PUSH2 0x791 CODESIZE SUB DUP1 PUSH2 0x791 DUP4 CODECOPY DUP2 ADD PUSH1 0x40 DUP2 SWAP1 MSTORE PUSH2 0x8F SWAP2 PUSH2 0x175 JUMP JUMPDEST PUSH1 0x1 DUP1 SLOAD PUSH1 0x1 PUSH1 0x1 PUSH1 0xA0 SHL SUB SWAP4 DUP5 AND PUSH1 0x1 PUSH1 0x1 PUSH1 0xA0 SHL SUB NOT SWAP2 DUP3 AND OR SWAP1 SWAP2 SSTORE PUSH1 0x2 DUP1 SLOAD SWAP3 SWAP1 SWAP4 AND SWAP2 AND OR SWAP1 SSTORE PUSH2 0x1E3 JUMP JUMPDEST DUP3 DUP1 SLOAD PUSH2 0xCC SWAP1 PUSH2 0x1A8 JUMP JUMPDEST SWAP1 PUSH1 0x0 MSTORE PUSH1 0x20 PUSH1 0x0 KECCAK256 SWAP1 PUSH1 0x1F ADD PUSH1 0x20 SWAP1 DIV DUP2 ADD SWAP3 DUP3 PUSH2 0xEE JUMPI PUSH1 0x0 DUP6 SSTORE PUSH2 0x134 JUMP JUMPDEST DUP3 PUSH1 0x1F LT PUSH2 0x107 JUMPI DUP1 MLOAD PUSH1 0xFF NOT AND DUP4 DUP1 ADD OR DUP6 SSTORE PUSH2 0x134 JUMP JUMPDEST DUP3 DUP1 ADD PUSH1 0x1 ADD DUP6 SSTORE DUP3 ISZERO PUSH2 0x134 JUMPI SWAP2 DUP3 ADD JUMPDEST DUP3 DUP2 GT ISZERO PUSH2 0x134 JUMPI DUP3 MLOAD DUP3 SSTORE SWAP2 PUSH1 0x20 ADD SWAP2 SWAP1 PUSH1 0x1 ADD SWAP1 PUSH2 0x119 JUMP JUMPDEST POP PUSH2 0x140 SWAP3 SWAP2 POP PUSH2 0x144 JUMP JUMPDEST POP SWAP1 JUMP JUMPDEST JUMPDEST DUP1 DUP3 GT ISZERO PUSH2 0x140 JUMPI PUSH1 0x0 DUP2 SSTORE PUSH1 0x1 ADD PUSH2 0x145 JUMP JUMPDEST DUP1 MLOAD PUSH1 0x1 PUSH1 0x1 PUSH1 0xA0 SHL SUB DUP2 AND DUP2 EQ PUSH2 0x170 JUMPI PUSH1 0x0 DUP1 REVERT JUMPDEST SWAP2 SWAP1 POP JUMP JUMPDEST PUSH1 0x0 DUP1 PUSH1 0x40 DUP4 DUP6 SUB SLT ISZERO PUSH2 0x188 JUMPI PUSH1 0x0 DUP1 REVERT JUMPDEST PUSH2 0x191 DUP4 PUSH2 0x159 JUMP JUMPDEST SWAP2 POP PUSH2 0x19F PUSH1 0x20 DUP5 ADD PUSH2 0x159 JUMP JUMPDEST SWAP1 POP SWAP3 POP SWAP3 SWAP1 POP JUMP JUMPDEST PUSH1 0x1 DUP2 DUP2 SHR SWAP1 DUP3 AND DUP1 PUSH2 0x1BC JUMPI PUSH1 0x7F DUP3 AND SWAP2 POP JUMPDEST PUSH1 0x20 DUP3 LT DUP2 EQ ISZERO PUSH2 0x1DD JUMPI PUSH4 0x4E487B71 PUSH1 0xE0 SHL PUSH1 0x0 MSTORE PUSH1 0x22 PUSH1 0x4 MSTORE PUSH1 0x24 PUSH1 0x0 REVERT JUMPDEST POP SWAP2 SWAP1 POP JUMP JUMPDEST PUSH2 0x59F DUP1 PUSH2 0x1F2 PUSH1 0x0 CODECOPY PUSH1 0x0 RETURN INVALID PUSH1 0x80 PUSH1 0x40 MSTORE CALLVALUE DUP1 ISZERO PUSH2 0x10 JUMPI PUSH1 0x0 DUP1 REVERT JUMPDEST POP PUSH1 0x4 CALLDATASIZE LT PUSH2 0x67 JUMPI PUSH1 0x0 CALLDATALOAD PUSH1 0xE0 SHR DUP1 PUSH4 0x79501BF6 GT PUSH2 0x50 JUMPI DUP1 PUSH4 0x79501BF6 EQ PUSH2 0xBF JUMPI DUP1 PUSH4 0x8DA5CB5B EQ PUSH2 0xD2 JUMPI DUP1 PUSH4 0xE125BCB5 EQ PUSH2 0xE5 JUMPI PUSH1 0x0 DUP1 REVERT JUMPDEST DUP1 PUSH4 0x6A1C4BE1 EQ PUSH2 0x6C JUMPI DUP1 PUSH4 0x73B39AB9 EQ PUSH2 0x9C JUMPI JUMPDEST PUSH1 0x0 DUP1 REVERT JUMPDEST PUSH1 0x1 SLOAD PUSH2 0x7F SWAP1 PUSH1 0x1 PUSH1 0x1 PUSH1 0xA0 SHL SUB AND DUP2 JUMP JUMPDEST PUSH1 0x40 MLOAD PUSH1 0x1 PUSH1 0x1 PUSH1 0xA0 SHL SUB SWAP1 SWAP2 AND DUP2 MSTORE PUSH1 0x20 ADD JUMPDEST PUSH1 0x40 MLOAD DUP1 SWAP2 SUB SWAP1 RETURN JUMPDEST PUSH2 0xAF PUSH2 0xAA CALLDATASIZE PUSH1 0x4 PUSH2 0x257 JUMP JUMPDEST PUSH2 0xF8 JUMP JUMPDEST PUSH1 0x40 MLOAD SWAP1 ISZERO ISZERO DUP2 MSTORE PUSH1 0x20 ADD PUSH2 0x93 JUMP JUMPDEST PUSH1 0x2 SLOAD PUSH2 0x7F SWAP1 PUSH1 0x1 PUSH1 0x1 PUSH1 0xA0 SHL SUB AND DUP2 JUMP JUMPDEST PUSH1 0x0 SLOAD PUSH2 0x7F SWAP1 PUSH1 0x1 PUSH1 0x1 PUSH1 0xA0 SHL SUB AND DUP2 JUMP JUMPDEST PUSH2 0xAF PUSH2 0xF3 CALLDATASIZE PUSH1 0x4 PUSH2 0x257 JUMP JUMPDEST PUSH2 0x1C5 JUMP JUMPDEST PUSH1 0x2 SLOAD PUSH1 0x40 MLOAD PUSH4 0x5802C3F7 PUSH1 0xE0 SHL DUP2 MSTORE PUSH1 0x0 SWAP2 PUSH1 0x1 PUSH1 0x1 PUSH1 0xA0 SHL SUB AND SWAP1 PUSH4 0x5802C3F7 SWAP1 PUSH2 0x132 SWAP1 DUP9 SWAP1 DUP9 SWAP1 DUP9 SWAP1 DUP9 SWAP1 PUSH1 0x3 SWAP1 PUSH1 0x4 ADD PUSH2 0x466 JUMP JUMPDEST PUSH1 0x20 PUSH1 0x40 MLOAD DUP1 DUP4 SUB DUP2 DUP7 DUP1 EXTCODESIZE ISZERO DUP1 ISZERO PUSH2 0x14A JUMPI PUSH1 0x0 DUP1 REVERT JUMPDEST POP GAS STATICCALL ISZERO DUP1 ISZERO PUSH2 0x15E JUMPI RETURNDATASIZE PUSH1 0x0 DUP1 RETURNDATACOPY RETURNDATASIZE PUSH1 0x0 REVERT JUMPDEST POP POP POP POP PUSH1 0x40 MLOAD RETURNDATASIZE PUSH1 0x1F NOT PUSH1 0x1F DUP3 ADD AND DUP3 ADD DUP1 PUSH1 0x40 MSTORE POP DUP2 ADD SWAP1 PUSH2 0x182 SWAP2 SWAP1 PUSH2 0x348 JUMP JUMPDEST ISZERO PUSH2 0x1B9 JUMPI POP PUSH1 0x0 DUP1 SLOAD PUSH32 0xFFFFFFFFFFFFFFFFFFFFFFFF0000000000000000000000000000000000000000 AND CALLER OR SWAP1 SSTORE PUSH1 0x1 PUSH2 0x1BD JUMP JUMPDEST POP PUSH1 0x0 JUMPDEST SWAP5 SWAP4 POP POP POP POP JUMP JUMPDEST PUSH1 0x1 SLOAD PUSH1 0x40 MLOAD PUSH4 0x5802C3F7 PUSH1 0xE0 SHL DUP2 MSTORE PUSH1 0x0 SWAP2 PUSH1 0x1 PUSH1 0x1 PUSH1 0xA0 SHL SUB AND SWAP1 PUSH4 0x5802C3F7 SWAP1 PUSH2 0x132 SWAP1 DUP9 SWAP1 DUP9 SWAP1 DUP9 SWAP1 DUP9 SWAP1 PUSH1 0x3 SWAP1 PUSH1 0x4 ADD PUSH2 0x466 JUMP JUMPDEST PUSH1 0x0 DUP3 PUSH1 0x1F DUP4 ADD SLT PUSH2 0x210 JUMPI PUSH1 0x0 DUP1 REVERT JUMPDEST PUSH2 0x218 PUSH2 0x500 JUMP JUMPDEST DUP1 DUP4 DUP6 PUSH1 0x40 DUP7 ADD GT ISZERO PUSH2 0x22A JUMPI PUSH1 0x0 DUP1 REVERT JUMPDEST PUSH1 0x0 JUMPDEST PUSH1 0x2 DUP2 LT ISZERO PUSH2 0x24C JUMPI DUP2 CALLDATALOAD DUP5 MSTORE PUSH1 0x20 SWAP4 DUP5 ADD SWAP4 SWAP1 SWAP2 ADD SWAP1 PUSH1 0x1 ADD PUSH2 0x22D JUMP JUMPDEST POP SWAP1 SWAP6 SWAP5 POP POP POP POP POP JUMP JUMPDEST PUSH1 0x0 DUP1 PUSH1 0x0 DUP1 PUSH2 0x220 DUP1 DUP7 DUP9 SUB SLT ISZERO PUSH2 0x26F JUMPI PUSH1 0x0 DUP1 REVERT JUMPDEST PUSH2 0x279 DUP8 DUP8 PUSH2 0x1FF JUMP JUMPDEST SWAP5 POP PUSH1 0x40 DUP8 PUSH1 0x5F DUP9 ADD SLT PUSH2 0x28C JUMPI PUSH1 0x0 DUP1 REVERT JUMPDEST PUSH2 0x294 PUSH2 0x500 JUMP JUMPDEST DUP1 DUP3 DUP10 ADD PUSH1 0xC0 DUP11 ADD DUP12 DUP2 GT ISZERO PUSH2 0x2A9 JUMPI PUSH1 0x0 DUP1 REVERT JUMPDEST PUSH1 0x0 JUMPDEST PUSH1 0x2 DUP2 LT ISZERO PUSH2 0x2D3 JUMPI PUSH2 0x2BF DUP14 DUP5 PUSH2 0x1FF JUMP JUMPDEST DUP6 MSTORE PUSH1 0x20 SWAP1 SWAP5 ADD SWAP4 SWAP2 DUP6 ADD SWAP2 PUSH1 0x1 ADD PUSH2 0x2AC JUMP JUMPDEST POP DUP3 SWAP9 POP PUSH2 0x2E1 DUP13 DUP3 PUSH2 0x1FF JUMP JUMPDEST SWAP8 POP POP POP POP POP POP DUP7 PUSH2 0x11F DUP8 ADD SLT PUSH2 0x2F8 JUMPI PUSH1 0x0 DUP1 REVERT JUMPDEST PUSH2 0x300 PUSH2 0x537 JUMP JUMPDEST DUP1 PUSH2 0x100 DUP9 ADD DUP10 DUP5 DUP11 ADD GT ISZERO PUSH2 0x315 JUMPI PUSH1 0x0 DUP1 REVERT JUMPDEST PUSH1 0x0 SWAP4 POP JUMPDEST PUSH1 0x9 DUP5 LT ISZERO PUSH2 0x33A JUMPI DUP1 CALLDATALOAD DUP4 MSTORE PUSH1 0x1 SWAP4 SWAP1 SWAP4 ADD SWAP3 PUSH1 0x20 SWAP3 DUP4 ADD SWAP3 ADD PUSH2 0x31A JUMP JUMPDEST POP SWAP6 SWAP9 SWAP5 SWAP8 POP SWAP3 SWAP6 POP POP POP POP JUMP JUMPDEST PUSH1 0x0 PUSH1 0x20 DUP3 DUP5 SUB SLT ISZERO PUSH2 0x35A JUMPI PUSH1 0x0 DUP1 REVERT JUMPDEST DUP2 MLOAD DUP1 ISZERO ISZERO DUP2 EQ PUSH2 0x36A JUMPI PUSH1 0x0 DUP1 REVERT JUMPDEST SWAP4 SWAP3 POP POP POP JUMP JUMPDEST DUP1 PUSH1 0x0 JUMPDEST PUSH1 0x2 DUP2 LT ISZERO PUSH2 0x394 JUMPI DUP2 MLOAD DUP5 MSTORE PUSH1 0x20 SWAP4 DUP5 ADD SWAP4 SWAP1 SWAP2 ADD SWAP1 PUSH1 0x1 ADD PUSH2 0x375 JUMP JUMPDEST POP POP POP POP JUMP JUMPDEST DUP1 SLOAD DUP3 MSTORE PUSH1 0x0 PUSH1 0x1 DUP1 DUP4 ADD SLOAD PUSH1 0x20 DUP2 DUP2 DUP8 ADD MSTORE PUSH1 0x2 DUP6 ADD SLOAD PUSH1 0x40 DUP8 ADD MSTORE PUSH1 0x3 DUP6 ADD SWAP2 POP PUSH1 0x80 PUSH1 0x60 DUP8 ADD MSTORE PUSH1 0x0 DUP3 SLOAD DUP2 DUP2 DUP7 SHR SWAP1 POP DUP6 DUP3 AND DUP1 PUSH2 0x3DD JUMPI PUSH1 0x7F DUP3 AND SWAP2 POP JUMPDEST DUP5 DUP3 LT DUP2 EQ ISZERO PUSH2 0x3FB JUMPI PUSH4 0x4E487B71 PUSH1 0xE0 SHL DUP5 MSTORE PUSH1 0x22 PUSH1 0x4 MSTORE PUSH1 0x24 DUP5 REVERT JUMPDEST PUSH1 0x80 DUP11 ADD DUP3 SWAP1 MSTORE PUSH1 0xA0 DUP11 ADD DUP2 DUP1 ISZERO PUSH2 0x41A JUMPI PUSH1 0x1 DUP2 EQ PUSH2 0x42B JUMPI PUSH2 0x456 JUMP JUMPDEST PUSH1 0xFF NOT DUP6 AND DUP3 MSTORE DUP7 DUP3 ADD SWAP6 POP PUSH2 0x456 JUMP JUMPDEST PUSH1 0x0 DUP9 DUP2 MSTORE PUSH1 0x20 SWAP1 KECCAK256 PUSH1 0x0 JUMPDEST DUP6 DUP2 LT ISZERO PUSH2 0x450 JUMPI DUP2 SLOAD DUP5 DUP3 ADD MSTORE SWAP1 DUP11 ADD SWAP1 DUP9 ADD PUSH2 0x437 JUMP JUMPDEST DUP4 ADD SWAP7 POP POP JUMPDEST POP SWAP4 SWAP11 SWAP10 POP POP POP POP POP POP POP POP POP POP JUMP JUMPDEST PUSH1 0x0 PUSH2 0x240 PUSH2 0x475 DUP4 DUP10 PUSH2 0x371 JUMP JUMPDEST PUSH1 0x40 DUP1 DUP5 ADD DUP9 PUSH1 0x0 JUMPDEST PUSH1 0x2 DUP2 LT ISZERO PUSH2 0x4A5 JUMPI PUSH2 0x492 DUP4 DUP4 MLOAD PUSH2 0x371 JUMP JUMPDEST SWAP2 DUP4 ADD SWAP2 PUSH1 0x20 SWAP2 SWAP1 SWAP2 ADD SWAP1 PUSH1 0x1 ADD PUSH2 0x47E JUMP JUMPDEST POP POP POP POP PUSH2 0x4B6 PUSH1 0xC0 DUP5 ADD DUP8 PUSH2 0x371 JUMP JUMPDEST PUSH2 0x100 DUP4 ADD DUP6 PUSH1 0x0 JUMPDEST PUSH1 0x9 DUP2 LT ISZERO PUSH2 0x4DE JUMPI DUP2 MLOAD DUP4 MSTORE PUSH1 0x20 SWAP3 DUP4 ADD SWAP3 SWAP1 SWAP2 ADD SWAP1 PUSH1 0x1 ADD PUSH2 0x4BF JUMP JUMPDEST POP POP POP DUP1 PUSH2 0x220 DUP5 ADD MSTORE PUSH2 0x4F4 DUP2 DUP5 ADD DUP6 PUSH2 0x39A JUMP JUMPDEST SWAP9 SWAP8 POP POP POP POP POP POP POP POP JUMP JUMPDEST PUSH1 0x40 DUP1 MLOAD SWAP1 DUP2 ADD PUSH8 0xFFFFFFFFFFFFFFFF DUP2 GT DUP3 DUP3 LT OR ISZERO PUSH2 0x531 JUMPI PUSH4 0x4E487B71 PUSH1 0xE0 SHL PUSH1 0x0 MSTORE PUSH1 0x41 PUSH1 0x4 MSTORE PUSH1 0x24 PUSH1 0x0 REVERT JUMPDEST PUSH1 0x40 MSTORE SWAP1 JUMP JUMPDEST PUSH1 0x40 MLOAD PUSH2 0x120 DUP2 ADD PUSH8 0xFFFFFFFFFFFFFFFF DUP2 GT DUP3 DUP3 LT OR ISZERO PUSH2 0x531 JUMPI PUSH4 0x4E487B71 PUSH1 0xE0 SHL PUSH1 0x0 MSTORE PUSH1 0x41 PUSH1 0x4 MSTORE PUSH1 0x24 PUSH1 0x0 REVERT INVALID LOG2 PUSH5 0x6970667358 0x22 SLT KECCAK256 DUP1 NUMBER 0xFC SLOAD PUSH4 0xB2B741F9 PUSH19 0x5606452A7BED5DEF6926A0C0E3A02BC367BF8D 0xEC SWAP1 0xFC PUSH5 0x736F6C6343 STOP ADDMOD SMOD STOP CALLER "},"methodIdentifiers":{"mtpValidator()":"6a1c4be1","owner()":"8da5cb5b","sigValidator()":"79501bf6","verifyMTP(uint256[2],uint256[2][2],uint256[2],uint256[9])":"e125bcb5","verifySig(uint256[2],uint256[2][2],uint256[2],uint256[9])":"73b39ab9"}},"storageLayout":{"storage":[{"astId":57,"contract":"contracts/test/TestValidator.sol:TestValidator","label":"owner","offset":0,"slot":"0","type":"t_address"},{"astId":60,"contract":"contracts/test/TestValidator.sol:TestValidator","label":"mtpValidator","offset":0,"slot":"1","type":"t_contract(IValidator)52"},{"astId":63,"contract":"contracts/test/TestValidator.sol:TestValidator","label":"sigValidator","offset":0,"slot":"2","type":"t_contract(IValidator)52"},{"astId":93,"contract":"contracts/test/TestValidator.sol:TestValidator","label":"query","offset":0,"slot":"3","type":"t_struct(Query)10_storage"}],"types":{"t_address":{"encoding":"inplace","label":"address","numberOfBytes":"20"},"t_contract(IValidator)52":{"encoding":"inplace","label":"contract IValidator","numberOfBytes":"20"},"t_string_storage":{"encoding":"bytes","label":"string","numberOfBytes":"32"},"t_struct(Query)10_storage":{"encoding":"inplace","label":"struct IValidator.Query","members":[{"astId":3,"contract":"contracts/test/TestValidator.sol:TestValidator","label":"deterministicValue","offset":0,"slot":"0","type":"t_uint256"},{"astId":5,"contract":"contracts/test/TestValidator.sol:TestValidator","label":"compactInput","offset":0,"slot":"1","type":"t_uint256"},{"astId":7,"contract":"contracts/test/TestValidator.sol:TestValidator","label":"mask","offset":0,"slot":"2","type":"t_uint256"},{"astId":9,"contract":"contracts/test/TestValidator.sol:TestValidator","label":"circuitId","offset":0,"slot":"3","type":"t_string_storage"}],"numberOfBytes":"128"},"t_uint256":{"encoding":"inplace","label":"uint256","numberOfBytes":"32"}}}}}}