{"contracts/validators/QueryMTPValidator.sol":{"QueryMTPValidator":{"abi":[{"anonymous":false,"inputs":[{"indexed":false,"internalType":"uint8","name":"version","type":"uint8"}],"name":"Initialized","type":"event"},{"anonymous":false,"inputs":[{"indexed":true,"internalType":"address","name":"previousOwner","type":"address"},{"indexed":true,"internalType":"address","name":"newOwner","type":"address"}],"name":"OwnershipTransferred","type":"event"},{"inputs":[],"name":"getChallengeInputIndex","outputs":[{"internalType":"uint256","name":"index","type":"uint256"}],"stateMutability":"pure","type":"function"},{"inputs":[],"name":"getCircuitId","outputs":[{"internalType":"string","name":"id","type":"string"}],"stateMutability":"pure","type":"function"},{"inputs":[],"name":"getUserIdInputIndex","outputs":[{"internalType":"uint256","name":"index","type":"uint256"}],"stateMutability":"pure","type":"function"},{"inputs":[{"internalType":"address","name":"_verifierContractAddress","type":"address"},{"internalType":"address","name":"_stateContractAddress","type":"address"}],"name":"initialize","outputs":[],"stateMutability":"nonpayable","type":"function"},{"inputs":[],"name":"owner","outputs":[{"internalType":"address","name":"","type":"address"}],"stateMutability":"view","type":"function"},{"inputs":[],"name":"renounceOwnership","outputs":[],"stateMutability":"nonpayable","type":"function"},{"inputs":[],"name":"revocationStateExpirationTime","outputs":[{"internalType":"uint256","name":"","type":"uint256"}],"stateMutability":"view","type":"function"},{"inputs":[{"internalType":"uint256","name":"expirationTime","type":"uint256"}],"name":"setRevocationStateExpirationTime","outputs":[],"stateMutability":"nonpayable","type":"function"},{"inputs":[],"name":"state","outputs":[{"internalType":"contract IState","name":"","type":"address"}],"stateMutability":"view","type":"function"},{"inputs":[{"internalType":"address","name":"newOwner","type":"address"}],"name":"transferOwnership","outputs":[],"stateMutability":"nonpayable","type":"function"},{"inputs":[],"name":"verifier","outputs":[{"internalType":"contract IQueryVerifier","name":"","type":"address"}],"stateMutability":"view","type":"function"},{"inputs":[{"internalType":"uint256[2]","name":"a","type":"uint256[2]"},{"internalType":"uint256[2][2]","name":"b","type":"uint256[2][2]"},{"internalType":"uint256[2]","name":"c","type":"uint256[2]"},{"internalType":"uint256[9]","name":"inputs","type":"uint256[9]"},{"components":[{"internalType":"uint256","name":"deterministicValue","type":"uint256"},{"internalType":"uint256","name":"compactInput","type":"uint256"},{"internalType":"uint256","name":"mask","type":"uint256"},{"internalType":"string","name":"circuitId","type":"string"}],"internalType":"struct IValidator.Query","name":"query","type":"tuple"}],"name":"verify","outputs":[{"internalType":"bool","name":"r","type":"bool"}],"stateMutability":"view","type":"function"}],"evm":{"bytecode":{"linkReferences":{},"object":"608060405234801561001057600080fd5b506116ca806100206000396000f3fe608060405234801561001057600080fd5b50600436106100d45760003560e01c80637b47323c11610081578063c19d93fb1161005b578063c19d93fb146101be578063e79ce794146101d1578063f2fde38b146101e457600080fd5b80637b47323c1461019f5780638da5cb5b146101a65780639f442afa146101b757600080fd5b80635802c3f7116100b25780635802c3f71461013557806359a2aeaa14610158578063715018a61461019757600080fd5b806323962482146100d95780632b7ac3f3146100f5578063485cc95514610120575b600080fd5b6100e260675481565b6040519081526020015b60405180910390f35b606554610108906001600160a01b031681565b6040516001600160a01b0390911681526020016100ec565b61013361012e366004611305565b6101f7565b005b610148610143366004611338565b610361565b60405190151581526020016100ec565b604080518082018252601581527f63726564656e7469616c41746f6d696351756572790000000000000000000000602082015290516100ec9190611567565b610133610bab565b60016100e2565b6033546001600160a01b0316610108565b60026100e2565b606654610108906001600160a01b031681565b6101336101df366004611430565b610bbf565b6101336101f23660046112e3565b610bcc565b600054610100900460ff16158080156102175750600054600160ff909116105b806102315750303b158015610231575060005460ff166001145b6102a85760405162461bcd60e51b815260206004820152602e60248201527f496e697469616c697a61626c653a20636f6e747261637420697320616c72656160448201527f647920696e697469616c697a656400000000000000000000000000000000000060648201526084015b60405180910390fd5b6000805460ff1916600117905580156102cb576000805461ff0019166101001790555b610e10606755606580546001600160a01b0380861673ffffffffffffffffffffffffffffffffffffffff19928316179092556066805492851692909116919091179055610316610c5c565b801561035c576000805461ff0019169055604051600181527f7f26b83ff96e1f2b6a682f133852f6798a09c465da95921460cefb38474024989060200160405180910390a15b505050565b6040805180820190915260108152600060208201819052908161038a8560066020020151610ccf565b9050600061039a82601080610cf9565b90506103a68382610e21565b905060006103b5826020015190565b9050856020015181146104305760405162461bcd60e51b815260206004820152603660248201527f77726f6e6720636f6d7061637420696e70757420686173206265656e2075736560448201527f6420666f722070726f6f662067656e65726174696f6e00000000000000000000606482015260840161029f565b5050835160e08601511491506104b090505760405162461bcd60e51b815260206004820152603c60248201527f77726f6e672064657465726d696e69737469632076616c75652068617320626560448201527f656e207573656420666f722070726f6f662067656e65726174696f6e00000000606482015260840161029f565b60408201516101008401511461052e5760405162461bcd60e51b815260206004820152602d60248201527f77726f6e67206d61736b20686173206265656e207573656420666f722070726f60448201527f6f662067656e65726174696f6e00000000000000000000000000000000000000606482015260840161029f565b825160208401516060850151608086015160a087015160665460405163089935e560e31b8152600481018790526000916001600160a01b0316906344c9af289060240160206040518083038186803b15801561058957600080fd5b505afa15801561059d573d6000803e3d6000fd5b505050506040513d601f19601f820116820180604052508101906105c19190611449565b905080610649576105d28686610e9e565b6106445760405162461bcd60e51b815260206004820152602e60248201527f557365722073746174652069736e27742067656e65736973206e6f7220696e2060448201527f737461746520636f6e7472616374000000000000000000000000000000000000606482015260840161029f565b610698565b8481146106985760405162461bcd60e51b815260206004820152601760248201527f557365722073746174652069736e2774206c6174657374000000000000000000604482015260640161029f565b60006106a48486610e9e565b9050806107a65760665460405163bb79571560e01b8152600481018790526000916001600160a01b03169063bb7957159060240160c06040518083038186803b1580156106f057600080fd5b505afa158015610704573d6000803e3d6000fd5b505050506040513d601f19601f820116820180604052508101906107289190611462565b509450505050508085146107a45760405162461bcd60e51b815260206004820152602660248201527f49737375657220737461746520646f65736e277420657869737420696e20636f60448201527f6e74726163740000000000000000000000000000000000000000000000000000606482015260840161029f565b505b60665460405163089935e560e31b8152600481018690526000916001600160a01b0316906344c9af289060240160206040518083038186803b1580156107eb57600080fd5b505afa1580156107ff573d6000803e3d6000fd5b505050506040513d601f19601f820116820180604052508101906108239190611449565b9050806108ab576108348587610e9e565b6108a65760405162461bcd60e51b815260206004820152603860248201527f4e6f6e2d5265766f636174696f6e2073746174652069736e27742067656e657360448201527f6973206e6f7220696e20737461746520636f6e74726163740000000000000000606482015260840161029f565b610ab4565b838114610ab45760665460405163bb79571560e01b81526004810186905260009182916001600160a01b039091169063bb7957159060240160c06040518083038186803b1580156108fb57600080fd5b505afa15801561090f573d6000803e3d6000fd5b505050506040513d601f19601f820116820180604052508101906109339190611462565b5094505050509150806000148061094a5750868114155b156109bd5760405162461bcd60e51b815260206004820152602c60248201527f737461746520696e207472616e736974696f6e20696e666f20636f6e7461696e60448201527f7320696e76616c69642069640000000000000000000000000000000000000000606482015260840161029f565b81610a305760405162461bcd60e51b815260206004820152603860248201527f4e6f6e2d6c617465737420737461746520646f65736e277420636f6e7461696e60448201527f207265706c6163656d656e7420696e666f726d6174696f6e0000000000000000606482015260840161029f565b606754610a3d8342611651565b1115610ab15760405162461bcd60e51b815260206004820152602360248201527f497373756572206e6f6e2d7265766f636174696f6e207374617465206578706960448201527f7265640000000000000000000000000000000000000000000000000000000000606482015260840161029f565b50505b606560009054906101000a90046001600160a01b03166001600160a01b031663c542c93b8f8f8f8f6040518563ffffffff1660e01b8152600401610afb94939291906114e3565b60206040518083038186803b158015610b1357600080fd5b505afa158015610b27573d6000803e3d6000fd5b505050506040513d601f19601f82011682018060405250810190610b4b919061140e565b610b975760405162461bcd60e51b815260206004820152600d60248201527f4d5450206e6f742076616c696400000000000000000000000000000000000000604482015260640161029f565b5060019d9c50505050505050505050505050565b610bb3610ec3565b610bbd6000610f1d565b565b610bc7610ec3565b606755565b610bd4610ec3565b6001600160a01b038116610c505760405162461bcd60e51b815260206004820152602660248201527f4f776e61626c653a206e6577206f776e657220697320746865207a65726f206160448201527f6464726573730000000000000000000000000000000000000000000000000000606482015260840161029f565b610c5981610f1d565b50565b600054610100900460ff16610cc75760405162461bcd60e51b815260206004820152602b60248201527f496e697469616c697a61626c653a20636f6e7472616374206973206e6f74206960448201526a6e697469616c697a696e6760a81b606482015260840161029f565b610bbd610f7c565b60408051602080825281830190925260609160208201818036833750505060208101929092525090565b606081610d0781601f611639565b1015610d555760405162461bcd60e51b815260206004820152600e60248201527f736c6963655f6f766572666c6f77000000000000000000000000000000000000604482015260640161029f565b610d5f8284611639565b84511015610daf5760405162461bcd60e51b815260206004820152601160248201527f736c6963655f6f75744f66426f756e6473000000000000000000000000000000604482015260640161029f565b606082158015610dce5760405191506000825260208201604052610e18565b6040519150601f8416801560200281840101858101878315602002848b0101015b81831015610e07578051835260209283019201610def565b5050858452601f01601f1916604052505b50949350505050565b6060806040519050835180825260208201818101602087015b81831015610e52578051835260209283019201610e3a565b50855184518101855292509050808201602086015b81831015610e7f578051835260209283019201610e67565b508651929092011591909101601f01601f191660405250905092915050565b600080610eaa83610ff0565b90506000610eb78561108e565b91909114949350505050565b6033546001600160a01b03163314610bbd5760405162461bcd60e51b815260206004820181905260248201527f4f776e61626c653a2063616c6c6572206973206e6f7420746865206f776e6572604482015260640161029f565b603380546001600160a01b0383811673ffffffffffffffffffffffffffffffffffffffff19831681179093556040519116919082907f8be0079c531659141344cd1fd0a4f28419497f9722a3daafe3b4186f6b6457e090600090a35050565b600054610100900460ff16610fe75760405162461bcd60e51b815260206004820152602b60248201527f496e697469616c697a61626c653a20636f6e7472616374206973206e6f74206960448201526a6e697469616c697a696e6760a81b606482015260840161029f565b610bbd33610f1d565b600080610ffc83610ccf565b9050600061100d826000601d610cf9565b60408051808201909152600381526000602082015290915061102f8183610e21565b915081516020146110825760405162461bcd60e51b815260206004820152601760248201527f496e76616c6964206375745374617465206c656e677468000000000000000000604482015260640161029f565b50602001519392505050565b60008061109a83610ccf565b905060006110ab826001601d610cf9565b6040805180820190915260038152600060208201529091506110cd8183610e21565b915081516020146110825760405162461bcd60e51b815260206004820152601460248201527f496e76616c6964206375744964206c656e677468000000000000000000000000604482015260640161029f565b80356001600160a01b038116811461113757600080fd5b919050565b600082601f83011261114d57600080fd5b6111556115e5565b80838560408601111561116757600080fd5b60005b600281101561118957813584526020938401939091019060010161116a565b509095945050505050565b600082601f8301126111a557600080fd5b60405161012080820182811067ffffffffffffffff821117156111ca576111ca61167e565b60405281848281018710156111de57600080fd5b600092505b6009831015611203578035825260019290920191602091820191016111e3565b509195945050505050565b60006080828403121561122057600080fd5b6112286115bc565b9050813581526020808301358183015260408301356040830152606083013567ffffffffffffffff8082111561125d57600080fd5b818501915085601f83011261127157600080fd5b8135818111156112835761128361167e565b611295601f8201601f19168501611608565b915080825286848285010111156112ab57600080fd5b808484018584013760008482840101525080606085015250505092915050565b805167ffffffffffffffff8116811461113757600080fd5b6000602082840312156112f557600080fd5b6112fe82611120565b9392505050565b6000806040838503121561131857600080fd5b61132183611120565b915061132f60208401611120565b90509250929050565b6000806000806000610240868803121561135157600080fd5b61135b878761113c565b9450604087605f88011261136e57600080fd5b6113766115e5565b8082890160c08a018b81111561138b57600080fd5b60005b60028110156113b5576113a18d8461113c565b85526020909401939185019160010161138e565b508298506113c38c8261113c565b975050505050506113d8876101008801611194565b915061022086013567ffffffffffffffff8111156113f557600080fd5b6114018882890161120e565b9150509295509295909350565b60006020828403121561142057600080fd5b815180151581146112fe57600080fd5b60006020828403121561144257600080fd5b5035919050565b60006020828403121561145b57600080fd5b5051919050565b60008060008060008060c0878903121561147b57600080fd5b8651955060208701519450611492604088016112cb565b93506114a0606088016112cb565b92506080870151915060a087015190509295509295509295565b8060005b60028110156114dd5781518452602093840193909101906001016114be565b50505050565b61022081016114f282876114ba565b60408083018660005b60028110156115225761150f8383516114ba565b91830191602091909101906001016114fb565b5050505061153360c08301856114ba565b61010082018360005b600981101561155b57815183526020928301929091019060010161153c565b50505095945050505050565b600060208083528351808285015260005b8181101561159457858101830151858201604001528201611578565b818111156115a6576000604083870101525b50601f01601f1916929092016040019392505050565b6040516080810167ffffffffffffffff811182821017156115df576115df61167e565b60405290565b6040805190810167ffffffffffffffff811182821017156115df576115df61167e565b604051601f8201601f1916810167ffffffffffffffff811182821017156116315761163161167e565b604052919050565b6000821982111561164c5761164c611668565b500190565b60008282101561166357611663611668565b500390565b634e487b7160e01b600052601160045260246000fd5b634e487b7160e01b600052604160045260246000fdfea2646970667358221220ddf3bc7f6c2c2b7f6641d8b3285ea47498f9d500df3a0a4ade0aa19578c6f67164736f6c63430008070033","opcodes":"PUSH1 0x80 PUSH1 0x40 MSTORE CALLVALUE DUP1 ISZERO PUSH2 0x10 JUMPI PUSH1 0x0 DUP1 REVERT JUMPDEST POP PUSH2 0x16CA DUP1 PUSH2 0x20 PUSH1 0x0 CODECOPY PUSH1 0x0 RETURN INVALID PUSH1 0x80 PUSH1 0x40 MSTORE CALLVALUE DUP1 ISZERO PUSH2 0x10 JUMPI PUSH1 0x0 DUP1 REVERT JUMPDEST POP PUSH1 0x4 CALLDATASIZE LT PUSH2 0xD4 JUMPI PUSH1 0x0 CALLDATALOAD PUSH1 0xE0 SHR DUP1 PUSH4 0x7B47323C GT PUSH2 0x81 JUMPI DUP1 PUSH4 0xC19D93FB GT PUSH2 0x5B JUMPI DUP1 PUSH4 0xC19D93FB EQ PUSH2 0x1BE JUMPI DUP1 PUSH4 0xE79CE794 EQ PUSH2 0x1D1 JUMPI DUP1 PUSH4 0xF2FDE38B EQ PUSH2 0x1E4 JUMPI PUSH1 0x0 DUP1 REVERT JUMPDEST DUP1 PUSH4 0x7B47323C EQ PUSH2 0x19F JUMPI DUP1 PUSH4 0x8DA5CB5B EQ PUSH2 0x1A6 JUMPI DUP1 PUSH4 0x9F442AFA EQ PUSH2 0x1B7 JUMPI PUSH1 0x0 DUP1 REVERT JUMPDEST DUP1 PUSH4 0x5802C3F7 GT PUSH2 0xB2 JUMPI DUP1 PUSH4 0x5802C3F7 EQ PUSH2 0x135 JUMPI DUP1 PUSH4 0x59A2AEAA EQ PUSH2 0x158 JUMPI DUP1 PUSH4 0x715018A6 EQ PUSH2 0x197 JUMPI PUSH1 0x0 DUP1 REVERT JUMPDEST DUP1 PUSH4 0x23962482 EQ PUSH2 0xD9 JUMPI DUP1 PUSH4 0x2B7AC3F3 EQ PUSH2 0xF5 JUMPI DUP1 PUSH4 0x485CC955 EQ PUSH2 0x120 JUMPI JUMPDEST PUSH1 0x0 DUP1 REVERT JUMPDEST PUSH2 0xE2 PUSH1 0x67 SLOAD DUP2 JUMP JUMPDEST PUSH1 0x40 MLOAD SWAP1 DUP2 MSTORE PUSH1 0x20 ADD JUMPDEST PUSH1 0x40 MLOAD DUP1 SWAP2 SUB SWAP1 RETURN JUMPDEST PUSH1 0x65 SLOAD PUSH2 0x108 SWAP1 PUSH1 0x1 PUSH1 0x1 PUSH1 0xA0 SHL SUB AND DUP2 JUMP JUMPDEST PUSH1 0x40 MLOAD PUSH1 0x1 PUSH1 0x1 PUSH1 0xA0 SHL SUB SWAP1 SWAP2 AND DUP2 MSTORE PUSH1 0x20 ADD PUSH2 0xEC JUMP JUMPDEST PUSH2 0x133 PUSH2 0x12E CALLDATASIZE PUSH1 0x4 PUSH2 0x1305 JUMP JUMPDEST PUSH2 0x1F7 JUMP JUMPDEST STOP JUMPDEST PUSH2 0x148 PUSH2 0x143 CALLDATASIZE PUSH1 0x4 PUSH2 0x1338 JUMP JUMPDEST PUSH2 0x361 JUMP JUMPDEST PUSH1 0x40 MLOAD SWAP1 ISZERO ISZERO DUP2 MSTORE PUSH1 0x20 ADD PUSH2 0xEC JUMP JUMPDEST PUSH1 0x40 DUP1 MLOAD DUP1 DUP3 ADD DUP3 MSTORE PUSH1 0x15 DUP2 MSTORE PUSH32 0x63726564656E7469616C41746F6D696351756572790000000000000000000000 PUSH1 0x20 DUP3 ADD MSTORE SWAP1 MLOAD PUSH2 0xEC SWAP2 SWAP1 PUSH2 0x1567 JUMP JUMPDEST PUSH2 0x133 PUSH2 0xBAB JUMP JUMPDEST PUSH1 0x1 PUSH2 0xE2 JUMP JUMPDEST PUSH1 0x33 SLOAD PUSH1 0x1 PUSH1 0x1 PUSH1 0xA0 SHL SUB AND PUSH2 0x108 JUMP JUMPDEST PUSH1 0x2 PUSH2 0xE2 JUMP JUMPDEST PUSH1 0x66 SLOAD PUSH2 0x108 SWAP1 PUSH1 0x1 PUSH1 0x1 PUSH1 0xA0 SHL SUB AND DUP2 JUMP JUMPDEST PUSH2 0x133 PUSH2 0x1DF CALLDATASIZE PUSH1 0x4 PUSH2 0x1430 JUMP JUMPDEST PUSH2 0xBBF JUMP JUMPDEST PUSH2 0x133 PUSH2 0x1F2 CALLDATASIZE PUSH1 0x4 PUSH2 0x12E3 JUMP JUMPDEST PUSH2 0xBCC JUMP JUMPDEST PUSH1 0x0 SLOAD PUSH2 0x100 SWAP1 DIV PUSH1 0xFF AND ISZERO DUP1 DUP1 ISZERO PUSH2 0x217 JUMPI POP PUSH1 0x0 SLOAD PUSH1 0x1 PUSH1 0xFF SWAP1 SWAP2 AND LT JUMPDEST DUP1 PUSH2 0x231 JUMPI POP ADDRESS EXTCODESIZE ISZERO DUP1 ISZERO PUSH2 0x231 JUMPI POP PUSH1 0x0 SLOAD PUSH1 0xFF AND PUSH1 0x1 EQ JUMPDEST PUSH2 0x2A8 JUMPI PUSH1 0x40 MLOAD PUSH3 0x461BCD PUSH1 0xE5 SHL DUP2 MSTORE PUSH1 0x20 PUSH1 0x4 DUP3 ADD MSTORE PUSH1 0x2E PUSH1 0x24 DUP3 ADD MSTORE PUSH32 0x496E697469616C697A61626C653A20636F6E747261637420697320616C726561 PUSH1 0x44 DUP3 ADD MSTORE PUSH32 0x647920696E697469616C697A6564000000000000000000000000000000000000 PUSH1 0x64 DUP3 ADD MSTORE PUSH1 0x84 ADD JUMPDEST PUSH1 0x40 MLOAD DUP1 SWAP2 SUB SWAP1 REVERT JUMPDEST PUSH1 0x0 DUP1 SLOAD PUSH1 0xFF NOT AND PUSH1 0x1 OR SWAP1 SSTORE DUP1 ISZERO PUSH2 0x2CB JUMPI PUSH1 0x0 DUP1 SLOAD PUSH2 0xFF00 NOT AND PUSH2 0x100 OR SWAP1 SSTORE JUMPDEST PUSH2 0xE10 PUSH1 0x67 SSTORE PUSH1 0x65 DUP1 SLOAD PUSH1 0x1 PUSH1 0x1 PUSH1 0xA0 SHL SUB DUP1 DUP7 AND PUSH20 0xFFFFFFFFFFFFFFFFFFFFFFFFFFFFFFFFFFFFFFFF NOT SWAP3 DUP4 AND OR SWAP1 SWAP3 SSTORE PUSH1 0x66 DUP1 SLOAD SWAP3 DUP6 AND SWAP3 SWAP1 SWAP2 AND SWAP2 SWAP1 SWAP2 OR SWAP1 SSTORE PUSH2 0x316 PUSH2 0xC5C JUMP JUMPDEST DUP1 ISZERO PUSH2 0x35C JUMPI PUSH1 0x0 DUP1 SLOAD PUSH2 0xFF00 NOT AND SWAP1 SSTORE PUSH1 0x40 MLOAD PUSH1 0x1 DUP2 MSTORE PUSH32 0x7F26B83FF96E1F2B6A682F133852F6798A09C465DA95921460CEFB3847402498 SWAP1 PUSH1 0x20 ADD PUSH1 0x40 MLOAD DUP1 SWAP2 SUB SWAP1 LOG1 JUMPDEST POP POP POP JUMP JUMPDEST PUSH1 0x40 DUP1 MLOAD DUP1 DUP3 ADD SWAP1 SWAP2 MSTORE PUSH1 0x10 DUP2 MSTORE PUSH1 0x0 PUSH1 0x20 DUP3 ADD DUP2 SWAP1 MSTORE SWAP1 DUP2 PUSH2 0x38A DUP6 PUSH1 0x6 PUSH1 0x20 MUL ADD MLOAD PUSH2 0xCCF JUMP JUMPDEST SWAP1 POP PUSH1 0x0 PUSH2 0x39A DUP3 PUSH1 0x10 DUP1 PUSH2 0xCF9 JUMP JUMPDEST SWAP1 POP PUSH2 0x3A6 DUP4 DUP3 PUSH2 0xE21 JUMP JUMPDEST SWAP1 POP PUSH1 0x0 PUSH2 0x3B5 DUP3 PUSH1 0x20 ADD MLOAD SWAP1 JUMP JUMPDEST SWAP1 POP DUP6 PUSH1 0x20 ADD MLOAD DUP2 EQ PUSH2 0x430 JUMPI PUSH1 0x40 MLOAD PUSH3 0x461BCD PUSH1 0xE5 SHL DUP2 MSTORE PUSH1 0x20 PUSH1 0x4 DUP3 ADD MSTORE PUSH1 0x36 PUSH1 0x24 DUP3 ADD MSTORE PUSH32 0x77726F6E6720636F6D7061637420696E70757420686173206265656E20757365 PUSH1 0x44 DUP3 ADD MSTORE PUSH32 0x6420666F722070726F6F662067656E65726174696F6E00000000000000000000 PUSH1 0x64 DUP3 ADD MSTORE PUSH1 0x84 ADD PUSH2 0x29F JUMP JUMPDEST POP POP DUP4 MLOAD PUSH1 0xE0 DUP7 ADD MLOAD EQ SWAP2 POP PUSH2 0x4B0 SWAP1 POP JUMPI PUSH1 0x40 MLOAD PUSH3 0x461BCD PUSH1 0xE5 SHL DUP2 MSTORE PUSH1 0x20 PUSH1 0x4 DUP3 ADD MSTORE PUSH1 0x3C PUSH1 0x24 DUP3 ADD MSTORE PUSH32 0x77726F6E672064657465726D696E69737469632076616C756520686173206265 PUSH1 0x44 DUP3 ADD MSTORE PUSH32 0x656E207573656420666F722070726F6F662067656E65726174696F6E00000000 PUSH1 0x64 DUP3 ADD MSTORE PUSH1 0x84 ADD PUSH2 0x29F JUMP JUMPDEST PUSH1 0x40 DUP3 ADD MLOAD PUSH2 0x100 DUP5 ADD MLOAD EQ PUSH2 0x52E JUMPI PUSH1 0x40 MLOAD PUSH3 0x461BCD PUSH1 0xE5 SHL DUP2 MSTORE PUSH1 0x20 PUSH1 0x4 DUP3 ADD MSTORE PUSH1 0x2D PUSH1 0x24 DUP3 ADD MSTORE PUSH32 0x77726F6E67206D61736B20686173206265656E207573656420666F722070726F PUSH1 0x44 DUP3 ADD MSTORE PUSH32 0x6F662067656E65726174696F6E00000000000000000000000000000000000000 PUSH1 0x64 DUP3 ADD MSTORE PUSH1 0x84 ADD PUSH2 0x29F JUMP JUMPDEST DUP3 MLOAD PUSH1 0x20 DUP5 ADD MLOAD PUSH1 0x60 DUP6 ADD MLOAD PUSH1 0x80 DUP7 ADD MLOAD PUSH1 0xA0 DUP8 ADD MLOAD PUSH1 0x66 SLOAD PUSH1 0x40 MLOAD PUSH4 0x89935E5 PUSH1 0xE3 SHL DUP2 MSTORE PUSH1 0x4 DUP2 ADD DUP8 SWAP1 MSTORE PUSH1 0x0 SWAP2 PUSH1 0x1 PUSH1 0x1 PUSH1 0xA0 SHL SUB AND SWAP1 PUSH4 0x44C9AF28 SWAP1 PUSH1 0x24 ADD PUSH1 0x20 PUSH1 0x40 MLOAD DUP1 DUP4 SUB DUP2 DUP7 DUP1 EXTCODESIZE ISZERO DUP1 ISZERO PUSH2 0x589 JUMPI PUSH1 0x0 DUP1 REVERT JUMPDEST POP GAS STATICCALL ISZERO DUP1 ISZERO PUSH2 0x59D JUMPI RETURNDATASIZE PUSH1 0x0 DUP1 RETURNDATACOPY RETURNDATASIZE PUSH1 0x0 REVERT JUMPDEST POP POP POP POP PUSH1 0x40 MLOAD RETURNDATASIZE PUSH1 0x1F NOT PUSH1 0x1F DUP3 ADD AND DUP3 ADD DUP1 PUSH1 0x40 MSTORE POP DUP2 ADD SWAP1 PUSH2 0x5C1 SWAP2 SWAP1 PUSH2 0x1449 JUMP JUMPDEST SWAP1 POP DUP1 PUSH2 0x649 JUMPI PUSH2 0x5D2 DUP7 DUP7 PUSH2 0xE9E JUMP JUMPDEST PUSH2 0x644 JUMPI PUSH1 0x40 MLOAD PUSH3 0x461BCD PUSH1 0xE5 SHL DUP2 MSTORE PUSH1 0x20 PUSH1 0x4 DUP3 ADD MSTORE PUSH1 0x2E PUSH1 0x24 DUP3 ADD MSTORE PUSH32 0x557365722073746174652069736E27742067656E65736973206E6F7220696E20 PUSH1 0x44 DUP3 ADD MSTORE PUSH32 0x737461746520636F6E7472616374000000000000000000000000000000000000 PUSH1 0x64 DUP3 ADD MSTORE PUSH1 0x84 ADD PUSH2 0x29F JUMP JUMPDEST PUSH2 0x698 JUMP JUMPDEST DUP5 DUP2 EQ PUSH2 0x698 JUMPI PUSH1 0x40 MLOAD PUSH3 0x461BCD PUSH1 0xE5 SHL DUP2 MSTORE PUSH1 0x20 PUSH1 0x4 DUP3 ADD MSTORE PUSH1 0x17 PUSH1 0x24 DUP3 ADD MSTORE PUSH32 0x557365722073746174652069736E2774206C6174657374000000000000000000 PUSH1 0x44 DUP3 ADD MSTORE PUSH1 0x64 ADD PUSH2 0x29F JUMP JUMPDEST PUSH1 0x0 PUSH2 0x6A4 DUP5 DUP7 PUSH2 0xE9E JUMP JUMPDEST SWAP1 POP DUP1 PUSH2 0x7A6 JUMPI PUSH1 0x66 SLOAD PUSH1 0x40 MLOAD PUSH4 0xBB795715 PUSH1 0xE0 SHL DUP2 MSTORE PUSH1 0x4 DUP2 ADD DUP8 SWAP1 MSTORE PUSH1 0x0 SWAP2 PUSH1 0x1 PUSH1 0x1 PUSH1 0xA0 SHL SUB AND SWAP1 PUSH4 0xBB795715 SWAP1 PUSH1 0x24 ADD PUSH1 0xC0 PUSH1 0x40 MLOAD DUP1 DUP4 SUB DUP2 DUP7 DUP1 EXTCODESIZE ISZERO DUP1 ISZERO PUSH2 0x6F0 JUMPI PUSH1 0x0 DUP1 REVERT JUMPDEST POP GAS STATICCALL ISZERO DUP1 ISZERO PUSH2 0x704 JUMPI RETURNDATASIZE PUSH1 0x0 DUP1 RETURNDATACOPY RETURNDATASIZE PUSH1 0x0 REVERT JUMPDEST POP POP POP POP PUSH1 0x40 MLOAD RETURNDATASIZE PUSH1 0x1F NOT PUSH1 0x1F DUP3 ADD AND DUP3 ADD DUP1 PUSH1 0x40 MSTORE POP DUP2 ADD SWAP1 PUSH2 0x728 SWAP2 SWAP1 PUSH2 0x1462 JUMP JUMPDEST POP SWAP5 POP POP POP POP POP DUP1 DUP6 EQ PUSH2 0x7A4 JUMPI PUSH1 0x40 MLOAD PUSH3 0x461BCD PUSH1 0xE5 SHL DUP2 MSTORE PUSH1 0x20 PUSH1 0x4 DUP3 ADD MSTORE PUSH1 0x26 PUSH1 0x24 DUP3 ADD MSTORE PUSH32 0x49737375657220737461746520646F65736E277420657869737420696E20636F PUSH1 0x44 DUP3 ADD MSTORE PUSH32 0x6E74726163740000000000000000000000000000000000000000000000000000 PUSH1 0x64 DUP3 ADD MSTORE PUSH1 0x84 ADD PUSH2 0x29F JUMP JUMPDEST POP JUMPDEST PUSH1 0x66 SLOAD PUSH1 0x40 MLOAD PUSH4 0x89935E5 PUSH1 0xE3 SHL DUP2 MSTORE PUSH1 0x4 DUP2 ADD DUP7 SWAP1 MSTORE PUSH1 0x0 SWAP2 PUSH1 0x1 PUSH1 0x1 PUSH1 0xA0 SHL SUB AND SWAP1 PUSH4 0x44C9AF28 SWAP1 PUSH1 0x24 ADD PUSH1 0x20 PUSH1 0x40 MLOAD DUP1 DUP4 SUB DUP2 DUP7 DUP1 EXTCODESIZE ISZERO DUP1 ISZERO PUSH2 0x7EB JUMPI PUSH1 0x0 DUP1 REVERT JUMPDEST POP GAS STATICCALL ISZERO DUP1 ISZERO PUSH2 0x7FF JUMPI RETURNDATASIZE PUSH1 0x0 DUP1 RETURNDATACOPY RETURNDATASIZE PUSH1 0x0 REVERT JUMPDEST POP POP POP POP PUSH1 0x40 MLOAD RETURNDATASIZE PUSH1 0x1F NOT PUSH1 0x1F DUP3 ADD AND DUP3 ADD DUP1 PUSH1 0x40 MSTORE POP DUP2 ADD SWAP1 PUSH2 0x823 SWAP2 SWAP1 PUSH2 0x1449 JUMP JUMPDEST SWAP1 POP DUP1 PUSH2 0x8AB JUMPI PUSH2 0x834 DUP6 DUP8 PUSH2 0xE9E JUMP JUMPDEST PUSH2 0x8A6 JUMPI PUSH1 0x40 MLOAD PUSH3 0x461BCD PUSH1 0xE5 SHL DUP2 MSTORE PUSH1 0x20 PUSH1 0x4 DUP3 ADD MSTORE PUSH1 0x38 PUSH1 0x24 DUP3 ADD MSTORE PUSH32 0x4E6F6E2D5265766F636174696F6E2073746174652069736E27742067656E6573 PUSH1 0x44 DUP3 ADD MSTORE PUSH32 0x6973206E6F7220696E20737461746520636F6E74726163740000000000000000 PUSH1 0x64 DUP3 ADD MSTORE PUSH1 0x84 ADD PUSH2 0x29F JUMP JUMPDEST PUSH2 0xAB4 JUMP JUMPDEST DUP4 DUP2 EQ PUSH2 0xAB4 JUMPI PUSH1 0x66 SLOAD PUSH1 0x40 MLOAD PUSH4 0xBB795715 PUSH1 0xE0 SHL DUP2 MSTORE PUSH1 0x4 DUP2 ADD DUP7 SWAP1 MSTORE PUSH1 0x0 SWAP2 DUP3 SWAP2 PUSH1 0x1 PUSH1 0x1 PUSH1 0xA0 SHL SUB SWAP1 SWAP2 AND SWAP1 PUSH4 0xBB795715 SWAP1 PUSH1 0x24 ADD PUSH1 0xC0 PUSH1 0x40 MLOAD DUP1 DUP4 SUB DUP2 DUP7 DUP1 EXTCODESIZE ISZERO DUP1 ISZERO PUSH2 0x8FB JUMPI PUSH1 0x0 DUP1 REVERT JUMPDEST POP GAS STATICCALL ISZERO DUP1 ISZERO PUSH2 0x90F JUMPI RETURNDATASIZE PUSH1 0x0 DUP1 RETURNDATACOPY RETURNDATASIZE PUSH1 0x0 REVERT JUMPDEST POP POP POP POP PUSH1 0x40 MLOAD RETURNDATASIZE PUSH1 0x1F NOT PUSH1 0x1F DUP3 ADD AND DUP3 ADD DUP1 PUSH1 0x40 MSTORE POP DUP2 ADD SWAP1 PUSH2 0x933 SWAP2 SWAP1 PUSH2 0x1462 JUMP JUMPDEST POP SWAP5 POP POP POP POP SWAP2 POP DUP1 PUSH1 0x0 EQ DUP1 PUSH2 0x94A JUMPI POP DUP7 DUP2 EQ ISZERO JUMPDEST ISZERO PUSH2 0x9BD JUMPI PUSH1 0x40 MLOAD PUSH3 0x461BCD PUSH1 0xE5 SHL DUP2 MSTORE PUSH1 0x20 PUSH1 0x4 DUP3 ADD MSTORE PUSH1 0x2C PUSH1 0x24 DUP3 ADD MSTORE PUSH32 0x737461746520696E207472616E736974696F6E20696E666F20636F6E7461696E PUSH1 0x44 DUP3 ADD MSTORE PUSH32 0x7320696E76616C69642069640000000000000000000000000000000000000000 PUSH1 0x64 DUP3 ADD MSTORE PUSH1 0x84 ADD PUSH2 0x29F JUMP JUMPDEST DUP2 PUSH2 0xA30 JUMPI PUSH1 0x40 MLOAD PUSH3 0x461BCD PUSH1 0xE5 SHL DUP2 MSTORE PUSH1 0x20 PUSH1 0x4 DUP3 ADD MSTORE PUSH1 0x38 PUSH1 0x24 DUP3 ADD MSTORE PUSH32 0x4E6F6E2D6C617465737420737461746520646F65736E277420636F6E7461696E PUSH1 0x44 DUP3 ADD MSTORE PUSH32 0x207265706C6163656D656E7420696E666F726D6174696F6E0000000000000000 PUSH1 0x64 DUP3 ADD MSTORE PUSH1 0x84 ADD PUSH2 0x29F JUMP JUMPDEST PUSH1 0x67 SLOAD PUSH2 0xA3D DUP4 TIMESTAMP PUSH2 0x1651 JUMP JUMPDEST GT ISZERO PUSH2 0xAB1 JUMPI PUSH1 0x40 MLOAD PUSH3 0x461BCD PUSH1 0xE5 SHL DUP2 MSTORE PUSH1 0x20 PUSH1 0x4 DUP3 ADD MSTORE PUSH1 0x23 PUSH1 0x24 DUP3 ADD MSTORE PUSH32 0x497373756572206E6F6E2D7265766F636174696F6E2073746174652065787069 PUSH1 0x44 DUP3 ADD MSTORE PUSH32 0x7265640000000000000000000000000000000000000000000000000000000000 PUSH1 0x64 DUP3 ADD MSTORE PUSH1 0x84 ADD PUSH2 0x29F JUMP JUMPDEST POP POP JUMPDEST PUSH1 0x65 PUSH1 0x0 SWAP1 SLOAD SWAP1 PUSH2 0x100 EXP SWAP1 DIV PUSH1 0x1 PUSH1 0x1 PUSH1 0xA0 SHL SUB AND PUSH1 0x1 PUSH1 0x1 PUSH1 0xA0 SHL SUB AND PUSH4 0xC542C93B DUP16 DUP16 DUP16 DUP16 PUSH1 0x40 MLOAD DUP6 PUSH4 0xFFFFFFFF AND PUSH1 0xE0 SHL DUP2 MSTORE PUSH1 0x4 ADD PUSH2 0xAFB SWAP5 SWAP4 SWAP3 SWAP2 SWAP1 PUSH2 0x14E3 JUMP JUMPDEST PUSH1 0x20 PUSH1 0x40 MLOAD DUP1 DUP4 SUB DUP2 DUP7 DUP1 EXTCODESIZE ISZERO DUP1 ISZERO PUSH2 0xB13 JUMPI PUSH1 0x0 DUP1 REVERT JUMPDEST POP GAS STATICCALL ISZERO DUP1 ISZERO PUSH2 0xB27 JUMPI RETURNDATASIZE PUSH1 0x0 DUP1 RETURNDATACOPY RETURNDATASIZE PUSH1 0x0 REVERT JUMPDEST POP POP POP POP PUSH1 0x40 MLOAD RETURNDATASIZE PUSH1 0x1F NOT PUSH1 0x1F DUP3 ADD AND DUP3 ADD DUP1 PUSH1 0x40 MSTORE POP DUP2 ADD SWAP1 PUSH2 0xB4B SWAP2 SWAP1 PUSH2 0x140E JUMP JUMPDEST PUSH2 0xB97 JUMPI PUSH1 0x40 MLOAD PUSH3 0x461BCD PUSH1 0xE5 SHL DUP2 MSTORE PUSH1 0x20 PUSH1 0x4 DUP3 ADD MSTORE PUSH1 0xD PUSH1 0x24 DUP3 ADD MSTORE PUSH32 0x4D5450206E6F742076616C696400000000000000000000000000000000000000 PUSH1 0x44 DUP3 ADD MSTORE PUSH1 0x64 ADD PUSH2 0x29F JUMP JUMPDEST POP PUSH1 0x1 SWAP14 SWAP13 POP POP POP POP POP POP POP POP POP POP POP POP POP JUMP JUMPDEST PUSH2 0xBB3 PUSH2 0xEC3 JUMP JUMPDEST PUSH2 0xBBD PUSH1 0x0 PUSH2 0xF1D JUMP JUMPDEST JUMP JUMPDEST PUSH2 0xBC7 PUSH2 0xEC3 JUMP JUMPDEST PUSH1 0x67 SSTORE JUMP JUMPDEST PUSH2 0xBD4 PUSH2 0xEC3 JUMP JUMPDEST PUSH1 0x1 PUSH1 0x1 PUSH1 0xA0 SHL SUB DUP2 AND PUSH2 0xC50 JUMPI PUSH1 0x40 MLOAD PUSH3 0x461BCD PUSH1 0xE5 SHL DUP2 MSTORE PUSH1 0x20 PUSH1 0x4 DUP3 ADD MSTORE PUSH1 0x26 PUSH1 0x24 DUP3 ADD MSTORE PUSH32 0x4F776E61626C653A206E6577206F776E657220697320746865207A65726F2061 PUSH1 0x44 DUP3 ADD MSTORE PUSH32 0x6464726573730000000000000000000000000000000000000000000000000000 PUSH1 0x64 DUP3 ADD MSTORE PUSH1 0x84 ADD PUSH2 0x29F JUMP JUMPDEST PUSH2 0xC59 DUP2 PUSH2 0xF1D JUMP JUMPDEST POP JUMP JUMPDEST PUSH1 0x0 SLOAD PUSH2 0x100 SWAP1 DIV PUSH1 0xFF AND PUSH2 0xCC7 JUMPI PUSH1 0x40 MLOAD PUSH3 0x461BCD PUSH1 0xE5 SHL DUP2 MSTORE PUSH1 0x20 PUSH1 0x4 DUP3 ADD MSTORE PUSH1 0x2B PUSH1 0x24 DUP3 ADD MSTORE PUSH32 0x496E697469616C697A61626C653A20636F6E7472616374206973206E6F742069 PUSH1 0x44 DUP3 ADD MSTORE PUSH11 0x6E697469616C697A696E67 PUSH1 0xA8 SHL PUSH1 0x64 DUP3 ADD MSTORE PUSH1 0x84 ADD PUSH2 0x29F JUMP JUMPDEST PUSH2 0xBBD PUSH2 0xF7C JUMP JUMPDEST PUSH1 0x40 DUP1 MLOAD PUSH1 0x20 DUP1 DUP3 MSTORE DUP2 DUP4 ADD SWAP1 SWAP3 MSTORE PUSH1 0x60 SWAP2 PUSH1 0x20 DUP3 ADD DUP2 DUP1 CALLDATASIZE DUP4 CALLDATACOPY POP POP POP PUSH1 0x20 DUP2 ADD SWAP3 SWAP1 SWAP3 MSTORE POP SWAP1 JUMP JUMPDEST PUSH1 0x60 DUP2 PUSH2 0xD07 DUP2 PUSH1 0x1F PUSH2 0x1639 JUMP JUMPDEST LT ISZERO PUSH2 0xD55 JUMPI PUSH1 0x40 MLOAD PUSH3 0x461BCD PUSH1 0xE5 SHL DUP2 MSTORE PUSH1 0x20 PUSH1 0x4 DUP3 ADD MSTORE PUSH1 0xE PUSH1 0x24 DUP3 ADD MSTORE PUSH32 0x736C6963655F6F766572666C6F77000000000000000000000000000000000000 PUSH1 0x44 DUP3 ADD MSTORE PUSH1 0x64 ADD PUSH2 0x29F JUMP JUMPDEST PUSH2 0xD5F DUP3 DUP5 PUSH2 0x1639 JUMP JUMPDEST DUP5 MLOAD LT ISZERO PUSH2 0xDAF JUMPI PUSH1 0x40 MLOAD PUSH3 0x461BCD PUSH1 0xE5 SHL DUP2 MSTORE PUSH1 0x20 PUSH1 0x4 DUP3 ADD MSTORE PUSH1 0x11 PUSH1 0x24 DUP3 ADD MSTORE PUSH32 0x736C6963655F6F75744F66426F756E6473000000000000000000000000000000 PUSH1 0x44 DUP3 ADD MSTORE PUSH1 0x64 ADD PUSH2 0x29F JUMP JUMPDEST PUSH1 0x60 DUP3 ISZERO DUP1 ISZERO PUSH2 0xDCE JUMPI PUSH1 0x40 MLOAD SWAP2 POP PUSH1 0x0 DUP3 MSTORE PUSH1 0x20 DUP3 ADD PUSH1 0x40 MSTORE PUSH2 0xE18 JUMP JUMPDEST PUSH1 0x40 MLOAD SWAP2 POP PUSH1 0x1F DUP5 AND DUP1 ISZERO PUSH1 0x20 MUL DUP2 DUP5 ADD ADD DUP6 DUP2 ADD DUP8 DUP4 ISZERO PUSH1 0x20 MUL DUP5 DUP12 ADD ADD ADD JUMPDEST DUP2 DUP4 LT ISZERO PUSH2 0xE07 JUMPI DUP1 MLOAD DUP4 MSTORE PUSH1 0x20 SWAP3 DUP4 ADD SWAP3 ADD PUSH2 0xDEF JUMP JUMPDEST POP POP DUP6 DUP5 MSTORE PUSH1 0x1F ADD PUSH1 0x1F NOT AND PUSH1 0x40 MSTORE POP JUMPDEST POP SWAP5 SWAP4 POP POP POP POP JUMP JUMPDEST PUSH1 0x60 DUP1 PUSH1 0x40 MLOAD SWAP1 POP DUP4 MLOAD DUP1 DUP3 MSTORE PUSH1 0x20 DUP3 ADD DUP2 DUP2 ADD PUSH1 0x20 DUP8 ADD JUMPDEST DUP2 DUP4 LT ISZERO PUSH2 0xE52 JUMPI DUP1 MLOAD DUP4 MSTORE PUSH1 0x20 SWAP3 DUP4 ADD SWAP3 ADD PUSH2 0xE3A JUMP JUMPDEST POP DUP6 MLOAD DUP5 MLOAD DUP2 ADD DUP6 MSTORE SWAP3 POP SWAP1 POP DUP1 DUP3 ADD PUSH1 0x20 DUP7 ADD JUMPDEST DUP2 DUP4 LT ISZERO PUSH2 0xE7F JUMPI DUP1 MLOAD DUP4 MSTORE PUSH1 0x20 SWAP3 DUP4 ADD SWAP3 ADD PUSH2 0xE67 JUMP JUMPDEST POP DUP7 MLOAD SWAP3 SWAP1 SWAP3 ADD ISZERO SWAP2 SWAP1 SWAP2 ADD PUSH1 0x1F ADD PUSH1 0x1F NOT AND PUSH1 0x40 MSTORE POP SWAP1 POP SWAP3 SWAP2 POP POP JUMP JUMPDEST PUSH1 0x0 DUP1 PUSH2 0xEAA DUP4 PUSH2 0xFF0 JUMP JUMPDEST SWAP1 POP PUSH1 0x0 PUSH2 0xEB7 DUP6 PUSH2 0x108E JUMP JUMPDEST SWAP2 SWAP1 SWAP2 EQ SWAP5 SWAP4 POP POP POP POP JUMP JUMPDEST PUSH1 0x33 SLOAD PUSH1 0x1 PUSH1 0x1 PUSH1 0xA0 SHL SUB AND CALLER EQ PUSH2 0xBBD JUMPI PUSH1 0x40 MLOAD PUSH3 0x461BCD PUSH1 0xE5 SHL DUP2 MSTORE PUSH1 0x20 PUSH1 0x4 DUP3 ADD DUP2 SWAP1 MSTORE PUSH1 0x24 DUP3 ADD MSTORE PUSH32 0x4F776E61626C653A2063616C6C6572206973206E6F7420746865206F776E6572 PUSH1 0x44 DUP3 ADD MSTORE PUSH1 0x64 ADD PUSH2 0x29F JUMP JUMPDEST PUSH1 0x33 DUP1 SLOAD PUSH1 0x1 PUSH1 0x1 PUSH1 0xA0 SHL SUB DUP4 DUP2 AND PUSH20 0xFFFFFFFFFFFFFFFFFFFFFFFFFFFFFFFFFFFFFFFF NOT DUP4 AND DUP2 OR SWAP1 SWAP4 SSTORE PUSH1 0x40 MLOAD SWAP2 AND SWAP2 SWAP1 DUP3 SWAP1 PUSH32 0x8BE0079C531659141344CD1FD0A4F28419497F9722A3DAAFE3B4186F6B6457E0 SWAP1 PUSH1 0x0 SWAP1 LOG3 POP POP JUMP JUMPDEST PUSH1 0x0 SLOAD PUSH2 0x100 SWAP1 DIV PUSH1 0xFF AND PUSH2 0xFE7 JUMPI PUSH1 0x40 MLOAD PUSH3 0x461BCD PUSH1 0xE5 SHL DUP2 MSTORE PUSH1 0x20 PUSH1 0x4 DUP3 ADD MSTORE PUSH1 0x2B PUSH1 0x24 DUP3 ADD MSTORE PUSH32 0x496E697469616C697A61626C653A20636F6E7472616374206973206E6F742069 PUSH1 0x44 DUP3 ADD MSTORE PUSH11 0x6E697469616C697A696E67 PUSH1 0xA8 SHL PUSH1 0x64 DUP3 ADD MSTORE PUSH1 0x84 ADD PUSH2 0x29F JUMP JUMPDEST PUSH2 0xBBD CALLER PUSH2 0xF1D JUMP JUMPDEST PUSH1 0x0 DUP1 PUSH2 0xFFC DUP4 PUSH2 0xCCF JUMP JUMPDEST SWAP1 POP PUSH1 0x0 PUSH2 0x100D DUP3 PUSH1 0x0 PUSH1 0x1D PUSH2 0xCF9 JUMP JUMPDEST PUSH1 0x40 DUP1 MLOAD DUP1 DUP3 ADD SWAP1 SWAP2 MSTORE PUSH1 0x3 DUP2 MSTORE PUSH1 0x0 PUSH1 0x20 DUP3 ADD MSTORE SWAP1 SWAP2 POP PUSH2 0x102F DUP2 DUP4 PUSH2 0xE21 JUMP JUMPDEST SWAP2 POP DUP2 MLOAD PUSH1 0x20 EQ PUSH2 0x1082 JUMPI PUSH1 0x40 MLOAD PUSH3 0x461BCD PUSH1 0xE5 SHL DUP2 MSTORE PUSH1 0x20 PUSH1 0x4 DUP3 ADD MSTORE PUSH1 0x17 PUSH1 0x24 DUP3 ADD MSTORE PUSH32 0x496E76616C6964206375745374617465206C656E677468000000000000000000 PUSH1 0x44 DUP3 ADD MSTORE PUSH1 0x64 ADD PUSH2 0x29F JUMP JUMPDEST POP PUSH1 0x20 ADD MLOAD SWAP4 SWAP3 POP POP POP JUMP JUMPDEST PUSH1 0x0 DUP1 PUSH2 0x109A DUP4 PUSH2 0xCCF JUMP JUMPDEST SWAP1 POP PUSH1 0x0 PUSH2 0x10AB DUP3 PUSH1 0x1 PUSH1 0x1D PUSH2 0xCF9 JUMP JUMPDEST PUSH1 0x40 DUP1 MLOAD DUP1 DUP3 ADD SWAP1 SWAP2 MSTORE PUSH1 0x3 DUP2 MSTORE PUSH1 0x0 PUSH1 0x20 DUP3 ADD MSTORE SWAP1 SWAP2 POP PUSH2 0x10CD DUP2 DUP4 PUSH2 0xE21 JUMP JUMPDEST SWAP2 POP DUP2 MLOAD PUSH1 0x20 EQ PUSH2 0x1082 JUMPI PUSH1 0x40 MLOAD PUSH3 0x461BCD PUSH1 0xE5 SHL DUP2 MSTORE PUSH1 0x20 PUSH1 0x4 DUP3 ADD MSTORE PUSH1 0x14 PUSH1 0x24 DUP3 ADD MSTORE PUSH32 0x496E76616C6964206375744964206C656E677468000000000000000000000000 PUSH1 0x44 DUP3 ADD MSTORE PUSH1 0x64 ADD PUSH2 0x29F JUMP JUMPDEST DUP1 CALLDATALOAD PUSH1 0x1 PUSH1 0x1 PUSH1 0xA0 SHL SUB DUP2 AND DUP2 EQ PUSH2 0x1137 JUMPI PUSH1 0x0 DUP1 REVERT JUMPDEST SWAP2 SWAP1 POP JUMP JUMPDEST PUSH1 0x0 DUP3 PUSH1 0x1F DUP4 ADD SLT PUSH2 0x114D JUMPI PUSH1 0x0 DUP1 REVERT JUMPDEST PUSH2 0x1155 PUSH2 0x15E5 JUMP JUMPDEST DUP1 DUP4 DUP6 PUSH1 0x40 DUP7 ADD GT ISZERO PUSH2 0x1167 JUMPI PUSH1 0x0 DUP1 REVERT JUMPDEST PUSH1 0x0 JUMPDEST PUSH1 0x2 DUP2 LT ISZERO PUSH2 0x1189 JUMPI DUP2 CALLDATALOAD DUP5 MSTORE PUSH1 0x20 SWAP4 DUP5 ADD SWAP4 SWAP1 SWAP2 ADD SWAP1 PUSH1 0x1 ADD PUSH2 0x116A JUMP JUMPDEST POP SWAP1 SWAP6 SWAP5 POP POP POP POP POP JUMP JUMPDEST PUSH1 0x0 DUP3 PUSH1 0x1F DUP4 ADD SLT PUSH2 0x11A5 JUMPI PUSH1 0x0 DUP1 REVERT JUMPDEST PUSH1 0x40 MLOAD PUSH2 0x120 DUP1 DUP3 ADD DUP3 DUP2 LT PUSH8 0xFFFFFFFFFFFFFFFF DUP3 GT OR ISZERO PUSH2 0x11CA JUMPI PUSH2 0x11CA PUSH2 0x167E JUMP JUMPDEST PUSH1 0x40 MSTORE DUP2 DUP5 DUP3 DUP2 ADD DUP8 LT ISZERO PUSH2 0x11DE JUMPI PUSH1 0x0 DUP1 REVERT JUMPDEST PUSH1 0x0 SWAP3 POP JUMPDEST PUSH1 0x9 DUP4 LT ISZERO PUSH2 0x1203 JUMPI DUP1 CALLDATALOAD DUP3 MSTORE PUSH1 0x1 SWAP3 SWAP1 SWAP3 ADD SWAP2 PUSH1 0x20 SWAP2 DUP3 ADD SWAP2 ADD PUSH2 0x11E3 JUMP JUMPDEST POP SWAP2 SWAP6 SWAP5 POP POP POP POP POP JUMP JUMPDEST PUSH1 0x0 PUSH1 0x80 DUP3 DUP5 SUB SLT ISZERO PUSH2 0x1220 JUMPI PUSH1 0x0 DUP1 REVERT JUMPDEST PUSH2 0x1228 PUSH2 0x15BC JUMP JUMPDEST SWAP1 POP DUP2 CALLDATALOAD DUP2 MSTORE PUSH1 0x20 DUP1 DUP4 ADD CALLDATALOAD DUP2 DUP4 ADD MSTORE PUSH1 0x40 DUP4 ADD CALLDATALOAD PUSH1 0x40 DUP4 ADD MSTORE PUSH1 0x60 DUP4 ADD CALLDATALOAD PUSH8 0xFFFFFFFFFFFFFFFF DUP1 DUP3 GT ISZERO PUSH2 0x125D JUMPI PUSH1 0x0 DUP1 REVERT JUMPDEST DUP2 DUP6 ADD SWAP2 POP DUP6 PUSH1 0x1F DUP4 ADD SLT PUSH2 0x1271 JUMPI PUSH1 0x0 DUP1 REVERT JUMPDEST DUP2 CALLDATALOAD DUP2 DUP2 GT ISZERO PUSH2 0x1283 JUMPI PUSH2 0x1283 PUSH2 0x167E JUMP JUMPDEST PUSH2 0x1295 PUSH1 0x1F DUP3 ADD PUSH1 0x1F NOT AND DUP6 ADD PUSH2 0x1608 JUMP JUMPDEST SWAP2 POP DUP1 DUP3 MSTORE DUP7 DUP5 DUP3 DUP6 ADD ADD GT ISZERO PUSH2 0x12AB JUMPI PUSH1 0x0 DUP1 REVERT JUMPDEST DUP1 DUP5 DUP5 ADD DUP6 DUP5 ADD CALLDATACOPY PUSH1 0x0 DUP5 DUP3 DUP5 ADD ADD MSTORE POP DUP1 PUSH1 0x60 DUP6 ADD MSTORE POP POP POP SWAP3 SWAP2 POP POP JUMP JUMPDEST DUP1 MLOAD PUSH8 0xFFFFFFFFFFFFFFFF DUP2 AND DUP2 EQ PUSH2 0x1137 JUMPI PUSH1 0x0 DUP1 REVERT JUMPDEST PUSH1 0x0 PUSH1 0x20 DUP3 DUP5 SUB SLT ISZERO PUSH2 0x12F5 JUMPI PUSH1 0x0 DUP1 REVERT JUMPDEST PUSH2 0x12FE DUP3 PUSH2 0x1120 JUMP JUMPDEST SWAP4 SWAP3 POP POP POP JUMP JUMPDEST PUSH1 0x0 DUP1 PUSH1 0x40 DUP4 DUP6 SUB SLT ISZERO PUSH2 0x1318 JUMPI PUSH1 0x0 DUP1 REVERT JUMPDEST PUSH2 0x1321 DUP4 PUSH2 0x1120 JUMP JUMPDEST SWAP2 POP PUSH2 0x132F PUSH1 0x20 DUP5 ADD PUSH2 0x1120 JUMP JUMPDEST SWAP1 POP SWAP3 POP SWAP3 SWAP1 POP JUMP JUMPDEST PUSH1 0x0 DUP1 PUSH1 0x0 DUP1 PUSH1 0x0 PUSH2 0x240 DUP7 DUP9 SUB SLT ISZERO PUSH2 0x1351 JUMPI PUSH1 0x0 DUP1 REVERT JUMPDEST PUSH2 0x135B DUP8 DUP8 PUSH2 0x113C JUMP JUMPDEST SWAP5 POP PUSH1 0x40 DUP8 PUSH1 0x5F DUP9 ADD SLT PUSH2 0x136E JUMPI PUSH1 0x0 DUP1 REVERT JUMPDEST PUSH2 0x1376 PUSH2 0x15E5 JUMP JUMPDEST DUP1 DUP3 DUP10 ADD PUSH1 0xC0 DUP11 ADD DUP12 DUP2 GT ISZERO PUSH2 0x138B JUMPI PUSH1 0x0 DUP1 REVERT JUMPDEST PUSH1 0x0 JUMPDEST PUSH1 0x2 DUP2 LT ISZERO PUSH2 0x13B5 JUMPI PUSH2 0x13A1 DUP14 DUP5 PUSH2 0x113C JUMP JUMPDEST DUP6 MSTORE PUSH1 0x20 SWAP1 SWAP5 ADD SWAP4 SWAP2 DUP6 ADD SWAP2 PUSH1 0x1 ADD PUSH2 0x138E JUMP JUMPDEST POP DUP3 SWAP9 POP PUSH2 0x13C3 DUP13 DUP3 PUSH2 0x113C JUMP JUMPDEST SWAP8 POP POP POP POP POP POP PUSH2 0x13D8 DUP8 PUSH2 0x100 DUP9 ADD PUSH2 0x1194 JUMP JUMPDEST SWAP2 POP PUSH2 0x220 DUP7 ADD CALLDATALOAD PUSH8 0xFFFFFFFFFFFFFFFF DUP2 GT ISZERO PUSH2 0x13F5 JUMPI PUSH1 0x0 DUP1 REVERT JUMPDEST PUSH2 0x1401 DUP9 DUP3 DUP10 ADD PUSH2 0x120E JUMP JUMPDEST SWAP2 POP POP SWAP3 SWAP6 POP SWAP3 SWAP6 SWAP1 SWAP4 POP JUMP JUMPDEST PUSH1 0x0 PUSH1 0x20 DUP3 DUP5 SUB SLT ISZERO PUSH2 0x1420 JUMPI PUSH1 0x0 DUP1 REVERT JUMPDEST DUP2 MLOAD DUP1 ISZERO ISZERO DUP2 EQ PUSH2 0x12FE JUMPI PUSH1 0x0 DUP1 REVERT JUMPDEST PUSH1 0x0 PUSH1 0x20 DUP3 DUP5 SUB SLT ISZERO PUSH2 0x1442 JUMPI PUSH1 0x0 DUP1 REVERT JUMPDEST POP CALLDATALOAD SWAP2 SWAP1 POP JUMP JUMPDEST PUSH1 0x0 PUSH1 0x20 DUP3 DUP5 SUB SLT ISZERO PUSH2 0x145B JUMPI PUSH1 0x0 DUP1 REVERT JUMPDEST POP MLOAD SWAP2 SWAP1 POP JUMP JUMPDEST PUSH1 0x0 DUP1 PUSH1 0x0 DUP1 PUSH1 0x0 DUP1 PUSH1 0xC0 DUP8 DUP10 SUB SLT ISZERO PUSH2 0x147B JUMPI PUSH1 0x0 DUP1 REVERT JUMPDEST DUP7 MLOAD SWAP6 POP PUSH1 0x20 DUP8 ADD MLOAD SWAP5 POP PUSH2 0x1492 PUSH1 0x40 DUP9 ADD PUSH2 0x12CB JUMP JUMPDEST SWAP4 POP PUSH2 0x14A0 PUSH1 0x60 DUP9 ADD PUSH2 0x12CB JUMP JUMPDEST SWAP3 POP PUSH1 0x80 DUP8 ADD MLOAD SWAP2 POP PUSH1 0xA0 DUP8 ADD MLOAD SWAP1 POP SWAP3 SWAP6 POP SWAP3 SWAP6 POP SWAP3 SWAP6 JUMP JUMPDEST DUP1 PUSH1 0x0 JUMPDEST PUSH1 0x2 DUP2 LT ISZERO PUSH2 0x14DD JUMPI DUP2 MLOAD DUP5 MSTORE PUSH1 0x20 SWAP4 DUP5 ADD SWAP4 SWAP1 SWAP2 ADD SWAP1 PUSH1 0x1 ADD PUSH2 0x14BE JUMP JUMPDEST POP POP POP POP JUMP JUMPDEST PUSH2 0x220 DUP2 ADD PUSH2 0x14F2 DUP3 DUP8 PUSH2 0x14BA JUMP JUMPDEST PUSH1 0x40 DUP1 DUP4 ADD DUP7 PUSH1 0x0 JUMPDEST PUSH1 0x2 DUP2 LT ISZERO PUSH2 0x1522 JUMPI PUSH2 0x150F DUP4 DUP4 MLOAD PUSH2 0x14BA JUMP JUMPDEST SWAP2 DUP4 ADD SWAP2 PUSH1 0x20 SWAP2 SWAP1 SWAP2 ADD SWAP1 PUSH1 0x1 ADD PUSH2 0x14FB JUMP JUMPDEST POP POP POP POP PUSH2 0x1533 PUSH1 0xC0 DUP4 ADD DUP6 PUSH2 0x14BA JUMP JUMPDEST PUSH2 0x100 DUP3 ADD DUP4 PUSH1 0x0 JUMPDEST PUSH1 0x9 DUP2 LT ISZERO PUSH2 0x155B JUMPI DUP2 MLOAD DUP4 MSTORE PUSH1 0x20 SWAP3 DUP4 ADD SWAP3 SWAP1 SWAP2 ADD SWAP1 PUSH1 0x1 ADD PUSH2 0x153C JUMP JUMPDEST POP POP POP SWAP6 SWAP5 POP POP POP POP POP JUMP JUMPDEST PUSH1 0x0 PUSH1 0x20 DUP1 DUP4 MSTORE DUP4 MLOAD DUP1 DUP3 DUP6 ADD MSTORE PUSH1 0x0 JUMPDEST DUP2 DUP2 LT ISZERO PUSH2 0x1594 JUMPI DUP6 DUP2 ADD DUP4 ADD MLOAD DUP6 DUP3 ADD PUSH1 0x40 ADD MSTORE DUP3 ADD PUSH2 0x1578 JUMP JUMPDEST DUP2 DUP2 GT ISZERO PUSH2 0x15A6 JUMPI PUSH1 0x0 PUSH1 0x40 DUP4 DUP8 ADD ADD MSTORE JUMPDEST POP PUSH1 0x1F ADD PUSH1 0x1F NOT AND SWAP3 SWAP1 SWAP3 ADD PUSH1 0x40 ADD SWAP4 SWAP3 POP POP POP JUMP JUMPDEST PUSH1 0x40 MLOAD PUSH1 0x80 DUP2 ADD PUSH8 0xFFFFFFFFFFFFFFFF DUP2 GT DUP3 DUP3 LT OR ISZERO PUSH2 0x15DF JUMPI PUSH2 0x15DF PUSH2 0x167E JUMP JUMPDEST PUSH1 0x40 MSTORE SWAP1 JUMP JUMPDEST PUSH1 0x40 DUP1 MLOAD SWAP1 DUP2 ADD PUSH8 0xFFFFFFFFFFFFFFFF DUP2 GT DUP3 DUP3 LT OR ISZERO PUSH2 0x15DF JUMPI PUSH2 0x15DF PUSH2 0x167E JUMP JUMPDEST PUSH1 0x40 MLOAD PUSH1 0x1F DUP3 ADD PUSH1 0x1F NOT AND DUP2 ADD PUSH8 0xFFFFFFFFFFFFFFFF DUP2 GT DUP3 DUP3 LT OR ISZERO PUSH2 0x1631 JUMPI PUSH2 0x1631 PUSH2 0x167E JUMP JUMPDEST PUSH1 0x40 MSTORE SWAP2 SWAP1 POP JUMP JUMPDEST PUSH1 0x0 DUP3 NOT DUP3 GT ISZERO PUSH2 0x164C JUMPI PUSH2 0x164C PUSH2 0x1668 JUMP JUMPDEST POP ADD SWAP1 JUMP JUMPDEST PUSH1 0x0 DUP3 DUP3 LT ISZERO PUSH2 0x1663 JUMPI PUSH2 0x1663 PUSH2 0x1668 JUMP JUMPDEST POP SUB SWAP1 JUMP JUMPDEST PUSH4 0x4E487B71 PUSH1 0xE0 SHL PUSH1 0x0 MSTORE PUSH1 0x11 PUSH1 0x4 MSTORE PUSH1 0x24 PUSH1 0x0 REVERT JUMPDEST PUSH4 0x4E487B71 PUSH1 0xE0 SHL PUSH1 0x0 MSTORE PUSH1 0x41 PUSH1 0x4 MSTORE PUSH1 0x24 PUSH1 0x0 REVERT INVALID LOG2 PUSH5 0x6970667358 0x22 SLT KECCAK256 0xDD RETURN 0xBC PUSH32 0x6C2C2B7F6641D8B3285EA47498F9D500DF3A0A4ADE0AA19578C6F67164736F6C PUSH4 0x43000807 STOP CALLER "},"methodIdentifiers":{"getChallengeInputIndex()":"9f442afa","getCircuitId()":"59a2aeaa","getUserIdInputIndex()":"7b47323c","initialize(address,address)":"485cc955","owner()":"8da5cb5b","renounceOwnership()":"715018a6","revocationStateExpirationTime()":"23962482","setRevocationStateExpirationTime(uint256)":"e79ce794","state()":"c19d93fb","transferOwnership(address)":"f2fde38b","verifier()":"2b7ac3f3","verify(uint256[2],uint256[2][2],uint256[2],uint256[9],(uint256,uint256,uint256,string))":"5802c3f7"}},"storageLayout":{"storage":[{"astId":138,"contract":"contracts/validators/QueryMTPValidator.sol:QueryMTPValidator","label":"_initialized","offset":0,"slot":"0","type":"t_uint8"},{"astId":141,"contract":"contracts/validators/QueryMTPValidator.sol:QueryMTPValidator","label":"_initializing","offset":1,"slot":"0","type":"t_bool"},{"astId":625,"contract":"contracts/validators/QueryMTPValidator.sol:QueryMTPValidator","label":"__gap","offset":0,"slot":"1","type":"t_array(t_uint256)50_storage"},{"astId":10,"contract":"contracts/validators/QueryMTPValidator.sol:QueryMTPValidator","label":"_owner","offset":0,"slot":"51","type":"t_address"},{"astId":130,"contract":"contracts/validators/QueryMTPValidator.sol:QueryMTPValidator","label":"__gap","offset":0,"slot":"52","type":"t_array(t_uint256)49_storage"},{"astId":2089,"contract":"contracts/validators/QueryMTPValidator.sol:QueryMTPValidator","label":"verifier","offset":0,"slot":"101","type":"t_contract(IQueryVerifier)1526"},{"astId":2092,"contract":"contracts/validators/QueryMTPValidator.sol:QueryMTPValidator","label":"state","offset":0,"slot":"102","type":"t_contract(IState)1553"},{"astId":2094,"contract":"contracts/validators/QueryMTPValidator.sol:QueryMTPValidator","label":"revocationStateExpirationTime","offset":0,"slot":"103","type":"t_uint256"}],"types":{"t_address":{"encoding":"inplace","label":"address","numberOfBytes":"20"},"t_array(t_uint256)49_storage":{"base":"t_uint256","encoding":"inplace","label":"uint256[49]","numberOfBytes":"1568"},"t_array(t_uint256)50_storage":{"base":"t_uint256","encoding":"inplace","label":"uint256[50]","numberOfBytes":"1600"},"t_bool":{"encoding":"inplace","label":"bool","numberOfBytes":"1"},"t_contract(IQueryVerifier)1526":{"encoding":"inplace","label":"contract IQueryVerifier","numberOfBytes":"20"},"t_contract(IState)1553":{"encoding":"inplace","label":"contract IState","numberOfBytes":"20"},"t_uint256":{"encoding":"inplace","label":"uint256","numberOfBytes":"32"},"t_uint8":{"encoding":"inplace","label":"uint8","numberOfBytes":"1"}}}}}}