{"contracts/test/TestValidator.sol":{"TestValidator":{"abi":[{"inputs":[{"internalType":"address","name":"_mtpValidator","type":"address"},{"internalType":"address","name":"_sigValidator","type":"address"}],"stateMutability":"nonpayable","type":"constructor"},{"inputs":[],"name":"mtpValidator","outputs":[{"internalType":"contract IValidator","name":"","type":"address"}],"stateMutability":"view","type":"function"},{"inputs":[],"name":"owner","outputs":[{"internalType":"address","name":"","type":"address"}],"stateMutability":"view","type":"function"},{"inputs":[],"name":"sigValidator","outputs":[{"internalType":"contract IValidator","name":"","type":"address"}],"stateMutability":"view","type":"function"},{"inputs":[{"internalType":"uint256[2]","name":"a","type":"uint256[2]"},{"internalType":"uint256[2][2]","name":"b","type":"uint256[2][2]"},{"internalType":"uint256[2]","name":"c","type":"uint256[2]"},{"internalType":"uint256[9]","name":"pubSigs","type":"uint256[9]"}],"name":"verifyMTP","outputs":[{"internalType":"bool","name":"","type":"bool"}],"stateMutability":"nonpayable","type":"function"},{"inputs":[{"internalType":"uint256[2]","name":"a","type":"uint256[2]"},{"internalType":"uint256[2][2]","name":"b","type":"uint256[2][2]"},{"internalType":"uint256[2]","name":"c","type":"uint256[2]"},{"internalType":"uint256[9]","name":"pubSigs","type":"uint256[9]"}],"name":"verifySig","outputs":[{"internalType":"bool","name":"","type":"bool"}],"stateMutability":"nonpayable","type":"function"}],"evm":{"bytecode":{"linkReferences":{},"object":"608060405234801561001057600080fd5b506040516106ec3803806106ec83398101604081905261002f9161007c565b600180546001600160a01b039384166001600160a01b031991821617909155600280549290931691161790556100af565b80516001600160a01b038116811461007757600080fd5b919050565b6000806040838503121561008f57600080fd5b61009883610060565b91506100a660208401610060565b90509250929050565b61062e806100be6000396000f3fe608060405234801561001057600080fd5b50600436106100675760003560e01c806379501bf61161005057806379501bf6146100bf5780638da5cb5b146100d2578063e125bcb5146100e557600080fd5b80636a1c4be11461006c57806373b39ab91461009c575b600080fd5b60015461007f906001600160a01b031681565b6040516001600160a01b0390911681526020015b60405180910390f35b6100af6100aa36600461033c565b6100f8565b6040519015158152602001610093565b60025461007f906001600160a01b031681565b60005461007f906001600160a01b031681565b6100af6100f336600461033c565b610239565b60006101256040518060800160405280600081526020016000815260200160008152602001606081525090565b60c083015160208281019190915260e08401518252610100840151604080840191909152805180820182526005815264517565727960d81b9281019290925260608301919091526002549051635802c3f760e01b81526001600160a01b0390911690635802c3f7906101a390899089908990899088906004016104f5565b60206040518083038186803b1580156101bb57600080fd5b505afa1580156101cf573d6000803e3d6000fd5b505050506040513d601f19601f820116820180604052508101906101f3919061042d565b1561022b575050600080547fffffffffffffffffffffffff000000000000000000000000000000000000000016331790556001610231565b60009150505b949350505050565b60006102666040518060800160405280600081526020016000815260200160008152602001606081525090565b60c0830151815260e0830151602082810191909152610100840151604080840191909152805180820182526005815264517565727960d81b9281019290925260608301919091526001549051635802c3f760e01b81526001600160a01b0390911690635802c3f7906101a390899089908990899088906004016104f5565b600082601f8301126102f557600080fd5b6102fd61058f565b80838560408601111561030f57600080fd5b60005b6002811015610331578135845260209384019390910190600101610312565b509095945050505050565b60008060008061022080868803121561035457600080fd5b61035e87876102e4565b9450604087605f88011261037157600080fd5b61037961058f565b8082890160c08a018b81111561038e57600080fd5b60005b60028110156103b8576103a48d846102e4565b855260209094019391850191600101610391565b508298506103c68c826102e4565b975050505050508661011f8701126103dd57600080fd5b6103e56105c6565b80610100880189848a0111156103fa57600080fd5b600093505b600984101561041f578035835260019390930192602092830192016103ff565b509598949750929550505050565b60006020828403121561043f57600080fd5b8151801515811461044f57600080fd5b9392505050565b8060005b600281101561047957815184526020938401939091019060010161045a565b50505050565b8051825260006020808301518185015260408301516040850152606083015160806060860152805180608087015260005b818110156104cc5782810184015187820160a0015283016104b0565b818111156104de57600060a083890101525b50601f01601f19169490940160a001949350505050565b60006102406105048389610456565b60408084018860005b600281101561053457610521838351610456565b918301916020919091019060010161050d565b5050505061054560c0840187610456565b61010083018560005b600981101561056d57815183526020928301929091019060010161054e565b505050806102208401526105838184018561047f565b98975050505050505050565b6040805190810167ffffffffffffffff811182821017156105c057634e487b7160e01b600052604160045260246000fd5b60405290565b604051610120810167ffffffffffffffff811182821017156105c057634e487b7160e01b600052604160045260246000fdfea264697066735822122020b27c4d23d7f2911bbe1d2f165178b7da7674ac4927c809646154d7a516f19264736f6c63430008070033","opcodes":"PUSH1 0x80 PUSH1 0x40 MSTORE CALLVALUE DUP1 ISZERO PUSH2 0x10 JUMPI PUSH1 0x0 DUP1 REVERT JUMPDEST POP PUSH1 0x40 MLOAD PUSH2 0x6EC CODESIZE SUB DUP1 PUSH2 0x6EC DUP4 CODECOPY DUP2 ADD PUSH1 0x40 DUP2 SWAP1 MSTORE PUSH2 0x2F SWAP2 PUSH2 0x7C JUMP JUMPDEST PUSH1 0x1 DUP1 SLOAD PUSH1 0x1 PUSH1 0x1 PUSH1 0xA0 SHL SUB SWAP4 DUP5 AND PUSH1 0x1 PUSH1 0x1 PUSH1 0xA0 SHL SUB NOT SWAP2 DUP3 AND OR SWAP1 SWAP2 SSTORE PUSH1 0x2 DUP1 SLOAD SWAP3 SWAP1 SWAP4 AND SWAP2 AND OR SWAP1 SSTORE PUSH2 0xAF JUMP JUMPDEST DUP1 MLOAD PUSH1 0x1 PUSH1 0x1 PUSH1 0xA0 SHL SUB DUP2 AND DUP2 EQ PUSH2 0x77 JUMPI PUSH1 0x0 DUP1 REVERT JUMPDEST SWAP2 SWAP1 POP JUMP JUMPDEST PUSH1 0x0 DUP1 PUSH1 0x40 DUP4 DUP6 SUB SLT ISZERO PUSH2 0x8F JUMPI PUSH1 0x0 DUP1 REVERT JUMPDEST PUSH2 0x98 DUP4 PUSH2 0x60 JUMP JUMPDEST SWAP2 POP PUSH2 0xA6 PUSH1 0x20 DUP5 ADD PUSH2 0x60 JUMP JUMPDEST SWAP1 POP SWAP3 POP SWAP3 SWAP1 POP JUMP JUMPDEST PUSH2 0x62E DUP1 PUSH2 0xBE PUSH1 0x0 CODECOPY PUSH1 0x0 RETURN INVALID PUSH1 0x80 PUSH1 0x40 MSTORE CALLVALUE DUP1 ISZERO PUSH2 0x10 JUMPI PUSH1 0x0 DUP1 REVERT JUMPDEST POP PUSH1 0x4 CALLDATASIZE LT PUSH2 0x67 JUMPI PUSH1 0x0 CALLDATALOAD PUSH1 0xE0 SHR DUP1 PUSH4 0x79501BF6 GT PUSH2 0x50 JUMPI DUP1 PUSH4 0x79501BF6 EQ PUSH2 0xBF JUMPI DUP1 PUSH4 0x8DA5CB5B EQ PUSH2 0xD2 JUMPI DUP1 PUSH4 0xE125BCB5 EQ PUSH2 0xE5 JUMPI PUSH1 0x0 DUP1 REVERT JUMPDEST DUP1 PUSH4 0x6A1C4BE1 EQ PUSH2 0x6C JUMPI DUP1 PUSH4 0x73B39AB9 EQ PUSH2 0x9C JUMPI JUMPDEST PUSH1 0x0 DUP1 REVERT JUMPDEST PUSH1 0x1 SLOAD PUSH2 0x7F SWAP1 PUSH1 0x1 PUSH1 0x1 PUSH1 0xA0 SHL SUB AND DUP2 JUMP JUMPDEST PUSH1 0x40 MLOAD PUSH1 0x1 PUSH1 0x1 PUSH1 0xA0 SHL SUB SWAP1 SWAP2 AND DUP2 MSTORE PUSH1 0x20 ADD JUMPDEST PUSH1 0x40 MLOAD DUP1 SWAP2 SUB SWAP1 RETURN JUMPDEST PUSH2 0xAF PUSH2 0xAA CALLDATASIZE PUSH1 0x4 PUSH2 0x33C JUMP JUMPDEST PUSH2 0xF8 JUMP JUMPDEST PUSH1 0x40 MLOAD SWAP1 ISZERO ISZERO DUP2 MSTORE PUSH1 0x20 ADD PUSH2 0x93 JUMP JUMPDEST PUSH1 0x2 SLOAD PUSH2 0x7F SWAP1 PUSH1 0x1 PUSH1 0x1 PUSH1 0xA0 SHL SUB AND DUP2 JUMP JUMPDEST PUSH1 0x0 SLOAD PUSH2 0x7F SWAP1 PUSH1 0x1 PUSH1 0x1 PUSH1 0xA0 SHL SUB AND DUP2 JUMP JUMPDEST PUSH2 0xAF PUSH2 0xF3 CALLDATASIZE PUSH1 0x4 PUSH2 0x33C JUMP JUMPDEST PUSH2 0x239 JUMP JUMPDEST PUSH1 0x0 PUSH2 0x125 PUSH1 0x40 MLOAD DUP1 PUSH1 0x80 ADD PUSH1 0x40 MSTORE DUP1 PUSH1 0x0 DUP2 MSTORE PUSH1 0x20 ADD PUSH1 0x0 DUP2 MSTORE PUSH1 0x20 ADD PUSH1 0x0 DUP2 MSTORE PUSH1 0x20 ADD PUSH1 0x60 DUP2 MSTORE POP SWAP1 JUMP JUMPDEST PUSH1 0xC0 DUP4 ADD MLOAD PUSH1 0x20 DUP3 DUP2 ADD SWAP2 SWAP1 SWAP2 MSTORE PUSH1 0xE0 DUP5 ADD MLOAD DUP3 MSTORE PUSH2 0x100 DUP5 ADD MLOAD PUSH1 0x40 DUP1 DUP5 ADD SWAP2 SWAP1 SWAP2 MSTORE DUP1 MLOAD DUP1 DUP3 ADD DUP3 MSTORE PUSH1 0x5 DUP2 MSTORE PUSH5 0x5175657279 PUSH1 0xD8 SHL SWAP3 DUP2 ADD SWAP3 SWAP1 SWAP3 MSTORE PUSH1 0x60 DUP4 ADD SWAP2 SWAP1 SWAP2 MSTORE PUSH1 0x2 SLOAD SWAP1 MLOAD PUSH4 0x5802C3F7 PUSH1 0xE0 SHL DUP2 MSTORE PUSH1 0x1 PUSH1 0x1 PUSH1 0xA0 SHL SUB SWAP1 SWAP2 AND SWAP1 PUSH4 0x5802C3F7 SWAP1 PUSH2 0x1A3 SWAP1 DUP10 SWAP1 DUP10 SWAP1 DUP10 SWAP1 DUP10 SWAP1 DUP9 SWAP1 PUSH1 0x4 ADD PUSH2 0x4F5 JUMP JUMPDEST PUSH1 0x20 PUSH1 0x40 MLOAD DUP1 DUP4 SUB DUP2 DUP7 DUP1 EXTCODESIZE ISZERO DUP1 ISZERO PUSH2 0x1BB JUMPI PUSH1 0x0 DUP1 REVERT JUMPDEST POP GAS STATICCALL ISZERO DUP1 ISZERO PUSH2 0x1CF JUMPI RETURNDATASIZE PUSH1 0x0 DUP1 RETURNDATACOPY RETURNDATASIZE PUSH1 0x0 REVERT JUMPDEST POP POP POP POP PUSH1 0x40 MLOAD RETURNDATASIZE PUSH1 0x1F NOT PUSH1 0x1F DUP3 ADD AND DUP3 ADD DUP1 PUSH1 0x40 MSTORE POP DUP2 ADD SWAP1 PUSH2 0x1F3 SWAP2 SWAP1 PUSH2 0x42D JUMP JUMPDEST ISZERO PUSH2 0x22B JUMPI POP POP PUSH1 0x0 DUP1 SLOAD PUSH32 0xFFFFFFFFFFFFFFFFFFFFFFFF0000000000000000000000000000000000000000 AND CALLER OR SWAP1 SSTORE PUSH1 0x1 PUSH2 0x231 JUMP JUMPDEST PUSH1 0x0 SWAP2 POP POP JUMPDEST SWAP5 SWAP4 POP POP POP POP JUMP JUMPDEST PUSH1 0x0 PUSH2 0x266 PUSH1 0x40 MLOAD DUP1 PUSH1 0x80 ADD PUSH1 0x40 MSTORE DUP1 PUSH1 0x0 DUP2 MSTORE PUSH1 0x20 ADD PUSH1 0x0 DUP2 MSTORE PUSH1 0x20 ADD PUSH1 0x0 DUP2 MSTORE PUSH1 0x20 ADD PUSH1 0x60 DUP2 MSTORE POP SWAP1 JUMP JUMPDEST PUSH1 0xC0 DUP4 ADD MLOAD DUP2 MSTORE PUSH1 0xE0 DUP4 ADD MLOAD PUSH1 0x20 DUP3 DUP2 ADD SWAP2 SWAP1 SWAP2 MSTORE PUSH2 0x100 DUP5 ADD MLOAD PUSH1 0x40 DUP1 DUP5 ADD SWAP2 SWAP1 SWAP2 MSTORE DUP1 MLOAD DUP1 DUP3 ADD DUP3 MSTORE PUSH1 0x5 DUP2 MSTORE PUSH5 0x5175657279 PUSH1 0xD8 SHL SWAP3 DUP2 ADD SWAP3 SWAP1 SWAP3 MSTORE PUSH1 0x60 DUP4 ADD SWAP2 SWAP1 SWAP2 MSTORE PUSH1 0x1 SLOAD SWAP1 MLOAD PUSH4 0x5802C3F7 PUSH1 0xE0 SHL DUP2 MSTORE PUSH1 0x1 PUSH1 0x1 PUSH1 0xA0 SHL SUB SWAP1 SWAP2 AND SWAP1 PUSH4 0x5802C3F7 SWAP1 PUSH2 0x1A3 SWAP1 DUP10 SWAP1 DUP10 SWAP1 DUP10 SWAP1 DUP10 SWAP1 DUP9 SWAP1 PUSH1 0x4 ADD PUSH2 0x4F5 JUMP JUMPDEST PUSH1 0x0 DUP3 PUSH1 0x1F DUP4 ADD SLT PUSH2 0x2F5 JUMPI PUSH1 0x0 DUP1 REVERT JUMPDEST PUSH2 0x2FD PUSH2 0x58F JUMP JUMPDEST DUP1 DUP4 DUP6 PUSH1 0x40 DUP7 ADD GT ISZERO PUSH2 0x30F JUMPI PUSH1 0x0 DUP1 REVERT JUMPDEST PUSH1 0x0 JUMPDEST PUSH1 0x2 DUP2 LT ISZERO PUSH2 0x331 JUMPI DUP2 CALLDATALOAD DUP5 MSTORE PUSH1 0x20 SWAP4 DUP5 ADD SWAP4 SWAP1 SWAP2 ADD SWAP1 PUSH1 0x1 ADD PUSH2 0x312 JUMP JUMPDEST POP SWAP1 SWAP6 SWAP5 POP POP POP POP POP JUMP JUMPDEST PUSH1 0x0 DUP1 PUSH1 0x0 DUP1 PUSH2 0x220 DUP1 DUP7 DUP9 SUB SLT ISZERO PUSH2 0x354 JUMPI PUSH1 0x0 DUP1 REVERT JUMPDEST PUSH2 0x35E DUP8 DUP8 PUSH2 0x2E4 JUMP JUMPDEST SWAP5 POP PUSH1 0x40 DUP8 PUSH1 0x5F DUP9 ADD SLT PUSH2 0x371 JUMPI PUSH1 0x0 DUP1 REVERT JUMPDEST PUSH2 0x379 PUSH2 0x58F JUMP JUMPDEST DUP1 DUP3 DUP10 ADD PUSH1 0xC0 DUP11 ADD DUP12 DUP2 GT ISZERO PUSH2 0x38E JUMPI PUSH1 0x0 DUP1 REVERT JUMPDEST PUSH1 0x0 JUMPDEST PUSH1 0x2 DUP2 LT ISZERO PUSH2 0x3B8 JUMPI PUSH2 0x3A4 DUP14 DUP5 PUSH2 0x2E4 JUMP JUMPDEST DUP6 MSTORE PUSH1 0x20 SWAP1 SWAP5 ADD SWAP4 SWAP2 DUP6 ADD SWAP2 PUSH1 0x1 ADD PUSH2 0x391 JUMP JUMPDEST POP DUP3 SWAP9 POP PUSH2 0x3C6 DUP13 DUP3 PUSH2 0x2E4 JUMP JUMPDEST SWAP8 POP POP POP POP POP POP DUP7 PUSH2 0x11F DUP8 ADD SLT PUSH2 0x3DD JUMPI PUSH1 0x0 DUP1 REVERT JUMPDEST PUSH2 0x3E5 PUSH2 0x5C6 JUMP JUMPDEST DUP1 PUSH2 0x100 DUP9 ADD DUP10 DUP5 DUP11 ADD GT ISZERO PUSH2 0x3FA JUMPI PUSH1 0x0 DUP1 REVERT JUMPDEST PUSH1 0x0 SWAP4 POP JUMPDEST PUSH1 0x9 DUP5 LT ISZERO PUSH2 0x41F JUMPI DUP1 CALLDATALOAD DUP4 MSTORE PUSH1 0x1 SWAP4 SWAP1 SWAP4 ADD SWAP3 PUSH1 0x20 SWAP3 DUP4 ADD SWAP3 ADD PUSH2 0x3FF JUMP JUMPDEST POP SWAP6 SWAP9 SWAP5 SWAP8 POP SWAP3 SWAP6 POP POP POP POP JUMP JUMPDEST PUSH1 0x0 PUSH1 0x20 DUP3 DUP5 SUB SLT ISZERO PUSH2 0x43F JUMPI PUSH1 0x0 DUP1 REVERT JUMPDEST DUP2 MLOAD DUP1 ISZERO ISZERO DUP2 EQ PUSH2 0x44F JUMPI PUSH1 0x0 DUP1 REVERT JUMPDEST SWAP4 SWAP3 POP POP POP JUMP JUMPDEST DUP1 PUSH1 0x0 JUMPDEST PUSH1 0x2 DUP2 LT ISZERO PUSH2 0x479 JUMPI DUP2 MLOAD DUP5 MSTORE PUSH1 0x20 SWAP4 DUP5 ADD SWAP4 SWAP1 SWAP2 ADD SWAP1 PUSH1 0x1 ADD PUSH2 0x45A JUMP JUMPDEST POP POP POP POP JUMP JUMPDEST DUP1 MLOAD DUP3 MSTORE PUSH1 0x0 PUSH1 0x20 DUP1 DUP4 ADD MLOAD DUP2 DUP6 ADD MSTORE PUSH1 0x40 DUP4 ADD MLOAD PUSH1 0x40 DUP6 ADD MSTORE PUSH1 0x60 DUP4 ADD MLOAD PUSH1 0x80 PUSH1 0x60 DUP7 ADD MSTORE DUP1 MLOAD DUP1 PUSH1 0x80 DUP8 ADD MSTORE PUSH1 0x0 JUMPDEST DUP2 DUP2 LT ISZERO PUSH2 0x4CC JUMPI DUP3 DUP2 ADD DUP5 ADD MLOAD DUP8 DUP3 ADD PUSH1 0xA0 ADD MSTORE DUP4 ADD PUSH2 0x4B0 JUMP JUMPDEST DUP2 DUP2 GT ISZERO PUSH2 0x4DE JUMPI PUSH1 0x0 PUSH1 0xA0 DUP4 DUP10 ADD ADD MSTORE JUMPDEST POP PUSH1 0x1F ADD PUSH1 0x1F NOT AND SWAP5 SWAP1 SWAP5 ADD PUSH1 0xA0 ADD SWAP5 SWAP4 POP POP POP POP JUMP JUMPDEST PUSH1 0x0 PUSH2 0x240 PUSH2 0x504 DUP4 DUP10 PUSH2 0x456 JUMP JUMPDEST PUSH1 0x40 DUP1 DUP5 ADD DUP9 PUSH1 0x0 JUMPDEST PUSH1 0x2 DUP2 LT ISZERO PUSH2 0x534 JUMPI PUSH2 0x521 DUP4 DUP4 MLOAD PUSH2 0x456 JUMP JUMPDEST SWAP2 DUP4 ADD SWAP2 PUSH1 0x20 SWAP2 SWAP1 SWAP2 ADD SWAP1 PUSH1 0x1 ADD PUSH2 0x50D JUMP JUMPDEST POP POP POP POP PUSH2 0x545 PUSH1 0xC0 DUP5 ADD DUP8 PUSH2 0x456 JUMP JUMPDEST PUSH2 0x100 DUP4 ADD DUP6 PUSH1 0x0 JUMPDEST PUSH1 0x9 DUP2 LT ISZERO PUSH2 0x56D JUMPI DUP2 MLOAD DUP4 MSTORE PUSH1 0x20 SWAP3 DUP4 ADD SWAP3 SWAP1 SWAP2 ADD SWAP1 PUSH1 0x1 ADD PUSH2 0x54E JUMP JUMPDEST POP POP POP DUP1 PUSH2 0x220 DUP5 ADD MSTORE PUSH2 0x583 DUP2 DUP5 ADD DUP6 PUSH2 0x47F JUMP JUMPDEST SWAP9 SWAP8 POP POP POP POP POP POP POP POP JUMP JUMPDEST PUSH1 0x40 DUP1 MLOAD SWAP1 DUP2 ADD PUSH8 0xFFFFFFFFFFFFFFFF DUP2 GT DUP3 DUP3 LT OR ISZERO PUSH2 0x5C0 JUMPI PUSH4 0x4E487B71 PUSH1 0xE0 SHL PUSH1 0x0 MSTORE PUSH1 0x41 PUSH1 0x4 MSTORE PUSH1 0x24 PUSH1 0x0 REVERT JUMPDEST PUSH1 0x40 MSTORE SWAP1 JUMP JUMPDEST PUSH1 0x40 MLOAD PUSH2 0x120 DUP2 ADD PUSH8 0xFFFFFFFFFFFFFFFF DUP2 GT DUP3 DUP3 LT OR ISZERO PUSH2 0x5C0 JUMPI PUSH4 0x4E487B71 PUSH1 0xE0 SHL PUSH1 0x0 MSTORE PUSH1 0x41 PUSH1 0x4 MSTORE PUSH1 0x24 PUSH1 0x0 REVERT INVALID LOG2 PUSH5 0x6970667358 0x22 SLT KECCAK256 KECCAK256 0xB2 PUSH29 0x4D23D7F2911BBE1D2F165178B7DA7674AC4927C809646154D7A516F192 PUSH5 0x736F6C6343 STOP ADDMOD SMOD STOP CALLER "},"methodIdentifiers":{"mtpValidator()":"6a1c4be1","owner()":"8da5cb5b","sigValidator()":"79501bf6","verifyMTP(uint256[2],uint256[2][2],uint256[2],uint256[9])":"e125bcb5","verifySig(uint256[2],uint256[2][2],uint256[2],uint256[9])":"73b39ab9"}},"storageLayout":{"storage":[{"astId":1130,"contract":"contracts/test/TestValidator.sol:TestValidator","label":"owner","offset":0,"slot":"0","type":"t_address"},{"astId":1133,"contract":"contracts/test/TestValidator.sol:TestValidator","label":"mtpValidator","offset":0,"slot":"1","type":"t_contract(IValidator)732"},{"astId":1136,"contract":"contracts/test/TestValidator.sol:TestValidator","label":"sigValidator","offset":0,"slot":"2","type":"t_contract(IValidator)732"}],"types":{"t_address":{"encoding":"inplace","label":"address","numberOfBytes":"20"},"t_contract(IValidator)732":{"encoding":"inplace","label":"contract IValidator","numberOfBytes":"20"}}}}}}