{
  "_format": "hh-sol-artifact-1",
  "contractName": "QueryVerifier",
  "sourceName": "contracts/verifiers/QueryVerifier.sol",
  "abi": [
    {
      "inputs": [
        {
          "internalType": "uint256[2]",
          "name": "a",
          "type": "uint256[2]"
        },
        {
          "internalType": "uint256[2][2]",
          "name": "b",
          "type": "uint256[2][2]"
        },
        {
          "internalType": "uint256[2]",
          "name": "c",
          "type": "uint256[2]"
        },
        {
          "internalType": "uint256[9]",
          "name": "input",
          "type": "uint256[9]"
        }
      ],
      "name": "verifyProof",
      "outputs": [
        {
          "internalType": "bool",
          "name": "r",
          "type": "bool"
        }
      ],
      "stateMutability": "view",
      "type": "function"
    }
  ],
  "bytecode": "0x608060405234801561001057600080fd5b5061158b806100206000396000f3fe608060405234801561001057600080fd5b506004361061002b5760003560e01c8063c542c93b14610030575b600080fd5b61004361003e36600461132e565b610057565b604051901515815260200160405180910390f35b600061006161119c565b60408051808201825287518152602080890151818301529083528151608081018352875151818401908152885183015160608301528152825180840184528883018051518252518301518184015281830152838201528151808301835286518152868201518183015283830152815160098082526101408201909352600092909182016101208036833701905050905060005b60098110156101435784816009811061010f5761010f611529565b602002015182828151811061012657610126611529565b60209081029190910101528061013b816114d6565b9150506100f4565b5061014e818361016c565b61015d57600192505050610164565b6000925050505b949350505050565b60007f30644e72e131a029b85045b68181585d2833e84879b9709143e1f593f00000018161019861036e565b9050806080015151855160016101ae9190611488565b146102005760405162461bcd60e51b815260206004820152601260248201527f76657269666965722d6261642d696e707574000000000000000000000000000060448201526064015b60405180910390fd5b604080518082019091526000808252602082018190525b86518110156102f1578387828151811061023357610233611529565b6020026020010151106102885760405162461bcd60e51b815260206004820152601f60248201527f76657269666965722d6774652d736e61726b2d7363616c61722d6669656c640060448201526064016101f7565b6102dd826102d885608001518460016102a19190611488565b815181106102b1576102b1611529565b60200260200101518a85815181106102cb576102cb611529565b6020026020010151610ac2565b610b69565b9150806102e9816114d6565b915050610217565b5061031a81836080015160008151811061030d5761030d611529565b6020026020010151610b69565b905061035061032c8660000151610c0c565b8660200151846000015185602001518587604001518b604001518960600151610cab565b6103605760019350505050610368565b600093505050505b92915050565b6103766111ed565b6040805180820182527f0b5dcd20b2c877922f1dc6b9ab7612a488a4960cf6a50d634ce5edd3b4aa752c81527f169014d5471334ecce07b840a4c8805ff5f56f53c9db7df42302d095eb80e8926020808301919091529083528151608080820184527f1df093d824dd1701460f1052df89350d338b2410321b80bff70ac2e82fa82ea88285019081527f0760439e8ad5d8cc95834ec7f5b24c4ef0751ee6a2bf19ff47d20ded514448a8606080850191909152908352845180860186527f2537195b41b650638f1a3f1321794d0b3f8a5262d125a230fd0c8d207e7dec1981527f23956c43a3927d35d6ae322bcb65bddab490acd4387bc708ae55d583a96287f0818601528385015285840192909252835180820185527f198e9393920d483a7260bfb731fb5d25f1aa493335a9e71297e485b7aef312c28186019081527f1800deef121f1e76426a00665e5c4479674322d4f75edadd46debd5cd992f6ed828501528152845180860186527f090689d0585ff075ec9e99ad690c3395bc4b313370b38ef355acdadcd122975b81527f12c85ea5db8c6deb4aab71808dcb408fe3d1e7690c43d37b4ce6cc0166fa7daa818601528185015285850152835190810184527f1bdb443ce61ebcf93daed4215a57e1cec90ca64973023e31197a112e8cee72f68185019081527f117e26c4235f42625b3404f2973059814ff260dba7176d7aae910f493a8e1fb5828401528152835180850185527f196e247a12f580e36894f256f0c122393489b4c213b3e913250feee806ca45ff81527f2fedff4e4bbcbf9f1c56e28a060d50eef5f54e2aab897f6b465acd2ed005ae918185015281840152908401528151600a8082526101608201909352919082015b60408051808201909152600080825260208201528152602001906001900390816105f257505060808201908152604080518082019091527f170601b748ae8175b7b7091bb8a4bde8ce02518b8c2fa81960a75c8c5b1576d081527f08ad977114581e71332fcbde308d5d51450c4bf5c53187afe45681b4a612c12060208201529051805160009061068557610685611529565b602002602001018190525060405180604001604052807f19d4c28801427d061f5e567a441aa8ba21685f0a3842439733620e1d46b1a7fc81526020017f1cb038a19001d28b6ad7e559e0e074dc34004f693a8c4d4566383e2a080c9c3f81525081608001516001815181106106fc576106fc611529565b602002602001018190525060405180604001604052807f29b64a4f254fc477bfbf81c7dd2ccac03cbb1b1731c94d098bbf2c94605f3bf481526020017f227591cc7a098aa47d62160316b4040b0d7f20c3f463b5c7f27caec31600ddc8815250816080015160028151811061077357610773611529565b602002602001018190525060405180604001604052807f289ba0c64fbabed2f67958052004c03acb11e18421b0de630fef3ea3c4fb977781526020017f21d36891465c169ddf2d622f23d9fc580268553a6aa9219054ed828e576cf4aa81525081608001516003815181106107ea576107ea611529565b602002602001018190525060405180604001604052807f220551a435a08e795f5d0cae30d73053a038fbfebd973ff76c4dc660bd87b4da81526020017f2cca9899d62db3db987cd6587cbc93250412bb7ef16904bbd325824a57b867e7815250816080015160048151811061086157610861611529565b602002602001018190525060405180604001604052807f156673867371ab3482f83bd6230e09c721224bceb803dcf84a76753bd098f19581526020017f0fbf9328aa10be601e403b4f3b3b8ab86409ddd26076fbd70cfede1ad28be3c481525081608001516005815181106108d8576108d8611529565b602002602001018190525060405180604001604052807f104b97b6edf888296d93ac2d7318fb212b8a037a76515301a1aa2c413bf4e54c81526020017f0938474fff7169eae21ae1fadc6c9847a549bd16b4ddba4cb77e773bb1487c96815250816080015160068151811061094f5761094f611529565b602002602001018190525060405180604001604052807f247b8505da9407bb290a10b26e0bb5a69679e5de39a70f8a8665546d239c4dab81526020017f2513a27ec5de6e92546610957f20aa2c17b55adc531e3958c7b1d6ef7eb2c15681525081608001516007815181106109c6576109c6611529565b602002602001018190525060405180604001604052807f304a58da8459613dea3e3a278a3f0efea918022eb816db0cd82c2dce87fef4eb81526020017f1bb027b62ea536480fc057480ce52a91d4b6015e2316390e30efcd10f84a09d98152508160800151600881518110610a3d57610a3d611529565b602002602001018190525060405180604001604052807f1f368cf3c4227dead46d19b22b7a77171966e8f10264abc0961f28b9e57264f281526020017f0e5c84d54ccc5552fb2175991d16cc169cefb453770b9506eaa193b743f303ef8152508160800151600981518110610ab457610ab4611529565b602002602001018190525090565b6040805180820190915260008082526020820152610ade61123e565b835181526020808501519082015260408101839052600060608360808460076107d05a03fa9050808015610b1157610b13565bfe5b5080610b615760405162461bcd60e51b815260206004820152601260248201527f70616972696e672d6d756c2d6661696c6564000000000000000000000000000060448201526064016101f7565b505092915050565b6040805180820190915260008082526020820152610b8561125c565b8351815260208085015181830152835160408301528301516060808301919091526000908360c08460066107d05a03fa9050808015610b11575080610b615760405162461bcd60e51b815260206004820152601260248201527f70616972696e672d6164642d6661696c6564000000000000000000000000000060448201526064016101f7565b604080518082019091526000808252602082015281517f30644e72e131a029b85045b68181585d97816a916871ca8d3c208c16d87cfd4790158015610c5357506020830151155b15610c735750506040805180820190915260008082526020820152919050565b604051806040016040528084600001518152602001828560200151610c9891906114f1565b610ca290846114bf565b90529392505050565b60408051600480825260a08201909252600091829190816020015b6040805180820190915260008082526020820152815260200190600190039081610cc657505060408051600480825260a0820190925291925060009190602082015b610d1061127a565b815260200190600190039081610d085790505090508a82600081518110610d3957610d39611529565b60200260200101819052508882600181518110610d5857610d58611529565b60200260200101819052508682600281518110610d7757610d77611529565b60200260200101819052508482600381518110610d9657610d96611529565b60200260200101819052508981600081518110610db557610db5611529565b60200260200101819052508781600181518110610dd457610dd4611529565b60200260200101819052508581600281518110610df357610df3611529565b60200260200101819052508381600381518110610e1257610e12611529565b6020026020010181905250610e278282610e36565b9b9a5050505050505050505050565b60008151835114610e895760405162461bcd60e51b815260206004820152601660248201527f70616972696e672d6c656e677468732d6661696c65640000000000000000000060448201526064016101f7565b82516000610e988260066114a0565b905060008167ffffffffffffffff811115610eb557610eb561153f565b604051908082528060200260200182016040528015610ede578160200160208202803683370190505b50905060005b8381101561111957868181518110610efe57610efe611529565b60200260200101516000015182826006610f1891906114a0565b610f23906000611488565b81518110610f3357610f33611529565b602002602001018181525050868181518110610f5157610f51611529565b60200260200101516020015182826006610f6b91906114a0565b610f76906001611488565b81518110610f8657610f86611529565b602002602001018181525050858181518110610fa457610fa4611529565b6020908102919091010151515182610fbd8360066114a0565b610fc8906002611488565b81518110610fd857610fd8611529565b602002602001018181525050858181518110610ff657610ff6611529565b602090810291909101810151510151826110118360066114a0565b61101c906003611488565b8151811061102c5761102c611529565b60200260200101818152505085818151811061104a5761104a611529565b60200260200101516020015160006002811061106857611068611529565b6020020151826110798360066114a0565b611084906004611488565b8151811061109457611094611529565b6020026020010181815250508581815181106110b2576110b2611529565b6020026020010151602001516001600281106110d0576110d0611529565b6020020151826110e18360066114a0565b6110ec906005611488565b815181106110fc576110fc611529565b602090810291909101015280611111816114d6565b915050610ee4565b5061112261129a565b6000602082602086026020860160086107d05a03fa9050808015610b1157508061118e5760405162461bcd60e51b815260206004820152601560248201527f70616972696e672d6f70636f64652d6661696c6564000000000000000000000060448201526064016101f7565b505115159695505050505050565b6040805160a0810190915260006060820181815260808301919091528152602081016111c661127a565b81526020016111e8604051806040016040528060008152602001600081525090565b905290565b6040805160e08101909152600060a0820181815260c083019190915281526020810161121761127a565b815260200161122461127a565b815260200161123161127a565b8152602001606081525090565b60405180606001604052806003906020820280368337509192915050565b60405180608001604052806004906020820280368337509192915050565b604051806040016040528061128d6112b8565b81526020016111e86112b8565b60405180602001604052806001906020820280368337509192915050565b60405180604001604052806002906020820280368337509192915050565b600082601f8301126112e757600080fd5b6112ef61141f565b80838560408601111561130157600080fd5b60005b6002811015611323578135845260209384019390910190600101611304565b509095945050505050565b60008060008061022080868803121561134657600080fd5b61135087876112d6565b9450604087605f88011261136357600080fd5b61136b61141f565b8082890160c08a018b81111561138057600080fd5b60005b60028110156113aa576113968d846112d6565b855260209094019391850191600101611383565b508298506113b88c826112d6565b975050505050508661011f8701126113cf57600080fd5b6113d7611456565b80610100880189848a0111156113ec57600080fd5b600093505b6009841015611411578035835260019390930192602092830192016113f1565b509598949750929550505050565b6040805190810167ffffffffffffffff8111828210171561145057634e487b7160e01b600052604160045260246000fd5b60405290565b604051610120810167ffffffffffffffff8111828210171561145057634e487b7160e01b600052604160045260246000fd5b6000821982111561149b5761149b611513565b500190565b60008160001904831182151516156114ba576114ba611513565b500290565b6000828210156114d1576114d1611513565b500390565b60006000198214156114ea576114ea611513565b5060010190565b60008261150e57634e487b7160e01b600052601260045260246000fd5b500690565b634e487b7160e01b600052601160045260246000fd5b634e487b7160e01b600052603260045260246000fd5b634e487b7160e01b600052604160045260246000fdfea26469706673582212204070325a3aecd8867a2735e60db56828abbe64a77cb9947fea21f451c38d7e5164736f6c63430008070033",
  "linkReferences": {},
  "deployedLinkReferences": {}
}