{
  "_format": "hh-sol-artifact-1",
  "contractName": "State",
  "sourceName": "contracts/State.sol",
  "abi": [
    {
      "anonymous": false,
      "inputs": [
        {
          "indexed": false,
          "internalType": "uint8",
          "name": "version",
          "type": "uint8"
        }
      ],
      "name": "Initialized",
      "type": "event"
    },
    {
      "anonymous": false,
      "inputs": [
        {
          "indexed": true,
          "internalType": "address",
          "name": "previousOwner",
          "type": "address"
        },
        {
          "indexed": true,
          "internalType": "address",
          "name": "newOwner",
          "type": "address"
        }
      ],
      "name": "OwnershipTransferred",
      "type": "event"
    },
    {
      "anonymous": false,
      "inputs": [
        {
          "indexed": false,
          "internalType": "uint256",
          "name": "id",
          "type": "uint256"
        },
        {
          "indexed": false,
          "internalType": "uint64",
          "name": "blockN",
          "type": "uint64"
        },
        {
          "indexed": false,
          "internalType": "uint64",
          "name": "timestamp",
          "type": "uint64"
        },
        {
          "indexed": false,
          "internalType": "uint256",
          "name": "state",
          "type": "uint256"
        }
      ],
      "name": "StateUpdated",
      "type": "event"
    },
    {
      "inputs": [
        {
          "internalType": "uint256",
          "name": "id",
          "type": "uint256"
        }
      ],
      "name": "getState",
      "outputs": [
        {
          "internalType": "uint256",
          "name": "",
          "type": "uint256"
        }
      ],
      "stateMutability": "view",
      "type": "function"
    },
    {
      "inputs": [
        {
          "internalType": "uint256",
          "name": "id",
          "type": "uint256"
        },
        {
          "internalType": "uint64",
          "name": "blockN",
          "type": "uint64"
        }
      ],
      "name": "getStateDataByBlock",
      "outputs": [
        {
          "internalType": "uint64",
          "name": "",
          "type": "uint64"
        },
        {
          "internalType": "uint64",
          "name": "",
          "type": "uint64"
        },
        {
          "internalType": "uint256",
          "name": "",
          "type": "uint256"
        }
      ],
      "stateMutability": "view",
      "type": "function"
    },
    {
      "inputs": [
        {
          "internalType": "uint256",
          "name": "id",
          "type": "uint256"
        }
      ],
      "name": "getStateDataById",
      "outputs": [
        {
          "internalType": "uint64",
          "name": "",
          "type": "uint64"
        },
        {
          "internalType": "uint64",
          "name": "",
          "type": "uint64"
        },
        {
          "internalType": "uint256",
          "name": "",
          "type": "uint256"
        }
      ],
      "stateMutability": "view",
      "type": "function"
    },
    {
      "inputs": [
        {
          "internalType": "uint256",
          "name": "id",
          "type": "uint256"
        },
        {
          "internalType": "uint64",
          "name": "timestamp",
          "type": "uint64"
        }
      ],
      "name": "getStateDataByTime",
      "outputs": [
        {
          "internalType": "uint64",
          "name": "",
          "type": "uint64"
        },
        {
          "internalType": "uint64",
          "name": "",
          "type": "uint64"
        },
        {
          "internalType": "uint256",
          "name": "",
          "type": "uint256"
        }
      ],
      "stateMutability": "view",
      "type": "function"
    },
    {
      "inputs": [
        {
          "internalType": "uint256",
          "name": "state",
          "type": "uint256"
        }
      ],
      "name": "getTransitionInfo",
      "outputs": [
        {
          "internalType": "uint256",
          "name": "",
          "type": "uint256"
        },
        {
          "internalType": "uint256",
          "name": "",
          "type": "uint256"
        },
        {
          "internalType": "uint64",
          "name": "",
          "type": "uint64"
        },
        {
          "internalType": "uint64",
          "name": "",
          "type": "uint64"
        },
        {
          "internalType": "uint256",
          "name": "",
          "type": "uint256"
        },
        {
          "internalType": "uint256",
          "name": "",
          "type": "uint256"
        }
      ],
      "stateMutability": "view",
      "type": "function"
    },
    {
      "inputs": [
        {
          "internalType": "uint256",
          "name": "",
          "type": "uint256"
        },
        {
          "internalType": "uint256",
          "name": "",
          "type": "uint256"
        }
      ],
      "name": "identities",
      "outputs": [
        {
          "internalType": "uint64",
          "name": "BlockN",
          "type": "uint64"
        },
        {
          "internalType": "uint64",
          "name": "BlockTimeStamp",
          "type": "uint64"
        },
        {
          "internalType": "uint256",
          "name": "State",
          "type": "uint256"
        }
      ],
      "stateMutability": "view",
      "type": "function"
    },
    {
      "inputs": [
        {
          "internalType": "contract IStateVerifier",
          "name": "_verifierContractAddr",
          "type": "address"
        }
      ],
      "name": "initialize",
      "outputs": [],
      "stateMutability": "nonpayable",
      "type": "function"
    },
    {
      "inputs": [],
      "name": "owner",
      "outputs": [
        {
          "internalType": "address",
          "name": "",
          "type": "address"
        }
      ],
      "stateMutability": "view",
      "type": "function"
    },
    {
      "inputs": [],
      "name": "renounceOwnership",
      "outputs": [],
      "stateMutability": "nonpayable",
      "type": "function"
    },
    {
      "inputs": [
        {
          "internalType": "address",
          "name": "newVerifier",
          "type": "address"
        }
      ],
      "name": "setVerifier",
      "outputs": [],
      "stateMutability": "nonpayable",
      "type": "function"
    },
    {
      "inputs": [
        {
          "internalType": "address",
          "name": "newOwner",
          "type": "address"
        }
      ],
      "name": "transferOwnership",
      "outputs": [],
      "stateMutability": "nonpayable",
      "type": "function"
    },
    {
      "inputs": [
        {
          "internalType": "uint256",
          "name": "id",
          "type": "uint256"
        },
        {
          "internalType": "uint256",
          "name": "oldState",
          "type": "uint256"
        },
        {
          "internalType": "uint256",
          "name": "newState",
          "type": "uint256"
        },
        {
          "internalType": "bool",
          "name": "isOldStateGenesis",
          "type": "bool"
        },
        {
          "internalType": "uint256[2]",
          "name": "a",
          "type": "uint256[2]"
        },
        {
          "internalType": "uint256[2][2]",
          "name": "b",
          "type": "uint256[2][2]"
        },
        {
          "internalType": "uint256[2]",
          "name": "c",
          "type": "uint256[2]"
        }
      ],
      "name": "transitState",
      "outputs": [],
      "stateMutability": "nonpayable",
      "type": "function"
    },
    {
      "inputs": [
        {
          "internalType": "uint256",
          "name": "",
          "type": "uint256"
        }
      ],
      "name": "transitions",
      "outputs": [
        {
          "internalType": "uint256",
          "name": "replaceAtTimestamp",
          "type": "uint256"
        },
        {
          "internalType": "uint256",
          "name": "createAtTimestamp",
          "type": "uint256"
        },
        {
          "internalType": "uint64",
          "name": "replacedAtBlock",
          "type": "uint64"
        },
        {
          "internalType": "uint64",
          "name": "createdAtBlock",
          "type": "uint64"
        },
        {
          "internalType": "uint256",
          "name": "id",
          "type": "uint256"
        },
        {
          "internalType": "uint256",
          "name": "replaceBy",
          "type": "uint256"
        }
      ],
      "stateMutability": "view",
      "type": "function"
    },
    {
      "inputs": [],
      "name": "verifier",
      "outputs": [
        {
          "internalType": "contract IStateVerifier",
          "name": "",
          "type": "address"
        }
      ],
      "stateMutability": "view",
      "type": "function"
    }
  ],
  "bytecode": "0x608060405234801561001057600080fd5b50611b16806100206000396000f3fe608060405234801561001057600080fd5b50600436106100ea5760003560e01c80638da5cb5b1161008c578063c8d1e53e11610066578063c8d1e53e146102ae578063d8dcd971146102c1578063e20490b5146102d4578063f2fde38b146102e757600080fd5b80638da5cb5b14610237578063bb79571514610248578063c4d66de81461029b57600080fd5b806344c9af28116100c857806344c9af281461016e5780635437988d1461018f578063683ace65146101a2578063715018a61461022f57600080fd5b80630281bec2146100ef57806328f88a651461012e5780632b7ac3f314610143575b600080fd5b6101026100fd36600461191f565b6102fa565b6040805167ffffffffffffffff9485168152939092166020840152908201526060015b60405180910390f35b61014161013c366004611858565b61076f565b005b606554610156906001600160a01b031681565b6040516001600160a01b039091168152602001610125565b61018161017c36600461181d565b610fa6565b604051908152602001610125565b61014161019d3660046117dc565b611006565b6101f46101b036600461181d565b606760205260009081526040902080546001820154600283015460038401546004909401549293919267ffffffffffffffff80831693600160401b90930416919086565b60408051968752602087019590955267ffffffffffffffff9384169486019490945291166060840152608083015260a082015260c001610125565b61014161103d565b6033546001600160a01b0316610156565b6101f461025636600461181d565b600090815260676020526040902080546001820154600283015460038401546004909401549294919367ffffffffffffffff80831694600160401b9093041692909190565b6101416102a93660046117dc565b611051565b6101026102bc36600461181d565b61119a565b6101026102cf36600461191f565b611245565b6101026102e2366004611836565b611507565b6101416102f53660046117dc565b611559565b6000806000428467ffffffffffffffff161061035d5760405162461bcd60e51b815260206004820152601260248201527f6572724e6f467574757265416c6c6f776564000000000000000000000000000060448201526064015b60405180910390fd5b60008581526066602052604090205461037e57506000915081905080610768565b6000858152606660205260408120805461039a90600190611a7a565b815481106103aa576103aa611aa7565b600091825260209091206002909102015467ffffffffffffffff600160401b9091048116915085168110156104c057600086815260666020526040902080546103f590600190611a7a565b8154811061040557610405611aa7565b6000918252602080832060029092029091015488835260669091526040909120805467ffffffffffffffff9092169161044090600190611a7a565b8154811061045057610450611aa7565b6000918252602080832060029290920290910154898352606690915260409091208054600160401b90920467ffffffffffffffff169161049290600190611a7a565b815481106104a2576104a2611aa7565b90600052602060002090600202016001015493509350935050610768565b60008681526066602052604081205481906104dd90600190611a7a565b90505b80821161075957600060026104f58484611a40565b6104ff9190611a58565b60008a8152606660205260409020805491925067ffffffffffffffff8a16918390811061052e5761052e611aa7565b6000918252602090912060029091020154600160401b900467ffffffffffffffff16141561062057600089815260666020526040902080548290811061057657610576611aa7565b600091825260208083206002909202909101548b835260669091526040909120805467ffffffffffffffff90921691839081106105b5576105b5611aa7565b906000526020600020906002020160000160089054906101000a900467ffffffffffffffff16606660008c815260200190815260200160002083815481106105ff576105ff611aa7565b90600052602060002090600202016001015496509650965050505050610768565b600089815260666020526040902080548290811061064057610640611aa7565b600091825260209091206002909102015467ffffffffffffffff600160401b90910481169089161180156106c157506000898152606660205260409020610688826001611a40565b8154811061069857610698611aa7565b600091825260209091206002909102015467ffffffffffffffff600160401b9091048116908916105b156106e657600089815260666020526040902080548290811061057657610576611aa7565b600089815260666020526040902080548290811061070657610706611aa7565b600091825260209091206002909102015467ffffffffffffffff600160401b909104811690891611156107455761073e816001611a40565b9250610753565b610750600182611a7a565b91505b506104e0565b60008060009550955095505050505b9250925092565b836109cf5760008781526066602052604090205461081b5760405162461bcd60e51b815260206004820152605d60248201527f74686572652073686f756c64206265206174206c65617374206f6e652073746160448201527f746520666f72206964656e7469747920696e20736d61727420636f6e7472616360648201527f74207768656e2069734f6c64537461746547656e65736973203d3d2030000000608482015260a401610354565b6000878152606660205260408120805461083790600190611a7a565b8154811061084757610847611aa7565b6000918252602091829020604080516060810182526002909302909101805467ffffffffffffffff808216808652600160401b9092041694840194909452600101549082015291504314156109045760405162461bcd60e51b815260206004820152602160248201527f6e6f206d756c7469706c652073657420696e207468652073616d6520626c6f6360448201527f6b000000000000000000000000000000000000000000000000000000000000006064820152608401610354565b868160400151146109c95760405162461bcd60e51b815260206004820152606c60248201527f6f6c64537461746520617267756d656e742073686f756c64206265206571756160448201527f6c20746f20746865206c6174657374206964656e74697479207374617465206960648201527f6e20736d61727420636f6e7472616374207768656e2069734f6c64537461746560848201527f47656e65736973203d3d2030000000000000000000000000000000000000000060a482015260c401610354565b50610b72565b60008781526066602052604090205415610a775760405162461bcd60e51b815260206004820152605460248201527f54686572652073686f756c64206265206e6f2073746174657320666f7220696460448201527f656e7469747920696e20736d61727420636f6e7472616374207768656e20697360648201527f4f6c64537461746547656e65736973203d3d2031000000000000000000000000608482015260a401610354565b60008681526067602052604090206003015415610ad65760405162461bcd60e51b815260206004820152601960248201527f6f6c6453746174652073686f756c64206e6f74206578697374000000000000006044820152606401610354565b60008681526067602090815260408083206003018a90558983526066825280832081516060810183528481528084018581529281018b81528254600181810185559387529490952090516002909402018054925167ffffffffffffffff908116600160401b027fffffffffffffffffffffffffffffffff0000000000000000000000000000000090941694169390931791909117825591519101555b60008581526067602052604090206003015415610bd15760405162461bcd60e51b815260206004820152601960248201527f6e657753746174652073686f756c64206e6f74206578697374000000000000006044820152606401610354565b6000604051806080016040528089815260200188815260200187815260200186610bfc576000610bff565b60015b60ff1690526065546040517f5fe8c13b0000000000000000000000000000000000000000000000000000000081529192506001600160a01b031690635fe8c13b90610c54908790879087908790600401611985565b60206040518083038186803b158015610c6c57600080fd5b505afa158015610c80573d6000803e3d6000fd5b505050506040513d601f19601f82011682018060405250810190610ca49190611800565b610d165760405162461bcd60e51b815260206004820152603560248201527f7a65726f2d6b6e6f776c656467652070726f6f66206f6620737461746520747260448201527f616e736974696f6e206973206e6f742076616c696400000000000000000000006064820152608401610354565b6066600089815260200190815260200160002060405180606001604052804367ffffffffffffffff1681526020014267ffffffffffffffff16815260200188815250908060018154018082558091505060019003906000526020600020906002020160009091909190915060008201518160000160006101000a81548167ffffffffffffffff021916908367ffffffffffffffff16021790555060208201518160000160086101000a81548167ffffffffffffffff021916908367ffffffffffffffff1602179055506040820151816001015550506040518060c0016040528060008152602001428152602001600067ffffffffffffffff1681526020014267ffffffffffffffff168152602001898152602001600081525060676000888152602001908152602001600020600082015181600001556020820151816001015560408201518160020160006101000a81548167ffffffffffffffff021916908367ffffffffffffffff16021790555060608201518160020160086101000a81548167ffffffffffffffff021916908367ffffffffffffffff1602179055506080820151816003015560a08201518160040155905050426067600089815260200190815260200160002060000181905550436067600089815260200190815260200160002060020160006101000a81548167ffffffffffffffff021916908367ffffffffffffffff1602179055508560676000898152602001908152602001600020600401819055507f81c6f328b24014ef550c34a433275b52f3a8a0f32aa871adec069ab526a0239088434289604051610f94949392919093845267ffffffffffffffff928316602085015291166040830152606082015260800190565b60405180910390a15050505050505050565b600081815260666020526040812054610fc157506000919050565b60008281526066602052604090208054610fdd90600190611a7a565b81548110610fed57610fed611aa7565b9060005260206000209060020201600101549050919050565b61100e6115e9565b6065805473ffffffffffffffffffffffffffffffffffffffff19166001600160a01b0392909216919091179055565b6110456115e9565b61104f6000611643565b565b600054610100900460ff16158080156110715750600054600160ff909116105b8061108b5750303b15801561108b575060005460ff166001145b6110fd5760405162461bcd60e51b815260206004820152602e60248201527f496e697469616c697a61626c653a20636f6e747261637420697320616c72656160448201527f647920696e697469616c697a65640000000000000000000000000000000000006064820152608401610354565b6000805460ff191660011790558015611120576000805461ff0019166101001790555b6065805473ffffffffffffffffffffffffffffffffffffffff19166001600160a01b0384161790556111506116a2565b8015611196576000805461ff0019169055604051600181527f7f26b83ff96e1f2b6a682f133852f6798a09c465da95921460cefb38474024989060200160405180910390a15b5050565b600081815260666020526040812054819081906111bf5750600091508190508061123e565b600084815260666020526040812080546111db90600190611a7a565b815481106111eb576111eb611aa7565b6000918252602091829020604080516060810182526002909302909101805467ffffffffffffffff808216808652600160401b909204169484018590526001909101549290910182905295509093509150505b9193909250565b6000806000438467ffffffffffffffff16106112a35760405162461bcd60e51b815260206004820152601260248201527f6572724e6f467574757265416c6c6f77656400000000000000000000000000006044820152606401610354565b6000858152606660205260409020546112c457506000915081905080610768565b600085815260666020526040812080546112e090600190611a7a565b815481106112f0576112f0611aa7565b600091825260209091206002909102015467ffffffffffffffff9081169150851681101561133457600086815260666020526040902080546103f590600190611a7a565b600086815260666020526040812054819061135190600190611a7a565b90505b80821161075957600060026113698484611a40565b6113739190611a58565b60008a8152606660205260409020805491925067ffffffffffffffff8a1691839081106113a2576113a2611aa7565b600091825260209091206002909102015467ffffffffffffffff1614156113e357600089815260666020526040902080548290811061057657610576611aa7565b600089815260666020526040902080548290811061140357611403611aa7565b600091825260209091206002909102015467ffffffffffffffff90811690891611801561147657506000898152606660205260409020611444826001611a40565b8154811061145457611454611aa7565b600091825260209091206002909102015467ffffffffffffffff908116908916105b1561149b57600089815260666020526040902080548290811061057657610576611aa7565b60008981526066602052604090208054829081106114bb576114bb611aa7565b600091825260209091206002909102015467ffffffffffffffff90811690891611156114f3576114ec816001611a40565b9250611501565b6114fe600182611a7a565b91505b50611354565b6066602052816000526040600020818154811061152357600080fd5b60009182526020909120600290910201805460019091015467ffffffffffffffff8083169450600160401b909204909116915083565b6115616115e9565b6001600160a01b0381166115dd5760405162461bcd60e51b815260206004820152602660248201527f4f776e61626c653a206e6577206f776e657220697320746865207a65726f206160448201527f64647265737300000000000000000000000000000000000000000000000000006064820152608401610354565b6115e681611643565b50565b6033546001600160a01b0316331461104f5760405162461bcd60e51b815260206004820181905260248201527f4f776e61626c653a2063616c6c6572206973206e6f7420746865206f776e65726044820152606401610354565b603380546001600160a01b0383811673ffffffffffffffffffffffffffffffffffffffff19831681179093556040519116919082907f8be0079c531659141344cd1fd0a4f28419497f9722a3daafe3b4186f6b6457e090600090a35050565b600054610100900460ff1661170d5760405162461bcd60e51b815260206004820152602b60248201527f496e697469616c697a61626c653a20636f6e7472616374206973206e6f74206960448201526a6e697469616c697a696e6760a81b6064820152608401610354565b61104f600054610100900460ff1661177b5760405162461bcd60e51b815260206004820152602b60248201527f496e697469616c697a61626c653a20636f6e7472616374206973206e6f74206960448201526a6e697469616c697a696e6760a81b6064820152608401610354565b61104f33611643565b600082601f83011261179557600080fd5b61179d611a09565b8083856040860111156117af57600080fd5b60005b60028110156117d15781358452602093840193909101906001016117b2565b509095945050505050565b6000602082840312156117ee57600080fd5b81356117f981611abd565b9392505050565b60006020828403121561181257600080fd5b81516117f981611ad2565b60006020828403121561182f57600080fd5b5035919050565b6000806040838503121561184957600080fd5b50508035926020909101359150565b6000806000806000806000610180888a03121561187457600080fd5b87359650602088013595506040808901359550606089013561189581611ad2565b94506118a48a60808b01611784565b93508960df8a01126118b557600080fd5b6118bd611a09565b8060c08b016101408c018d8111156118d457600080fd5b60005b60028110156118fe576118ea8f84611784565b8552602090940193918501916001016118d7565b5082965061190c8e82611784565b9550505050505092959891949750929550565b6000806040838503121561193257600080fd5b82359150602083013567ffffffffffffffff8116811461195157600080fd5b809150509250929050565b8060005b600281101561197f578151845260209384019390910190600101611960565b50505050565b6101808101611994828761195c565b60408083018660005b60028110156119c4576119b183835161195c565b918301916020919091019060010161199d565b505050506119d560c083018561195c565b61010082018360005b60048110156119fd5781518352602092830192909101906001016119de565b50505095945050505050565b6040805190810167ffffffffffffffff81118282101715611a3a57634e487b7160e01b600052604160045260246000fd5b60405290565b60008219821115611a5357611a53611a91565b500190565b600082611a7557634e487b7160e01b600052601260045260246000fd5b500490565b600082821015611a8c57611a8c611a91565b500390565b634e487b7160e01b600052601160045260246000fd5b634e487b7160e01b600052603260045260246000fd5b6001600160a01b03811681146115e657600080fd5b80151581146115e657600080fdfea26469706673582212207f49058bd150ce0b715d8f67107cc3845de459fe9a7078001dfa1892d11f4cd964736f6c63430008070033",
  "linkReferences": {},
  "deployedLinkReferences": {}
}