{
  "_format": "hh-sol-artifact-1",
  "contractName": "TestValidator",
  "sourceName": "contracts/test/TestValidator.sol",
  "abi": [
    {
      "inputs": [
        {
          "internalType": "address",
          "name": "_validator",
          "type": "address"
        }
      ],
      "stateMutability": "nonpayable",
      "type": "constructor"
    },
    {
      "inputs": [
        {
          "internalType": "uint256[2]",
          "name": "a",
          "type": "uint256[2]"
        },
        {
          "internalType": "uint256[2][2]",
          "name": "b",
          "type": "uint256[2][2]"
        },
        {
          "internalType": "uint256[2]",
          "name": "c",
          "type": "uint256[2]"
        },
        {
          "internalType": "uint256[9]",
          "name": "pubSigs",
          "type": "uint256[9]"
        }
      ],
      "name": "verify",
      "outputs": [
        {
          "internalType": "bool",
          "name": "",
          "type": "bool"
        }
      ],
      "stateMutability": "nonpayable",
      "type": "function"
    }
  ],
  "bytecode": "0x608060405234801561001057600080fd5b506040516105b33803806105b383398101604081905261002f91610054565b600180546001600160a01b0319166001600160a01b0392909216919091179055610084565b60006020828403121561006657600080fd5b81516001600160a01b038116811461007d57600080fd5b9392505050565b610520806100936000396000f3fe608060405234801561001057600080fd5b506004361061002b5760003560e01c8063c821f40714610030575b600080fd5b61004361003e36600461022e565b610057565b604051901515815260200160405180910390f35b60006100846040518060800160405280600081526020016000815260200160008152602001606081525090565b60c0830151815260e083015160208281019190915261010084015160408084019190915280518082018252600581527f517565727900000000000000000000000000000000000000000000000000000092810192909252606083019190915260015490517f5802c3f700000000000000000000000000000000000000000000000000000000815273ffffffffffffffffffffffffffffffffffffffff90911690635802c3f79061014090899089908990899088906004016103e7565b60206040518083038186803b15801561015857600080fd5b505afa15801561016c573d6000803e3d6000fd5b505050506040513d601f19601f82011682018060405250810190610190919061031f565b156101c8575050600080547fffffffffffffffffffffffff0000000000000000000000000000000000000000163317905560016101ce565b60009150505b949350505050565b600082601f8301126101e757600080fd5b6101ef610481565b80838560408601111561020157600080fd5b60005b6002811015610223578135845260209384019390910190600101610204565b509095945050505050565b60008060008061022080868803121561024657600080fd5b61025087876101d6565b9450604087605f88011261026357600080fd5b61026b610481565b8082890160c08a018b81111561028057600080fd5b60005b60028110156102aa576102968d846101d6565b855260209094019391850191600101610283565b508298506102b88c826101d6565b975050505050508661011f8701126102cf57600080fd5b6102d76104b8565b80610100880189848a0111156102ec57600080fd5b600093505b6009841015610311578035835260019390930192602092830192016102f1565b509598949750929550505050565b60006020828403121561033157600080fd5b8151801515811461034157600080fd5b9392505050565b8060005b600281101561036b57815184526020938401939091019060010161034c565b50505050565b8051825260006020808301518185015260408301516040850152606083015160806060860152805180608087015260005b818110156103be5782810184015187820160a0015283016103a2565b818111156103d057600060a083890101525b50601f01601f19169490940160a001949350505050565b60006102406103f68389610348565b60408084018860005b600281101561042657610413838351610348565b91830191602091909101906001016103ff565b5050505061043760c0840187610348565b61010083018560005b600981101561045f578151835260209283019290910190600101610440565b5050508061022084015261047581840185610371565b98975050505050505050565b6040805190810167ffffffffffffffff811182821017156104b257634e487b7160e01b600052604160045260246000fd5b60405290565b604051610120810167ffffffffffffffff811182821017156104b257634e487b7160e01b600052604160045260246000fdfea2646970667358221220631958b176c5fc8eff3bb4a904174e0b085310f10f92cb68471db773330b26e064736f6c63430008070033",
  "linkReferences": {},
  "deployedLinkReferences": {}
}