{
  "_format": "hh-sol-artifact-1",
  "contractName": "TestValidator",
  "sourceName": "contracts/test/TestValidator.sol",
  "abi": [
    {
      "inputs": [
        {
          "internalType": "address",
          "name": "_mtpValidator",
          "type": "address"
        },
        {
          "internalType": "address",
          "name": "_sigValidator",
          "type": "address"
        }
      ],
      "stateMutability": "nonpayable",
      "type": "constructor"
    },
    {
      "inputs": [],
      "name": "mtpValidator",
      "outputs": [
        {
          "internalType": "contract IValidator",
          "name": "",
          "type": "address"
        }
      ],
      "stateMutability": "view",
      "type": "function"
    },
    {
      "inputs": [],
      "name": "owner",
      "outputs": [
        {
          "internalType": "address",
          "name": "",
          "type": "address"
        }
      ],
      "stateMutability": "view",
      "type": "function"
    },
    {
      "inputs": [],
      "name": "sigValidator",
      "outputs": [
        {
          "internalType": "contract IValidator",
          "name": "",
          "type": "address"
        }
      ],
      "stateMutability": "view",
      "type": "function"
    },
    {
      "inputs": [
        {
          "internalType": "uint256[2]",
          "name": "a",
          "type": "uint256[2]"
        },
        {
          "internalType": "uint256[2][2]",
          "name": "b",
          "type": "uint256[2][2]"
        },
        {
          "internalType": "uint256[2]",
          "name": "c",
          "type": "uint256[2]"
        },
        {
          "internalType": "uint256[9]",
          "name": "pubSigs",
          "type": "uint256[9]"
        }
      ],
      "name": "verifyMTP",
      "outputs": [
        {
          "internalType": "bool",
          "name": "",
          "type": "bool"
        }
      ],
      "stateMutability": "nonpayable",
      "type": "function"
    },
    {
      "inputs": [
        {
          "internalType": "uint256[2]",
          "name": "a",
          "type": "uint256[2]"
        },
        {
          "internalType": "uint256[2][2]",
          "name": "b",
          "type": "uint256[2][2]"
        },
        {
          "internalType": "uint256[2]",
          "name": "c",
          "type": "uint256[2]"
        },
        {
          "internalType": "uint256[9]",
          "name": "pubSigs",
          "type": "uint256[9]"
        }
      ],
      "name": "verifySig",
      "outputs": [
        {
          "internalType": "bool",
          "name": "",
          "type": "bool"
        }
      ],
      "stateMutability": "nonpayable",
      "type": "function"
    }
  ],
  "bytecode": "0x608060405234801561001057600080fd5b506040516106ec3803806106ec83398101604081905261002f9161007c565b600180546001600160a01b039384166001600160a01b031991821617909155600280549290931691161790556100af565b80516001600160a01b038116811461007757600080fd5b919050565b6000806040838503121561008f57600080fd5b61009883610060565b91506100a660208401610060565b90509250929050565b61062e806100be6000396000f3fe608060405234801561001057600080fd5b50600436106100675760003560e01c806379501bf61161005057806379501bf6146100bf5780638da5cb5b146100d2578063e125bcb5146100e557600080fd5b80636a1c4be11461006c57806373b39ab91461009c575b600080fd5b60015461007f906001600160a01b031681565b6040516001600160a01b0390911681526020015b60405180910390f35b6100af6100aa36600461033c565b6100f8565b6040519015158152602001610093565b60025461007f906001600160a01b031681565b60005461007f906001600160a01b031681565b6100af6100f336600461033c565b610239565b60006101256040518060800160405280600081526020016000815260200160008152602001606081525090565b60c083015160208281019190915260e08401518252610100840151604080840191909152805180820182526005815264517565727960d81b9281019290925260608301919091526002549051635802c3f760e01b81526001600160a01b0390911690635802c3f7906101a390899089908990899088906004016104f5565b60206040518083038186803b1580156101bb57600080fd5b505afa1580156101cf573d6000803e3d6000fd5b505050506040513d601f19601f820116820180604052508101906101f3919061042d565b1561022b575050600080547fffffffffffffffffffffffff000000000000000000000000000000000000000016331790556001610231565b60009150505b949350505050565b60006102666040518060800160405280600081526020016000815260200160008152602001606081525090565b60c0830151815260e0830151602082810191909152610100840151604080840191909152805180820182526005815264517565727960d81b9281019290925260608301919091526001549051635802c3f760e01b81526001600160a01b0390911690635802c3f7906101a390899089908990899088906004016104f5565b600082601f8301126102f557600080fd5b6102fd61058f565b80838560408601111561030f57600080fd5b60005b6002811015610331578135845260209384019390910190600101610312565b509095945050505050565b60008060008061022080868803121561035457600080fd5b61035e87876102e4565b9450604087605f88011261037157600080fd5b61037961058f565b8082890160c08a018b81111561038e57600080fd5b60005b60028110156103b8576103a48d846102e4565b855260209094019391850191600101610391565b508298506103c68c826102e4565b975050505050508661011f8701126103dd57600080fd5b6103e56105c6565b80610100880189848a0111156103fa57600080fd5b600093505b600984101561041f578035835260019390930192602092830192016103ff565b509598949750929550505050565b60006020828403121561043f57600080fd5b8151801515811461044f57600080fd5b9392505050565b8060005b600281101561047957815184526020938401939091019060010161045a565b50505050565b8051825260006020808301518185015260408301516040850152606083015160806060860152805180608087015260005b818110156104cc5782810184015187820160a0015283016104b0565b818111156104de57600060a083890101525b50601f01601f19169490940160a001949350505050565b60006102406105048389610456565b60408084018860005b600281101561053457610521838351610456565b918301916020919091019060010161050d565b5050505061054560c0840187610456565b61010083018560005b600981101561056d57815183526020928301929091019060010161054e565b505050806102208401526105838184018561047f565b98975050505050505050565b6040805190810167ffffffffffffffff811182821017156105c057634e487b7160e01b600052604160045260246000fd5b60405290565b604051610120810167ffffffffffffffff811182821017156105c057634e487b7160e01b600052604160045260246000fdfea264697066735822122020b27c4d23d7f2911bbe1d2f165178b7da7674ac4927c809646154d7a516f19264736f6c63430008070033",
  "linkReferences": {},
  "deployedLinkReferences": {}
}