{
  "_format": "hh-sol-artifact-1",
  "contractName": "TestValidator",
  "sourceName": "contracts/test/TestValidator.sol",
  "abi": [
    {
      "inputs": [
        {
          "internalType": "address",
          "name": "_mtpValidator",
          "type": "address"
        },
        {
          "internalType": "address",
          "name": "_sigValidator",
          "type": "address"
        }
      ],
      "stateMutability": "nonpayable",
      "type": "constructor"
    },
    {
      "inputs": [],
      "name": "mtpValidator",
      "outputs": [
        {
          "internalType": "contract IValidator",
          "name": "",
          "type": "address"
        }
      ],
      "stateMutability": "view",
      "type": "function"
    },
    {
      "inputs": [],
      "name": "owner",
      "outputs": [
        {
          "internalType": "address",
          "name": "",
          "type": "address"
        }
      ],
      "stateMutability": "view",
      "type": "function"
    },
    {
      "inputs": [],
      "name": "sigValidator",
      "outputs": [
        {
          "internalType": "contract IValidator",
          "name": "",
          "type": "address"
        }
      ],
      "stateMutability": "view",
      "type": "function"
    },
    {
      "inputs": [
        {
          "internalType": "uint256[2]",
          "name": "a",
          "type": "uint256[2]"
        },
        {
          "internalType": "uint256[2][2]",
          "name": "b",
          "type": "uint256[2][2]"
        },
        {
          "internalType": "uint256[2]",
          "name": "c",
          "type": "uint256[2]"
        },
        {
          "internalType": "uint256[9]",
          "name": "pubSigs",
          "type": "uint256[9]"
        }
      ],
      "name": "verifyMTP",
      "outputs": [
        {
          "internalType": "bool",
          "name": "",
          "type": "bool"
        }
      ],
      "stateMutability": "nonpayable",
      "type": "function"
    },
    {
      "inputs": [
        {
          "internalType": "uint256[2]",
          "name": "a",
          "type": "uint256[2]"
        },
        {
          "internalType": "uint256[2][2]",
          "name": "b",
          "type": "uint256[2][2]"
        },
        {
          "internalType": "uint256[2]",
          "name": "c",
          "type": "uint256[2]"
        },
        {
          "internalType": "uint256[9]",
          "name": "pubSigs",
          "type": "uint256[9]"
        }
      ],
      "name": "verifySig",
      "outputs": [
        {
          "internalType": "bool",
          "name": "",
          "type": "bool"
        }
      ],
      "stateMutability": "nonpayable",
      "type": "function"
    }
  ],
  "bytecode": "0x63013046a760808181526401d6f3455960a08190526001600160641b0360c0819052610140604052600561010081815264517565727960d81b61012090815260e0919091526003958655600493909355908155919291610061916006916100c0565b50505034801561007057600080fd5b5060405161079138038061079183398101604081905261008f91610175565b600180546001600160a01b039384166001600160a01b031991821617909155600280549290931691161790556101e3565b8280546100cc906101a8565b90600052602060002090601f0160209004810192826100ee5760008555610134565b82601f1061010757805160ff1916838001178555610134565b82800160010185558215610134579182015b82811115610134578251825591602001919060010190610119565b50610140929150610144565b5090565b5b808211156101405760008155600101610145565b80516001600160a01b038116811461017057600080fd5b919050565b6000806040838503121561018857600080fd5b61019183610159565b915061019f60208401610159565b90509250929050565b600181811c908216806101bc57607f821691505b602082108114156101dd57634e487b7160e01b600052602260045260246000fd5b50919050565b61059f806101f26000396000f3fe608060405234801561001057600080fd5b50600436106100675760003560e01c806379501bf61161005057806379501bf6146100bf5780638da5cb5b146100d2578063e125bcb5146100e557600080fd5b80636a1c4be11461006c57806373b39ab91461009c575b600080fd5b60015461007f906001600160a01b031681565b6040516001600160a01b0390911681526020015b60405180910390f35b6100af6100aa366004610257565b6100f8565b6040519015158152602001610093565b60025461007f906001600160a01b031681565b60005461007f906001600160a01b031681565b6100af6100f3366004610257565b6101c5565b600254604051635802c3f760e01b81526000916001600160a01b031690635802c3f790610132908890889088908890600390600401610466565b60206040518083038186803b15801561014a57600080fd5b505afa15801561015e573d6000803e3d6000fd5b505050506040513d601f19601f820116820180604052508101906101829190610348565b156101b95750600080547fffffffffffffffffffffffff0000000000000000000000000000000000000000163317905560016101bd565b5060005b949350505050565b600154604051635802c3f760e01b81526000916001600160a01b031690635802c3f790610132908890889088908890600390600401610466565b600082601f83011261021057600080fd5b610218610500565b80838560408601111561022a57600080fd5b60005b600281101561024c57813584526020938401939091019060010161022d565b509095945050505050565b60008060008061022080868803121561026f57600080fd5b61027987876101ff565b9450604087605f88011261028c57600080fd5b610294610500565b8082890160c08a018b8111156102a957600080fd5b60005b60028110156102d3576102bf8d846101ff565b8552602090940193918501916001016102ac565b508298506102e18c826101ff565b975050505050508661011f8701126102f857600080fd5b610300610537565b80610100880189848a01111561031557600080fd5b600093505b600984101561033a5780358352600193909301926020928301920161031a565b509598949750929550505050565b60006020828403121561035a57600080fd5b8151801515811461036a57600080fd5b9392505050565b8060005b6002811015610394578151845260209384019390910190600101610375565b50505050565b805482526000600180830154602081818701526002850154604087015260038501915060806060870152600082548181861c9050858216806103dd57607f821691505b8482108114156103fb57634e487b7160e01b84526022600452602484fd5b60808a0182905260a08a0181801561041a576001811461042b57610456565b60ff19851682528682019550610456565b60008881526020902060005b8581101561045057815484820152908a01908801610437565b83019650505b50939a9950505050505050505050565b60006102406104758389610371565b60408084018860005b60028110156104a557610492838351610371565b918301916020919091019060010161047e565b505050506104b660c0840187610371565b61010083018560005b60098110156104de5781518352602092830192909101906001016104bf565b505050806102208401526104f48184018561039a565b98975050505050505050565b6040805190810167ffffffffffffffff8111828210171561053157634e487b7160e01b600052604160045260246000fd5b60405290565b604051610120810167ffffffffffffffff8111828210171561053157634e487b7160e01b600052604160045260246000fdfea26469706673582212208043fc5463b2b741f9725606452a7bed5def6926a0c0e3a02bc367bf8dec90fc64736f6c63430008070033",
  "linkReferences": {},
  "deployedLinkReferences": {}
}