{
  "_format": "hh-sol-artifact-1",
  "contractName": "QuerySigVerifier",
  "sourceName": "contracts/verifiers/QuerySigVerifier.sol",
  "abi": [
    {
      "inputs": [
        {
          "internalType": "uint256[2]",
          "name": "a",
          "type": "uint256[2]"
        },
        {
          "internalType": "uint256[2][2]",
          "name": "b",
          "type": "uint256[2][2]"
        },
        {
          "internalType": "uint256[2]",
          "name": "c",
          "type": "uint256[2]"
        },
        {
          "internalType": "uint256[9]",
          "name": "input",
          "type": "uint256[9]"
        }
      ],
      "name": "verifyProof",
      "outputs": [
        {
          "internalType": "bool",
          "name": "r",
          "type": "bool"
        }
      ],
      "stateMutability": "view",
      "type": "function"
    }
  ],
  "bytecode": "0x608060405234801561001057600080fd5b5061158a806100206000396000f3fe608060405234801561001057600080fd5b506004361061002b5760003560e01c8063c542c93b14610030575b600080fd5b61004361003e36600461132d565b610057565b604051901515815260200160405180910390f35b600061006161119b565b60408051808201825287518152602080890151818301529083528151608081018352875151818401908152885183015160608301528152825180840184528883018051518252518301518184015281830152838201528151808301835286518152868201518183015283830152815160098082526101408201909352600092909182016101208036833701905050905060005b60098110156101435784816009811061010f5761010f611528565b602002015182828151811061012657610126611528565b60209081029190910101528061013b816114d5565b9150506100f4565b5061014e818361016c565b61015d57600192505050610164565b6000925050505b949350505050565b60007f30644e72e131a029b85045b68181585d2833e84879b9709143e1f593f00000018161019861036e565b9050806080015151855160016101ae9190611487565b146102005760405162461bcd60e51b815260206004820152601260248201527f76657269666965722d6261642d696e707574000000000000000000000000000060448201526064015b60405180910390fd5b604080518082019091526000808252602082018190525b86518110156102f1578387828151811061023357610233611528565b6020026020010151106102885760405162461bcd60e51b815260206004820152601f60248201527f76657269666965722d6774652d736e61726b2d7363616c61722d6669656c640060448201526064016101f7565b6102dd826102d885608001518460016102a19190611487565b815181106102b1576102b1611528565b60200260200101518a85815181106102cb576102cb611528565b6020026020010151610ac1565b610b68565b9150806102e9816114d5565b915050610217565b5061031a81836080015160008151811061030d5761030d611528565b6020026020010151610b68565b905061035061032c8660000151610c0b565b8660200151846000015185602001518587604001518b604001518960600151610caa565b6103605760019350505050610368565b600093505050505b92915050565b6103766111ec565b6040805180820182527f0b5dcd20b2c877922f1dc6b9ab7612a488a4960cf6a50d634ce5edd3b4aa752c81527f169014d5471334ecce07b840a4c8805ff5f56f53c9db7df42302d095eb80e8926020808301919091529083528151608080820184527f1df093d824dd1701460f1052df89350d338b2410321b80bff70ac2e82fa82ea88285019081527f0760439e8ad5d8cc95834ec7f5b24c4ef0751ee6a2bf19ff47d20ded514448a8606080850191909152908352845180860186527f2537195b41b650638f1a3f1321794d0b3f8a5262d125a230fd0c8d207e7dec1981527f23956c43a3927d35d6ae322bcb65bddab490acd4387bc708ae55d583a96287f0818601528385015285840192909252835180820185527f198e9393920d483a7260bfb731fb5d25f1aa493335a9e71297e485b7aef312c28186019081527f1800deef121f1e76426a00665e5c4479674322d4f75edadd46debd5cd992f6ed828501528152845180860186527f090689d0585ff075ec9e99ad690c3395bc4b313370b38ef355acdadcd122975b81527f12c85ea5db8c6deb4aab71808dcb408fe3d1e7690c43d37b4ce6cc0166fa7daa818601528185015285850152835190810184527f1bdb443ce61ebcf93daed4215a57e1cec90ca64973023e31197a112e8cee72f68185019081527f117e26c4235f42625b3404f2973059814ff260dba7176d7aae910f493a8e1fb5828401528152835180850185527f196e247a12f580e36894f256f0c122393489b4c213b3e913250feee806ca45ff81527f2fedff4e4bbcbf9f1c56e28a060d50eef5f54e2aab897f6b465acd2ed005ae918185015281840152908401528151600a8082526101608201909352919082015b60408051808201909152600080825260208201528152602001906001900390816105f257505060808201908152604080518082019091527f03b8d8a75bfed9334bd6afa8f41b240805a879ee54cfc485d9a303612fc909eb81527f2880181c54381a9e4cc37ac38e252597ffd64840cd3e3a5d4edbb35a909ef11560208201529051805160009061068557610685611528565b602002602001018190525060405180604001604052807f30439f1789e654666925e7da221a298dc970d64a352229a8c9c797fd416c7fa781526020017f2ad9f16956b9486096ef48cee06394e08664ec23298cd5d735002b2054b8ab0381525081608001516001815181106106fc576106fc611528565b602002602001018190525060405180604001604052807f2e0f90a3cf1cab8d1804f22318557325c5830313aae2e37f9f96cb8c949a78f081526020017e8a55c29e7f921f06af63de8e474f22aa232af5e09cce7e493d6582ae0f4e0f815250816080015160028151811061077257610772611528565b602002602001018190525060405180604001604052807f297e67879163216d0a7e3fbf5cf1841336174c4d3b873afa39fe7f5584febeff81526020017f2232723f27bce2d8fe9b9aad2b7f25c1994b2dab937cf7c4222b8fecd6048fa581525081608001516003815181106107e9576107e9611528565b602002602001018190525060405180604001604052807f0dcf548df926c2778edbe23549772387db7c05b312b2a0785f249d82d83eada481526020017f152dddbfd1561f715b202e80923bfa8bfcd7282b10a95fc9909c4cf0c9d6d6a6815250816080015160048151811061086057610860611528565b602002602001018190525060405180604001604052807f1b5fb9b5e1db7e7a41031b895d197171c71451dd49128092ff841018fe72f3e781526020017f247485eb995ed61ff7aad4cdf64b1b73fb021048eb571bf725abe0c226fbcc3d81525081608001516005815181106108d7576108d7611528565b602002602001018190525060405180604001604052807f21fae8f0c5bb30ea28cc07429cee0457d37bd6393adcbfd0879825ee8f2ff94181526020017f1950c524e3a514dd8e3f7d6d78a64ca915bf5c8cb92c732c6b8dc70f04367613815250816080015160068151811061094e5761094e611528565b602002602001018190525060405180604001604052807f1a6e4936438ec15e32ad0d634f45fad3c2432fd8b66076cf546b04adabbdeadb81526020017f2f416a7790d52554b87a5591ed2758740af8594cf77cf84573967a00959a5b3081525081608001516007815181106109c5576109c5611528565b602002602001018190525060405180604001604052807f0393c8b650f16c911131216ff9bced247421bb079a2490220460a8e05a7c164681526020017f0b44a25f42e3e1cfcfc3dfc579d1292c0bad407fbc88efc82b829eb51839eecf8152508160800151600881518110610a3c57610a3c611528565b602002602001018190525060405180604001604052807f146015ebcf005aada03abd5c393a725a5ba8a601966a5120f5a9b6adf33a2c7081526020017f1cdb287551cb41562a9e16f11c7e8b3e72d6090105252319e692a8bc13aa90e68152508160800151600981518110610ab357610ab3611528565b602002602001018190525090565b6040805180820190915260008082526020820152610add61123d565b835181526020808501519082015260408101839052600060608360808460076107d05a03fa9050808015610b1057610b12565bfe5b5080610b605760405162461bcd60e51b815260206004820152601260248201527f70616972696e672d6d756c2d6661696c6564000000000000000000000000000060448201526064016101f7565b505092915050565b6040805180820190915260008082526020820152610b8461125b565b8351815260208085015181830152835160408301528301516060808301919091526000908360c08460066107d05a03fa9050808015610b10575080610b605760405162461bcd60e51b815260206004820152601260248201527f70616972696e672d6164642d6661696c6564000000000000000000000000000060448201526064016101f7565b604080518082019091526000808252602082015281517f30644e72e131a029b85045b68181585d97816a916871ca8d3c208c16d87cfd4790158015610c5257506020830151155b15610c725750506040805180820190915260008082526020820152919050565b604051806040016040528084600001518152602001828560200151610c9791906114f0565b610ca190846114be565b90529392505050565b60408051600480825260a08201909252600091829190816020015b6040805180820190915260008082526020820152815260200190600190039081610cc557505060408051600480825260a0820190925291925060009190602082015b610d0f611279565b815260200190600190039081610d075790505090508a82600081518110610d3857610d38611528565b60200260200101819052508882600181518110610d5757610d57611528565b60200260200101819052508682600281518110610d7657610d76611528565b60200260200101819052508482600381518110610d9557610d95611528565b60200260200101819052508981600081518110610db457610db4611528565b60200260200101819052508781600181518110610dd357610dd3611528565b60200260200101819052508581600281518110610df257610df2611528565b60200260200101819052508381600381518110610e1157610e11611528565b6020026020010181905250610e268282610e35565b9b9a5050505050505050505050565b60008151835114610e885760405162461bcd60e51b815260206004820152601660248201527f70616972696e672d6c656e677468732d6661696c65640000000000000000000060448201526064016101f7565b82516000610e9782600661149f565b905060008167ffffffffffffffff811115610eb457610eb461153e565b604051908082528060200260200182016040528015610edd578160200160208202803683370190505b50905060005b8381101561111857868181518110610efd57610efd611528565b60200260200101516000015182826006610f17919061149f565b610f22906000611487565b81518110610f3257610f32611528565b602002602001018181525050868181518110610f5057610f50611528565b60200260200101516020015182826006610f6a919061149f565b610f75906001611487565b81518110610f8557610f85611528565b602002602001018181525050858181518110610fa357610fa3611528565b6020908102919091010151515182610fbc83600661149f565b610fc7906002611487565b81518110610fd757610fd7611528565b602002602001018181525050858181518110610ff557610ff5611528565b6020908102919091018101515101518261101083600661149f565b61101b906003611487565b8151811061102b5761102b611528565b60200260200101818152505085818151811061104957611049611528565b60200260200101516020015160006002811061106757611067611528565b60200201518261107883600661149f565b611083906004611487565b8151811061109357611093611528565b6020026020010181815250508581815181106110b1576110b1611528565b6020026020010151602001516001600281106110cf576110cf611528565b6020020151826110e083600661149f565b6110eb906005611487565b815181106110fb576110fb611528565b602090810291909101015280611110816114d5565b915050610ee3565b50611121611299565b6000602082602086026020860160086107d05a03fa9050808015610b1057508061118d5760405162461bcd60e51b815260206004820152601560248201527f70616972696e672d6f70636f64652d6661696c6564000000000000000000000060448201526064016101f7565b505115159695505050505050565b6040805160a0810190915260006060820181815260808301919091528152602081016111c5611279565b81526020016111e7604051806040016040528060008152602001600081525090565b905290565b6040805160e08101909152600060a0820181815260c0830191909152815260208101611216611279565b8152602001611223611279565b8152602001611230611279565b8152602001606081525090565b60405180606001604052806003906020820280368337509192915050565b60405180608001604052806004906020820280368337509192915050565b604051806040016040528061128c6112b7565b81526020016111e76112b7565b60405180602001604052806001906020820280368337509192915050565b60405180604001604052806002906020820280368337509192915050565b600082601f8301126112e657600080fd5b6112ee61141e565b80838560408601111561130057600080fd5b60005b6002811015611322578135845260209384019390910190600101611303565b509095945050505050565b60008060008061022080868803121561134557600080fd5b61134f87876112d5565b9450604087605f88011261136257600080fd5b61136a61141e565b8082890160c08a018b81111561137f57600080fd5b60005b60028110156113a9576113958d846112d5565b855260209094019391850191600101611382565b508298506113b78c826112d5565b975050505050508661011f8701126113ce57600080fd5b6113d6611455565b80610100880189848a0111156113eb57600080fd5b600093505b6009841015611410578035835260019390930192602092830192016113f0565b509598949750929550505050565b6040805190810167ffffffffffffffff8111828210171561144f57634e487b7160e01b600052604160045260246000fd5b60405290565b604051610120810167ffffffffffffffff8111828210171561144f57634e487b7160e01b600052604160045260246000fd5b6000821982111561149a5761149a611512565b500190565b60008160001904831182151516156114b9576114b9611512565b500290565b6000828210156114d0576114d0611512565b500390565b60006000198214156114e9576114e9611512565b5060010190565b60008261150d57634e487b7160e01b600052601260045260246000fd5b500690565b634e487b7160e01b600052601160045260246000fd5b634e487b7160e01b600052603260045260246000fd5b634e487b7160e01b600052604160045260246000fdfea2646970667358221220a5dca22ef120d59e870f7b0da7e7f93042f11529869802ffc5586e675cf7bb8964736f6c63430008070033",
  "linkReferences": {},
  "deployedLinkReferences": {}
}